:020000040800F2
:1000000000000120E91F000895180008AD1800083D
:10001000C5180008DD180008F518000800000000E9
:100020000000000000000000000000000D190008A2
:1000300019190008000000002519000831190008EE
:10004000392000083920000839200008392000082C
:10005000392000083920000839200008392000081C
:10006000392000083920000839200008392000080C
:1000700039200008392000083920000839200008FC
:1000800039200008392000083920000839200008EC
:1000900039200008392000083920000839200008DC
:1000A000392000083920000839200008D16C0008E8
:1000B00039200008392000083920000839200008BC
:1000C00039200008392000083920000839200008AC
:1000D0003920000839200008291F000839200008AD
:1000E000392000083920000839200008392000088C
:1000F000392000083920000839200008392000087C
:100100003920000839200008BD66000839200008A1
:10011000392000083920000839200008392000085B
:10012000392000083920000839200008392000084B
:08013000392000083920000805
:1001400010B5054C237833B9044B13B10448AFF311
:1001500000800123237010BD200300200000000058
:1001600074BE020808B5034B1BB103490348AFF343
:10017000008008BD000000002403002074BE0208B7
:1001800001F0FF01102A2BDB10F0070F08D010F848
:10019000013B013A8B422DD010F0070F42B3F6D14C
:1001A000F0B441EA012141EA014122F007047FF065
:1001B00000070023F0E80256083C85EA010586EABC
:1001C000010685FA47F5A3FA87F586FA47F6A5FAF8
:1001D00087F68EB9EED1F0BC01F0FF0102F0070204
:1001E00032B110F8013B013A83EA010313B1F8D1AF
:1001F0000020704701387047002D06BF3546033890
:10020000073815F0010F07D1013015F4807F02BFC8
:10021000013015F4C03F0130F0BC0138704700BF19
:10022000034613F8012B002AFBD1181A0138704736
:1002300070B54FF0FF0C4CF4E06C1CEA11541DBF7C
:100240001CEA135594EA0C0F95EA0C0F00F0DEF847
:100250002C4481EA030621EA4C5123EA4C5350EA2C
:10026000013518BF52EA033541F4801143F480137D
:1002700038D0A0FB02CE4FF00005E1FB02E506F00E
:100280000042E0FB03E54FF00006E1FB03569CF063
:10029000000F18BF4EF0010EA4F1FF04B6F5007F69
:1002A00064F5407404D25FEA4E0E6D4146EB0606DB
:1002B00042EAC62141EA55514FEAC52040EA5E5064
:1002C0004FEACE2EB4F1FD0C88BFBCF5E06F1ED80E
:1002D000BEF1004F08BF5FEA500E50F1000041EB45
:1002E000045170BD06F0004646EA010140EA0200F2
:1002F00081EA0301B4EB5C04C2BFD4EB0C0541EA14
:10030000045170BD41F480114FF0000E013C00F328
:10031000AB8014F1360FDEBF002001F0004170BD4C
:10032000C4F10004203C35DA0C341BDC04F1140465
:10033000C4F1200500FA05F320FA04F001FA05F2F1
:1003400040EA020001F0004221F0004110EBD370BE
:1003500021FA04F642EB06015EEA430E08BF20EAEA
:10036000D37070BDC4F10C04C4F1200500FA04F38D
:1003700020FA05F001FA04F240EA020001F000411F
:1003800010EBD37041F100015EEA430E08BF20EA92
:10039000D37070BDC4F1200500FA05F24EEA020EDA
:1003A00020FA04F301FA05F243EA020321FA04F009
:1003B00001F0004121FA04F220EA020000EBD370C0
:1003C0005EEA430E08BF20EAD37070BD94F0000FC0
:1003D0000FD101F00046400041EB010111F4801FF4
:1003E00008BF013CF7D041EA060195F0000F18BFA5
:1003F000704703F00046520043EB030313F4801FE1
:1004000008BF013DF7D043EA0603704794EA0C0F9A
:100410000CEA135518BF95EA0C0F0CD050EA4106B0
:1004200018BF52EA4306D1D181EA030101F000412D
:100430004FF0000070BD50EA410606BF1046194655
:1004400052EA430619D094EA0C0F02D150EA013661
:1004500013D195EA0C0F05D152EA03361CBF1046A2
:1004600019460AD181EA030101F0004141F0FE4141
:1004700041F470014FF0000070BD41F0FE4141F4C5
:10048000780170BD81F0004102E000BF83F00043BD
:1004900030B54FEA41044FEA430594EA050F08BF1F
:1004A00090EA020F1FBF54EA000C55EA020C7FEAE3
:1004B000645C7FEA655C00F0E2804FEA5454D4EB60
:1004C0005555B8BF6D420CDD2C4480EA020281EA2A
:1004D000030382EA000083EA010180EA020281EA62
:1004E0000303362D88BF30BD11F0004F4FEA0131B4
:1004F0004FF4801C4CEA113102D0404261EB4101C3
:1005000013F0004F4FEA03334CEA133302D0524248
:1005100063EB430394EA050F00F0A780A4F1010404
:10052000D5F1200E0DDB02FA0EFC22FA05F280183E
:1005300041F1000103FA0EF2801843FA05F3594124
:100540000EE0A5F120050EF1200E012A03FA0EFCA3
:1005500028BF4CF0020C43FA05F3C01851EBE371CD
:1005600001F0004507D54FF0000EDCF1000C7EEBEA
:1005700000006EEB0101B1F5801F1BD3B1F5001F28
:100580000CD349085FEA30004FEA3C0C04F1010447
:100590004FEA445212F5800F80F09A80BCF1004F70
:1005A00008BF5FEA500C50F1000041EB045141EAF2
:1005B000050130BD5FEA4C0C404141EB0101013CBB
:1005C00028BFB1F5801FE9D291F0000F04BF0146AA
:1005D0000020B1FA81F308BF2033A3F10B03B3F17C
:1005E00020020CDA0C3208DD02F1140CC2F10C020C
:1005F00001FA0CF021FA02F10CE002F11402D8BF6A
:10060000C2F1200C01FA02F120FA0CFCDCBF41EA35
:100610000C019040E41AA2BF01EB0451294330BD04
:100620006FEA04041F3C1CDA0C340EDC04F11404E1
:10063000C4F1200220FA04F001FA02F340EA0300B8
:1006400021FA04F345EA030130BDC4F10C04C4F1FE
:10065000200220FA02F001FA04F340EA03002946DE
:1006600030BD21FA04F0294630BD94F0000F83F428
:10067000801306BF81F480110134013D4EE77FEA0B
:10068000645C18BF7FEA655C29D094EA050F08BF57
:1006900090EA020F05D054EA000C04BF1946104638
:1006A00030BD91EA030F1EBF0021002030BD5FEA7C
:1006B000545C05D14000494128BF41F0004130BDA4
:1006C00014F580043CBF01F5801130BD01F00045F8
:1006D00045F0FE4141F470014FF0000030BD7FEA6B
:1006E000645C1ABF194610467FEA655C1CBF0B4666
:1006F000024650EA013406BF52EA033591EA030F7D
:1007000041F4002130BD00BF90F0000F04BF002174
:10071000704730B54FF4806404F132044FF00005A7
:100720004FF0000150E700BF90F0000F04BF002120
:10073000704730B54FF4806404F1320410F0004586
:1007400048BF40424FF000013EE700BF42004FEA81
:10075000E2014FEA31014FEA02701FBF12F07F43FE
:1007600093F07F4F81F06051704732F07F4208BFB5
:10077000704793F07F4F04BF41F40021704730B5BC
:100780004FF4607401F0004521F000411CE700BF08
:1007900050EA010208BF704730B54FF000050AE08B
:1007A00050EA010208BF704730B511F0004502D58C
:1007B000404261EB41014FF4806404F132045FEA8E
:1007C000915C3FF4D8AE4FF003025FEADC0C18BF37
:1007D00003325FEADC0C18BF033202EBDC02C2F129
:1007E000200300FA03FC20FA02F001FA03FE40EABB
:1007F0000E0021FA02F11444BDE600BF4FF0FF3CA9
:1008000006E000BF4FF0010C02E000BF4FF0010C0A
:100810004DF804CD4FEA410C7FEA6C5C4FEA430C83
:1008200018BF7FEA6C5C1BD001B050EA410C0CBFD2
:1008300052EA430C91EA030F02BF90EA020F002034
:10084000704710F1000F91EA030F58BF994208BF9B
:1008500090422CBFD8176FEAE37040F00100704758
:100860004FEA410C7FEA6C5C02D150EA013C07D1AF
:100870004FEA430C7FEA6C5CD6D152EA033CD3D0FA
:100880005DF8040B704700BF8446104662468C46F4
:100890001946634600E000BF01B5FFF7B7FF002827
:1008A00048BF10F1000F01BD4DF808EDFFF7F4FF50
:1008B0000CBF012000205DF808FB00BF4DF808EDDB
:1008C000FFF7EAFF34BF012000205DF808FB00BFFE
:1008D0004DF808EDFFF7E0FF94BF012000205DF820
:1008E00008FB00BF4DF808EDFFF7CEFF94BF0120D5
:1008F00000205DF808FB00BF4DF808EDFFF7C4FFCE
:1009000034BF012000205DF808FB00BF4FEA410220
:1009100012F5001215D211D56FF47873B3EB625251
:1009200012D94FEAC12343F0004343EA505311F078
:10093000004F23FA02F018BF404270474FF000000A
:10094000704750EA013005D111F0004008BF6FF048
:10095000004070474FF00000704700BF4A0011D2BE
:1009600012F5001211D20DD56FF47873B3EB625209
:100970000ED44FEAC12343F0004343EA505323FA15
:1009800002F070474FF00000704750EA013002D18A
:100990004FF0FF3070474FF0000070477BB972B9DD
:1009A0000029BEBF00204FF0004106E008BF00282C
:1009B0001CBF6FF000414FF0FF3000F0BBB9ADF14C
:1009C000080C6DE904CE002909DB002B1ADB00F0CE
:1009D0004DF8DDF804E0DDE9022304B07047404241
:1009E00061EB4101002B1BDB00F040F8DDF804E077
:1009F000DDE9022304B0404261EB4101524263EB66
:100A000043037047524263EB430300F02FF8DDF8D5
:100A100004E0DDE9022304B0404261EB410170478C
:100A2000524263EB430300F021F8DDF804E0DDE916
:100A3000022304B0524263EB4303704753B94AB9EF
:100A4000002908BF00281CBF4FF0FF314FF0FF30D6
:100A500000F070B9ADF1080C6DE904CE00F006F8B5
:100A6000DDF804E0DDE9022304B070472DE9F0472A
:100A7000089E0D4604460F46002B4AD18A429446F2
:100A800065D9B2FA82F343B102FA03FCC3F1200242
:100A90009F4020FA02F217439C404FEA1C4E1FFA77
:100AA0008CF5B7FBFEF1220C0EFB117742EA0742F0
:100AB00001FB05F090420AD91CEB020201F1FF375D
:100AC00080F01B81904240F2188102396244121A70
:100AD000A4B2B2FBFEF00EFB102244EA024400FB7B
:100AE00005F5A5420AD91CEB040400F1FF3280F0A1
:100AF0000681A54240F203816444023840EA014085
:100B0000641B00211EB1DC400023C6E90043BDE8A0
:100B1000F0878B4208D9002E00F0EC800021C6E956
:100B200000050846BDE8F087B3FA83F1002949D1F2
:100B3000AB4202D3824200F2F780841A65EB0302D3
:100B400001201746002EE2D0C6E90047DFE702B9D0
:100B5000FFDEB2FA82F3002B40F08F808A1A4FEA50
:100B60001C471FFA8CFE0121B2FBF7F507FB15208D
:100B7000220C42EA00420EFB05F0904208D91CEB21
:100B8000020205F1FF3802D2904200F2CA804546C7
:100B9000121AA4B2B2FBF7F007FB102244EA024497
:100BA0000EFB00FEA64508D91CEB040400F1FF3241
:100BB00002D2A64500F2BA801046A4EB0E0440EA29
:100BC00005409FE7C1F120078B4022FA07FC4CEA61
:100BD000030C05FA01F420FA07F3FD40234300FA61
:100BE00001F94FEA1C401FFA8CFEB5FBF0F81C0C13
:100BF00000FB185544EA054408FB0EF5A54202FA2D
:100C000001F20BD91CEB040408F1FF3A80F0878055
:100C1000A54240F28480A8F102086444641B9DB29E
:100C2000B4FBF0F300FB134445EA044403FB0EFE5F
:100C3000A64508D91CEB040403F1FF306BD2A6458E
:100C400069D9023B644443EA0840A0FB0283A4EB59
:100C50000E049C42C6461D4655D352D056B1B9EB40
:100C60000E0364EB050404FA07F7CB40CC401F43A6
:100C7000C6E900740021BDE8F087C3F1200102FA43
:100C800003FC20FA01F225FA01F19D402A434FEAC4
:100C90001C471FFA8CFEB1FBF7F007FB1015110C77
:100CA00041EA054100FB0EF58D4204FA03F408D930
:100CB0001CEB010100F1FF382FD28D422DD90238F3
:100CC0006144491B92B2B1FBF7F507FB151142EAEB
:100CD000014205FB0EF1914208D91CEB020205F11D
:100CE000FF3816D2914214D9023D6244521A45EAA5
:100CF000004139E73146304609E73946E7E6104614
:100D0000FCE6C145AAD2B8EB020E63EB0C05013834
:100D1000A4E74546EAE7034695E74046D1E7D046D3
:100D20007CE7023D624433E708460BE7644402383F
:100D300043E700BF704700BF80B500AF4FF0FF3101
:100D400000200CF053F80346184680BD80B582B0F1
:100D500000AF7860796803482AF03EF800BF083792
:100D6000BD4680BD90BE020880B582B000AF0BF0DA
:100D700027FDC7E90001D7E900014FF47A724FF06F
:100D80000003FFF75BFE02460B4613461846083782
:100D9000BD4680BD80B58AB002AF786039607B689F
:100DA000FB6107F10C0318460BF0F8FF3B681A686B
:100DB0003B689B8807F10C010093134640F2D24236
:100DC000F8690BF0AFFC0346002B04D004482AF06E
:100DD00069F8002300E0012318462037BD4680BD96
:100DE00094BE020880B584B000AFF860B9607A6044
:100DF000FB68002B07D1BB68DB881946094829F03E
:100E0000EBFF002309E0FB68DB881946064829F060
:100E1000E3FFF86809F074F8002318461037BD4660
:100E200080BD00BFC0BE020810BF0208B0B58CB0C4
:100E300004AFF860C7E900230B46FB7208F080FAA4
:100E4000124BFB61F869FFF7EBF9B861BB690293DC
:100E5000FB6901930E4B00930E4B0F4A0F49022082
:100E600006F0ACFF0346FB75D7E9002341F2883159
:100E7000541843F10005F97A22462B46F8680BF026
:100E800095FD00BF2037BD46B0BD00BF28BF02089A
:100E9000E50D0008741503083C03002034BF020868
:100EA00080B590B000AFF860B9603B601346FB803E
:100EB000B96C194829F090FF07F114032C22002186
:100EC00018462AF019F93B687B61BB6C9BB23B83E7
:100ED00007F11C0300221A605A609A60DA601A61F6
:100EE0005A6102233B77E02387F82030012387F8FB
:100EF0002230BB2387F8233041F233633B8607F16E
:100F0000140207F10C031146184607F087F900BFD9
:100F10004037BD4680BD00BF48BF0208B0B58EB0A7
:100F200002AF374B07F114041D460FCD0FC42B68D9
:100F300023607B6A009307F114030FCB0AF08CFB4C
:100F4000304829F0AFFF304B1A460023136053603E
:100F50009360D36013612C4B41F233621A802A4BA9
:100F60002A4A9A6028480BF0BDFB034687F82F30C9
:100F700097F82F30002B0CD1234B1B88194624489F
:100F800029F02AFF0AF04EFCB862BB6A002B18D188
:100F900006E097F82F3019461E4829F01DFF2CE077
:100FA0001D491E4829F086FF1C4807F025F91C49F9
:100FB0001A4829F07FFF194807F01EF912480BF074
:100FC000A1FBBB6A104A1A60BB6A164A5A60BB6A28
:100FD00001221A72002114480BF058FC0346134AF0
:100FE0001360124B1B68B3F1FF3F03D1104829F087
:100FF00059FF02E00F4829F055FF3037BD46B0BD1C
:10100000A4C002087CBF02083C030020A10E000817
:10101000A0BF0208D4BF020810C00208540B002071
:101020001CC00208950D00082D0E000800000020CD
:1010300048C0020870C00208B0B582B000AF0C48CA
:1010400029F030FF0BF0BCFBC7E90001094B186821
:10105000D7E9002312F5FA6443F1000522462B4636
:1010600000210BF0A3FC00BF0837BD46B0BD00BF98
:10107000B8C002080000002080B500AF044829F085
:1010800011FF044B1B6818460BF05EFE00BF80BDCD
:10109000DCC002080000002080B485B000AF78609A
:1010A0004FF0B043DA6C4FF0B0417B681343CB6430
:1010B0004FF0B043DA6C7B681340FB60FB6800BF05
:1010C0001437BD4680BC704780B483B000AF7860F1
:1010D00039607B683A689A6200BF0C37BD4680BCB5
:1010E0007047000080B586B000AF3B4600221A6012
:1010F0005A609A60DA601A615A610120FFF7CCFFEA
:101100000220FFF7C9FF0420FFF7C6FF8020FFF78A
:10111000C3FF4FF40A412F48FFF7D6FF49F6F0739B
:101120003B6003237B6000233B613B4619464FF045
:10113000904003F03CFB4FF40A433B6001237B608B
:101140000023BB600023FB6000233B613B46194644
:10115000204803F02CFB47F236533B6003237B60AF
:1011600000233B613B4619461A4803F020FB42F23C
:1011700007033B6003237B6000233B613B4619462A
:10118000154803F014FB03233B6000237B6001231D
:101190003B613B4619464FF0904003F008FB40236B
:1011A0003B6000237B6001233B613B4619460A48B4
:1011B00003F0FDFA08233B6003237B6000233B61BF
:1011C0003B461946054803F0F2FA00BF1837BD4602
:1011D00080BD00BF0004004800080048001C004813
:1011E00080B400AFBFF34F8F00BF064BDB6803F442
:1011F000E0620449044B1343CB60BFF34F8F00BF41
:1012000000BFFDE700ED00E00400FA0580B483B004
:1012100000AF7860064B1B6823F4C06204497B680A
:1012200013430B6000BF0C37BD4680BC704700BF46
:101230000004005880B400AF4FF0B0431B684FF07B
:10124000B04243F40013136000BFBD4680BC70473A
:1012500080B400AF4FF0B0431B684FF0B04243F48E
:101260008033136000BFBD4680BC704780B400AFC0
:101270004FF0B0431B6803F40033B3F5003F01D1D6
:10128000012300E000231846BD4680BC704780B4AF
:1012900083B000AF78604FF0B0439B6823F0030247
:1012A0004FF0B0417B6813438B6000BF0C37BD46E5
:1012B00080BC704780B400AF4FF0B0439B6803F030
:1012C0000C031846BD4680BC704780B483B000AFA5
:1012D00078604FF0B0439B6823F0F0024FF0B041CC
:1012E0007B6813438B6000BF0C37BD4680BC7047E2
:1012F00080B483B000AF78604FF0B043D3F80831CA
:1013000023F00F027B681B094FF0B0411343C1F873
:10131000083100BF0C37BD4680BC704780B483B035
:1013200000AF78604FF0B0439B6823F4E0624FF069
:10133000B0417B6813438B6000BF0C37BD4680BC57
:10134000704780B483B000AF78604FF0B0439B68C3
:1013500023F460524FF0B0417B6813438B6000BFB1
:101360000C37BD4680BC704780B400AF4FF0B0432F
:101370001B684FF0B04243F08073136000BFBD465E
:1013800080BC704780B400AF4FF0B0431B6803F0DF
:101390000073B3F1007F01D1012300E00023184660
:1013A000BD4680BC7047000080B485B000AFF860D7
:1013B000B9607A603B604FF0B043DA68094B134084
:1013C000F968BA6811437A68120211433A680A430D
:1013D0004FF0B0411343CB6000BF1437BD4680BC13
:1013E000704700BF8C80FF1F80B400AF4FF0B04348
:1013F000DB684FF0B04243F08053D36000BFBD467E
:1014000080BC704780B483B000AF7860064B1B6827
:1014100023F0070204497B6813430B6000BF0C37BD
:10142000BD4680BC704700BF0040005880B400AF8C
:10143000034B1B6803F007031846BD4680BC70478A
:101440000040005880B584B000AF03463960FB808F
:10145000FB8819460C4829F0BFFC0C4813F01AFC15
:101460000346FB73FB7B002B03D1094829F01AFDCF
:1014700004E0FB7B1946074829F0AEFCFFF7DCFDD2
:1014800000BF1037BD4680BD00C1020850030020D8
:1014900024C102083CC1020880B582B000AF0D48EB
:1014A00029F000FD0C4813F057FD0346FB71FB7952
:1014B000002B03D1094829F0F5FC04E0FB7919461B
:1014C000074829F089FCFFF7D7FD00BF0837BD4664
:1014D00080BD00BF6CC102085003002088C1020813
:1014E000A0C1020880B584B000AF0346B9607A603D
:1014F000FB81FB891946054829F06EFC7968044890
:1015000029F06AFC00BF1037BD4680BDD0C102087B
:101510000CC2020880B582B000AF0346FB80FB8896
:101520001946034829F058FC00BF0837BD4680BD66
:1015300028C2020880B500AF024829F0B3FC00BF02
:1015400080BD00BF58C20208B0B592B000AF00F035
:1015500075FD00F08BF8FFF7C5FD00F0A7FC3648DD
:1015600029F0A0FC354B07F134041D460FCD0FC404
:101570002B68236007F1340318460AF06FFF034617
:10158000002B03D12E4829F08DFC02E02D4829F0D4
:1015900089FC00237B6207F1280300221A605A604D
:1015A0009A6007F124030C222749184629F043FECC
:1015B00007F1240200234FF2B101244813F032FA5C
:1015C0000346002B03D1224829F06CFC02E021489D
:1015D00029F068FC0BF0F6FB4FF000024FF000031F
:1015E0000A00002314460BF0EDFB02460B4613469F
:1015F0001A462146184829F0EFFBFFF78FFC01221D
:101600001649124813F0D8FC012215490F4813F06F
:10161000D3FC144B3C1D1D460FCD0FC495E80F00A5
:1016200084E80F00104829F03DFC3B1D18460BF0E4
:101630001FF80BF099F8FCE780C20208E4C3020827
:1016400014C3020830C302089075FF1F5003002026
:1016500054C3020870C3020894C30208B8C3020846
:10166000C0C30208F8C30208C8C3020880B500AFAF
:101670000220FFF7C7FE00BFFFF7D8FE0346022B8C
:10168000FAD14FF40070FFF7C1FDFFF7D3FDFFF76C
:10169000DFFD00BFFFF7EAFD0346012BFAD14FF053
:1016A000C0430C2210210320FFF77EFEFFF79CFEB3
:1016B000FFF75AFE00BFFFF765FE0346012BFAD184
:1016C0000320FFF7E4FD00BFFFF7F4FD03460C2BFA
:1016D000FAD10020FFF7F9FD0020FFF709FE0020F6
:1016E000FFF71CFE0020FFF72CFE064804F004F96B
:1016F0000F2000F0C3FC0346002B01D000F023F8BC
:1017000000BF80BD006CDC0280B584B000AFF86023
:10171000B9607A607B68BA68F968024829F05CFBB6
:10172000FEE700BF18C4020880B584B000AFF860BF
:10173000B9607A607968B86800F0BEFB7B681846CB
:101740001037BD4680BD80B500AF72B600BFFFF751
:1017500047FD80B485B000AFF860B9607A60FB687F
:10176000002B16D0BB68002B13D07B68002B10D049
:10177000FB68BA681A60FB687A685A60FB680022E6
:101780009A60FB68BA68DA60FB68BA681A6101237C
:1017900000E0002318461437BD4680BC704780B473
:1017A00083B000AF78607B68002B02D07B689B68B9
:1017B00000E0002318460C37BD4680BC704780B45B
:1017C00083B000AF78600B46FB707B68002B22D0A3
:1017D0007B689A687B685B689A421CD27B68DB688E
:1017E000FA781A707B689B685A1C7B689A607B68E1
:1017F000DB685A1C7B68DA607B68DA687B6819688A
:101800007B685B680B449A4203D37B681A687B68E9
:10181000DA60012300E0002318460C37BD4680BC87
:10182000704780B483B000AF786039607B68002B6C
:1018300024D03B68002B21D07B689B68002B1DD0F7
:101840007B681B691A783B681A707B689B685A1E14
:101850007B689A607B681B695A1C7B681A617B688D
:101860001A697B6819687B685B680B449A4203D3EA
:101870007B681A687B681A61012300E00023184620
:101880000C37BD4680BC704780B400AF00BFBD467A
:1018900080BC704780B500AF4B2202490248FFF779
:1018A00033FF00BF34C402088C15030880B500AFB5
:1018B000552202490248FFF727FF00BF34C402083F
:1018C0009815030880B500AF642202490248FFF76B
:1018D0001BFF00BF34C40208AC15030880B500AF7D
:1018E000732202490248FFF70FFF00BF34C4020809
:1018F000C015030880B500AF822202490248FFF7F5
:1019000003FF00BF34C40208D415030880B400AF3D
:1019100000BFBD4680BC704780B400AF00BFBD466D
:1019200080BC704780B400AF00BFBD4680BC70472C
:1019300080B400AF00BFBD4680BC704780B400AF2C
:1019400000BFBD4680BC704780B400AF044BDB686D
:101950001B0A03F007031846BD4680BC704700BF52
:1019600000ED00E080B483B000AF0346FB7197F94F
:101970000730002B0BDBFB7903F01F02064997F9B8
:1019800007305B09012000FA02F241F8232000BF72
:101990000C37BD4680BC704700E100E080B483B0E6
:1019A00000AF03463960FB7197F90730002B0ADB63
:1019B0003B68DAB20C4997F907301201D2B20B44F6
:1019C00083F800230AE03B68DAB20849FB7903F0A8
:1019D0000F03043B1201D2B20B441A7600BF0C373E
:1019E000BD4680BC704700BF00E100E000ED00E0B4
:1019F00080B489B000AFF860B9607A60FB6803F02A
:101A00000703FB61FB69C3F10703042B28BF042311
:101A1000BB61FB690433062B02D9FB69033B00E081
:101A200000237B614FF0FF32BB6902FA03F3DA4314
:101A3000BB681A407B699A404FF0FF317B6901FA1D
:101A400003F3D9437B680B40134318462437BD4644
:101A500080BC704780B483B000AF78604FF0B04373
:101A6000D3F8883023F440624FF0B0417B681343D1
:101A7000C1F8883000BF0C37BD4680BC704780B4C9
:101A800085B000AF78604FF0B043DA6C4FF0B041F2
:101A90007B681343CB644FF0B043DA6C7B68134030
:101AA000FB60FB6800BF1437BD4680BC704780B444
:101AB00085B000AF78604FF0B043DA6D4FF0B041C1
:101AC0007B681343CB654FF0B043DA6D7B681340FE
:101AD000FB60FB6800BF1437BD4680BC704780B414
:101AE00083B000AF78607B681B6843F001027B68BD
:101AF0001A6000BF0C37BD4680BC704780B489B007
:101B000000AF786039607B680833FB60FB6853E89E
:101B1000003FBB60BB6823F060423B685B07134338
:101B2000FB617B680833FA69BA617B617969BA69DC
:101B300041E800233B613B69002BE4D100BF00BFBB
:101B40002437BD4680BC704780B489B000AF786050
:101B500039607B680833FB60FB6853E8003FBB607B
:101B6000BB6823F060623B685B061343FB617B68E4
:101B70000833FA69BA617B617969BA6941E800237F
:101B80003B613B69002BE4D100BF00BF2437BD4659
:101B900080BC704780B483B000AF78607B689B687E
:101BA00023F480527B689A6000BF0C37BD4680BC2E
:101BB000704780B483B000AF78607B68DB6903F066
:101BC0000103012B01D1012300E0002318460C374B
:101BD000BD4680BC704780B483B000AF78607B683E
:101BE000DB6903F00203022B01D1012300E0002393
:101BF00018460C37BD4680BC704780B483B000AF38
:101C000078607B68DB6903F00403042B01D10123B6
:101C100000E0002318460C37BD4680BC704780B4F6
:101C200083B000AF78607B68DB6903F00803082BA2
:101C300001D1012300E0002318460C37BD4680BCCB
:101C4000704780B483B000AF78607B68DB6903F0D5
:101C50008003802B01D1012300E0002318460C37BC
:101C6000BD4680BC704780B483B000AF78607B68AD
:101C7000DB6903F40013B3F5001F01D1012300E079
:101C8000002318460C37BD4680BC704780B483B033
:101C900000AF78607B6801221A6200BF0C37BD4636
:101CA00080BC704780B483B000AF78607B6802224C
:101CB0001A6200BF0C37BD4680BC704780B483B049
:101CC00000AF78607B6804221A6200BF0C37BD4603
:101CD00080BC704780B483B000AF78607B68082216
:101CE0001A6200BF0C37BD4680BC704780B489B013
:101CF00000AF78607B68FB60FB6853E8003FBB6027
:101D0000BB6843F08003FB617B68FA69BA617B6161
:101D10007969BA6941E800233B613B69002BE9D14D
:101D200000BF00BF2437BD4680BC704780B489B077
:101D300000AF78607B68FB60FB6853E8003FBB60E6
:101D4000BB6823F08003FB617B68FA69BA617B6141
:101D50007969BA6941E800233B613B69002BE9D10D
:101D600000BF00BF2437BD4680BC704780B483B03D
:101D700000AF78607B689B6843F400527B689A6090
:101D800000BF0C37BD4680BC704780B483B000AF45
:101D900078600B46FB70FA787B689A6200BF0C375C
:101DA000BD4680BC7047000080B58EB000AF4FF4D8
:101DB00080623A493A48FFF7CCFC07F11C03002245
:101DC0001A605A609A60DA601A615A619A613B1D22
:101DD00000221A605A609A60DA601A615A61002023
:101DE000FFF738FE0120FFF762FE0120FFF747FEF4
:101DF0000C237B600223BB600023FB6000233B615C
:101E000000237B610823BB613B1D19464FF09040C6
:101E100002F0CDFC0023FB614FF4E1333B62002371
:101E20007B620023BB620023FB6208233B63002329
:101E30007B6307F11C0319461A4802F0C1FD052116
:101E40001848FFF75BFE05211648FFF77DFE154891
:101E5000FFF7A0FE1348FFF789FF1248FFF73FFE88
:101E600000BF1048FFF7FFFE0346002BF9D0FFF735
:101E70006BFD0346002204211846FFF7B9FD034617
:101E800019462620FFF78AFD2620FFF76BFD064B3B
:101E9000044A1A6000BF3837BD4680BD9C0400204C
:101EA00088040020008000409C08002080B500AF1E
:101EB000FFF77AFF00BF80BD80B586B000AF7860C5
:101EC00039607B68002B26D03B68002B23D0002391
:101ED0007B611CE0EFF31083BB60BB683B6172B6B3
:101EE00000BF7A687B6913441B7819460C48FFF7DA
:101EF00066FC3B69FB60FB6883F3108800BF094BFD
:101F00001B681846FFF7F2FE7B6901337B617A6933
:101F10003B689A42DED300BF1837BD4680BD00BF84
:101F2000880400209C08002080B582B000AF2C4BB4
:101F30001B681846FFF785FE0346002B15D0FB1DD6
:101F400019462848FFF76DFC0346002B07D0244BA9
:101F50001B68FA7911461846FFF717FF3CE0204B43
:101F60001B681846FFF7E2FE36E01D4B1B6818465B
:101F7000FFF71FFE0346002B05D0194B1B681846C0
:101F8000FFF784FE28E0164B1B681846FFF723FE78
:101F90000346002B05D0124B1B681846FFF782FE44
:101FA0001AE00F4B1B681846FFF727FE0346002B6D
:101FB00005D00B4B1B681846FFF780FE0CE0084B62
:101FC0001B681846FFF72BFE0346002B04D0044B7A
:101FD0001B681846FFF77EFE00BF0837BD4680BD70
:101FE0009C080020880400200D488546FFF7A6FCC9
:101FF0000C480D490D4A002302E0D458C450043364
:10200000C4188C42F9D30A4A0A4C002301E0136039
:102010000432A242FBD329F0DFF8FFF795FAFEE77E
:1020200000000120000000201C030020081B030802
:1020300020030020E0400020FEE7000080B582B0D1
:1020400000AF0023FB71032000F04CF901F010FEFB
:102050000346094A13600F2000F010F80346002BD6
:1020600002D00123FB7101E0FFF70EFCFB7918465B
:102070000837BD4680BD00BF0400002080B584B095
:1020800000AF78600023FB73174B1B78002B24D024
:1020900001F0EEFD0246144B1B7819464FF47A739B
:1020A000B3FBF1F3B2FBF3F3184600F05CF903461F
:1020B000002B0FD17B680F2B09D8002279684FF0D5
:1020C000FF3000F01AF9094A7B68136007E001232A
:1020D000FB7304E00123FB7301E00123FB73FB7B33
:1020E00018461037BD4680BD0C00002008000020B7
:1020F00080B400AF024B1B681846BD4680BC7047D9
:10210000A008002080B485B000AF78607B6803F041
:102110000703FB600C4BDB68BB60BA684FF6FF033C
:102120001340BB60FB681A02BB68134343F0BF63F4
:1021300043F40033BB60044ABB68D36000BF14376C
:10214000BD4680BC704700BF00ED00E080B400AF2A
:10215000044BDB681B0A03F007031846BD4680BC2E
:10216000704700BF00ED00E080B483B000AF0346CD
:10217000FB7197F90730002B0BDBFB7903F01F0293
:10218000064997F907305B09012000FA02F241F88D
:10219000232000BF0C37BD4680BC704700E100E043
:1021A00080B483B000AF0346FB7197F90730002B72
:1021B00012DBFB7903F01F020A4997F907305B092C
:1021C000012000FA02F2203341F82320BFF34F8FA1
:1021D00000BFBFF36F8F00BF00BF0C37BD4680BC90
:1021E000704700BF00E100E080B483B000AF034659
:1021F0003960FB7197F90730002B0ADB3B68DAB2D4
:102200000C4997F907301201D2B20B4483F800232E
:102210000AE03B68DAB20849FB7903F00F03043B9C
:102220001201D2B20B441A7600BF0C37BD4680BCF7
:10223000704700BF00E100E000ED00E080B489B02D
:1022400000AFF860B9607A60FB6803F00703FB61D8
:10225000FB69C3F10703042B28BF0423BB61FB699F
:102260000433062B02D9FB69033B00E000237B61AA
:102270004FF0FF32BB6902FA03F3DA43BB681A403E
:102280007B699A404FF0FF317B6901FA03F3D94330
:102290007B680B40134318462437BD4680BC70470B
:1022A00080B582B000AF78607B68013BB3F1807F7E
:1022B00001D301230FE00A4A7B68013B53600F21E1
:1022C0004FF0FF30FFF790FF054B00229A60044B60
:1022D00007221A60002318460837BD4680BD00BF9C
:1022E00010E000E080B582B000AF78607868FFF75A
:1022F00009FF00BF0837BD4680BD80B586B000AF7E
:102300000346B9607A60FB73FFF720FF78617A6853
:10231000B9687869FFF792FF024697F90F301146C6
:102320001846FFF761FF00BF1837BD4680BD80B576
:1023300082B000AF0346FB7197F907301846FFF7EC
:1023400013FF00BF0837BD4680BD80B582B000AF27
:102350000346FB7197F907301846FFF721FF00BFCE
:102360000837BD4680BD80B582B000AF7860786820
:10237000FFF796FF034618460837BD4680BD80B577
:1023800082B000AF78607B68002B01D101232DE083
:102390007B6893F85130DBB2002B06D17B680022BA
:1023A00083F85020786803F09FFB7B681B681B68EC
:1023B00023F4A02323F066037A6851687A68926850
:1023C00011437A68526911437A6812680B431360AB
:1023D0007B6800225A657B6800229A657B6801222F
:1023E00083F851207B6801225A640023184608377D
:1023F000BD4680BD80B582B000AF78607B68002BA1
:1024000001D1012320E07B6801225A647B6800220D
:10241000DA877B680022A3F840207B6800229A8735
:102420007B681B681A687B681B6822F001021A60CF
:10243000786803F075FB7B68002283F851207B6885
:10244000002283F85020002318460837BD4680BD7F
:1024500080B586B000AFF860B9603B601346FB8082
:10246000FB6893F85130DBB2012B7CD1FB68022270
:1024700083F85120FB6893F85030012B01D10223DF
:102480007AE0FB68012283F85020FB680022DA879B
:10249000FB680022A3F84020FB68BA685A63FB6817
:1024A0003A689A63FB685B6A002B06D1FB889B0045
:1024B0009AB2FB68A3F8422003E0FB68FA88A3F80D
:1024C0004220FB681B681A68FB681B6822F0180230
:1024D0001A60FB681B681A68294B13403B613B6913
:1024E000B3F5803F23D03B69B3F5803F26D83B69E5
:1024F000602B15D03B69602B20D83B69402B08D05E
:102500003B69402B1AD83B69002B02D03B69202B3A
:1025100014D1396AF86800F0DAF80346FB7516E062
:10252000396AF86800F0C1FB0346FB750FE0396AB1
:10253000F86800F062FD0346FB7508E0FB685B6D20
:1025400043F02002FB685A650123FB7500BFFB7D49
:10255000002B10D1FB68012283F85120FB68002278
:1025600083F8502007E0FB685B6D43F00802FB68CE
:102570005A650123FB75FB7D18461837BD4680BDA3
:102580006000010080B586B000AFF860B9603B60C4
:102590001346FB80FB6893F85130DBB2012B7ED1F0
:1025A000FB68022283F85120FB6893F85030012B1E
:1025B00001D102237CE0FB68012283F85020FB68F4
:1025C0000022DA87FB680022A3F84020FB68BA6883
:1025D0005A63FB683A689A63FB685B6A002B06D112
:1025E000FB889B009AB2FB68A3F8422003E0FB68DB
:1025F000FA88A3F84220FB681B681B6823F01802C6
:10260000FB681B6842F010021A60FB681B681A68BE
:10261000294B13403B613B69B3F5803F23D03B69B5
:10262000B3F5803F26D83B69602B15D03B69602B02
:1026300020D83B69402B08D03B69402B1AD83B6916
:10264000002B02D03B69202B14D1396AF86800F0C6
:10265000C6F80346FB7516E0396AF86800F025FBFA
:102660000346FB750FE0396AF86800F0C6FC0346C4
:10267000FB7508E0FB685B6D43F02002FB685A6560
:102680000123FB7500BFFB7D002B10D1FB680122ED
:1026900083F85120FB68002283F8502007E0FB6894
:1026A0005B6D43F00802FB685A650123FB75FB7DF7
:1026B00018461837BD4680BD6000010080B483B065
:1026C00000AF786000BF0C37BD4680BC704780B556
:1026D00084B000AF786039600123BB607B68DB6A3F
:1026E000012B03D07B68DB6A042B09D17B689B6DCF
:1026F000012B02D10023BB6002E07B6801229A65B6
:10270000BB68012B22D17B689B681946786800F072
:102710006CFA7B685B69002B22D07B681A697B6846
:102720001B681268DA627B681A697B681B685268EA
:102730009A627B681A697B681B6892685A627B6838
:102740001A697B681B68D2681A6209E07B68DB6AD9
:10275000042B05D17B689B681946786800F045FA20
:102760007B6802225A647B681B681A687B681B6856
:1027700042F001021A607B68DB8FFB817B68B3F853
:102780004030BB810AE03968786800F076F97B68F0
:10279000DB8FFB817B68B3F84030BB817B68B3F88B
:1027A00042309B089BB2FA899A4207D27B68B3F801
:1027B00042309B089BB2BA899A42E4D37B681B687B
:1027C0001A687B681B6822F001021A607B6801228C
:1027D00083F85120002318461037BD4680BD80B5D0
:1027E00084B000AF786039600123BB607B68DB6A2E
:1027F000012B03D07B68DB6A042B09D17B689B6DBE
:10280000012B02D10023BB6002E07B6801229A65A4
:10281000BB68012B40F086807B685B69402B5DD0F4
:102820007B6893F83030002B49D17B681B681B68AC
:1028300023F018027B681B6842F008021A607B686C
:102840009B681946786800F0D0F97B681B681A68A5
:102850007B681B6842F001021A603968786800F0F2
:102860004FFF0346002B17D07B681B681A687B68F4
:102870001B6822F001021A607B685B6D43F0100256
:102880007B685A657B68012283F851207B680022AF
:1028900083F850200123ECE07B681B681A687B6892
:1028A0001B6842F080021A607B681B681B6823F07B
:1028B00018027B681B6842F010021A6014E07B6803
:1028C0009B681946786800F090F97B681B681A6865
:1028D0007B681B6842F018021A6005E07B689B6801
:1028E0001946786800F081F97B685B69002B00F07D
:1028F00085807B681A697B681B681268DA627B686E
:102900001A697B681B6852689A627B681A697B68DF
:102910001B6892685A627B681A697B681B68D26878
:102920001A626BE07B68DB6A042B67D17B685B69AA
:10293000402B5DD07B6893F83030002B49D17B6809
:102940001B681B6823F018027B681B6842F00802B2
:102950001A607B689B681946786800F046F97B68C6
:102960001B681A687B681B6842F001021A603968AC
:10297000786800F0C5FE0346002B17D07B681B6803
:102980001A687B681B6822F001021A607B685B6D25
:1029900043F010027B685A657B68012283F851205E
:1029A0007B68002283F85020012362E07B681B686B
:1029B0001A687B681B6842F080021A607B681B689B
:1029C0001B6823F018027B681B6842F010021A6033
:1029D00014E07B689B681946786800F006F97B680C
:1029E0001B681A687B681B6842F018021A6005E0D1
:1029F0007B689B681946786800F0F7F87B680222CC
:102A00005A647B681B681A687B681B6842F0010285
:102A10001A607B68DB8FFB817B68B3F84030BB8139
:102A20000AE03968786800F028F87B68DB8FFB8162
:102A30007B68B3F84030BB817B68B3F842309B08B9
:102A40009BB2FA899A4207D27B68B3F842309B085E
:102A50009BB2BA899A42E4D37B681B681A687B6888
:102A60001B6822F001021A607B68012283F8512062
:102A7000002318461037BD4680BD80B588B000AF32
:102A8000786039607B685A6B7B68DB8F9BB29B00F8
:102A90001A447B681B6812689A607B68DB8F9BB264
:102AA00001339AB27B68DA877B685A6B7B68DB8F6D
:102AB0009BB29B001A447B681B6812689A607B6813
:102AC000DB8F9BB201339AB27B68DA877B685A6BE3
:102AD0007B68DB8F9BB29B001A447B681B68126883
:102AE0009A607B68DB8F9BB201339AB27B68DA878E
:102AF0007B685A6B7B68DB8F9BB29B001A447B68B8
:102B00001B6812689A607B68DB8F9BB201339AB2B4
:102B10007B68DA873968786800F0F2FD0346002B9D
:102B200018D07B681B681A687B681B6822F001025A
:102B30001A607B685B6D43F010027B685A657B68A6
:102B4000012283F851207B68002283F850207868A6
:102B5000FFF7B4FD7B681B681A687B681B6842F04E
:102B600080021A600023FB610BE07B681B68DA6857
:102B7000FB699B0020333B4443F8142CFB69013371
:102B8000FB61FB69032BF0D90023FB611AE07B6832
:102B90009A6B7B68B3F840309BB29B001A44FB6988
:102BA0009B0020333B4453F8143C13607B68B3F81C
:102BB00040309BB201339AB27B68A3F84020FB6996
:102BC0000133FB617B68B3F840309BB21A467B68E7
:102BD000B3F8423003339B089A4202D2FB69032BBD
:102BE000D5D900BF2037BD4680BD80B483B000AFCB
:102BF000786039607B68DB68002B51D03B68002B24
:102C000034D03B68B3F5802F49D17B68DA687B68A4
:102C10001B681268DA637B68DA687B681B68526835
:102C20009A637B68DA687B681B6892685A637B6882
:102C3000DA687B681B68D2681A637B68DA687B682D
:102C40001B681269DA617B68DA687B681B68526905
:102C50009A617B68DA687B681B6892695A617B6855
:102C6000DA687B681B68D2691A6119E07B68DA68E8
:102C70007B681B681268DA617B68DA687B681B68AE
:102C800052689A617B68DA687B681B6892685A614F
:102C90007B68DA687B681B68D2681A6100E000BF55
:102CA00000BF0C37BD4680BC704780B58EB000AF0A
:102CB000786039607B68B3F842309B089BB27B63D5
:102CC00001233B627B68DB6A012B18D17B689B6D1B
:102CD000012B0AD100233B627B68DB6D7A68B2F876
:102CE00042201A447B68DA650FE07B6801229A650E
:102CF0007B68B3F842301A467B68DA6505E07B688A
:102D0000B3F842301A467B68DA653B6A012B6DD115
:102D10007B6800229A877B681B681A687B681B683F
:102D200022F4C0421A607B689B6819467868FFF7F6
:102D30005CFF7B681A697B681B681268DA627B68D3
:102D40001A697B681B6852689A627B681A697B689B
:102D50001B6892685A627B681A697B681B68D26834
:102D60001A627B681B681A687B681B6842F0010264
:102D70001A603968786800F0C3FC0346002B0FD056
:102D80007B685B6D43F010027B685A657B680122AB
:102D900083F851207B68002283F85020012328E12A
:102DA0007B681B681A687B681B6842F080021A60A7
:102DB0003968786800F0CEFA0346002B01D0012371
:102DC00017E17B6802225A647B681B681B6823F446
:102DD000C0427B681B6842F480421A607B681B68B3
:102DE0001A687B681B6822F470021A607B68B3F86B
:102DF000423003F00F039BB2002B03D07B6B23F018
:102E000003037B63FFF774F9F8617B68DB8F9BB288
:102E1000BB627B68B3F840309BB27B6233E03968B9
:102E20007868FFF72AFE3B68B3F1FF3F22D0FFF737
:102E30005FF90246FB69D31A3A689A4202D33B68AB
:102E4000002B17D17B681B681A687B681B6822F00F
:102E500001021A607B685B6D43F010027B685A6563
:102E60007B68012283F851207B68002283F8502080
:102E70000123BEE07B68DB8F9BB2BB627B68B3F84B
:102E800040309BB27B62BA6A7B6B9A4203D27A6A09
:102E90007B6B9A42C3D37B68B3F8423003F00F03D5
:102EA0009BB2002B00F0A4807B68B3F842301B0972
:102EB0009BB201331B017A68B2F842209B1ABB61B6
:102EC0007B681B681B6803F01803002B0AD17B6822
:102ED0001B681B6823F47001BB691A057B681B68BB
:102EE0000A431A60BB6903F00303002B05D1BB69D9
:102EF000C3F110039B08FB6205E0BB69C3F110033B
:102F00009B080133FB6200233B6314E07B685A6B30
:102F10007B68DB8F9BB29B001A447B681B6812683E
:102F20009A607B68DB8F9BB201339AB27B68DA8749
:102F30003B6B01333B633A6BFB6A9A42E6D306E094
:102F40007B681B6800229A603B6B01333B633B6BE1
:102F5000032BF5D93968786800F0D2FB0346002BC3
:102F60000AD07B68012283F851207B68002283F815
:102F700050207868FFF7A2FB7B681B681A687B68A3
:102F80001B6842F080021A6000233B630BE07B6801
:102F90001B68DA683B6B9B0038333B4443F8302CAA
:102FA0003B6B01333B633B6B032BF0D900233B634B
:102FB0001AE07B689A6B7B68B3F840309BB29B0049
:102FC0001A443B6B9B0038333B4453F8303C13604E
:102FD0007B68B3F840309BB201339AB27B68A3F8A8
:102FE00040203B6B01333B633A6BFB6A9A42E0D370
:102FF000002318463837BD4680BD80B58EB000AF7F
:10300000786039607B68B3F842309B089BB27B6381
:1030100001233B627B68DB6A012B18D17B689B6DC7
:10302000012B0AD100233B627B68DB6D7A68B2F822
:1030300042201A447B68DA650FE07B6801229A65BA
:103040007B68B3F842301A467B68DA6505E07B6836
:10305000B3F842301A467B68DA653B6A012B6DD1C2
:103060007B6800229A877B681B681A687B681B68EC
:1030700022F4C0421A607B689B6819467868FFF7A3
:10308000B4FD7B681A6A7B681B681268DA627B6829
:103090001A6A7B681B6852689A627B681A6A7B6846
:1030A0001B6892685A627B681A6A7B681B68D268E0
:1030B0001A627B681B681A687B681B6842F0010211
:1030C0001A603968786800F01BFB0346002B0FD0AC
:1030D0007B685B6D43F010027B685A657B68012258
:1030E00083F851207B68002283F8502001232DE1D2
:1030F0007B681B681A687B681B6842F080021A6054
:103100003968786800F026F90346002B01D00123C6
:103110001CE17B6802225A647B681B681B6823F4ED
:10312000C0427B681B6842F480421A607B681B685F
:103130001A687B681B6822F470021A607B68B3F817
:10314000423003F00F039BB2002B03D07B6B23F0C4
:1031500003037B63FEF7CCFFF8617B68DB8F9BB2D8
:10316000BB627B68B3F840309BB27B6233E0396866
:103170007868FFF782FC3B68B3F1FF3F22D0FEF78F
:10318000B7FF0246FB69D31A3A689A4202D33B68FA
:10319000002B17D17B681B681A687B681B6822F0BC
:1031A00001021A607B685B6D43F010027B685A6510
:1031B0007B68012283F851207B68002283F850202D
:1031C0000123C3E07B68DB8F9BB2BB627B68B3F8F3
:1031D00040309BB27B62BA6A7B6B9A4203D27A6AB6
:1031E0007B6B9A42C3D37B68B3F8423003F00F0382
:1031F0009BB2002B00F0A9807B68B3F842301B091A
:103200009BB201331B017A68B2F842209B1ABB6162
:103210007B681B681B6803F01803102B0AD17B68BE
:103220001B681B6823F47001BB691A057B681B6867
:103230000A431A60BB6903F00303002B05D1BB6985
:10324000C3F110039B08FB6205E0BB69C3F11003E7
:103250009B080133FB6200233B6314E07B685A6BDD
:103260007B68DB8F9BB29B001A447B681B681268EB
:103270009A607B68DB8F9BB201339AB27B68DA87F6
:103280003B6B01333B633A6BFB6A9A42E6D306E041
:103290007B681B6800229A603B6B01333B633B6B8E
:1032A000032BF5D93968786800F02AFA0346002B19
:1032B0000FD07B685B6D43F010027B685A657B68BA
:1032C000012283F851207B68002283F850200123DB
:1032D0003CE07B681B681A687B681B6842F08002D0
:1032E0001A6000233B630BE07B681B68DA683B6B6A
:1032F0009B0038333B4443F8302C3B6B01333B633A
:103300003B6B032BF0D900233B631AE07B689A6B7D
:103310007B68B3F840309BB29B001A443B6B9B0028
:1033200038333B4453F8303C13607B68B3F840308B
:103330009BB201339AB27B68A3F840203B6B013308
:103340003B633A6BFB6A9A42E0D300231846383756
:10335000BD4680BDB0B592B000AF786039608C4B8F
:1033600007F10C041D460FCD0FC40FCD0FC495E817
:103370000F0084E80F007B689B6A002B04D17B68F8
:10338000DB699B003B6402E07B68DB693B643B6C70
:10339000002B00F092817B681B681B6823F4C042FD
:1033A0007B681B6842F400521A607B681B681A68CD
:1033B0007B681B6842F001021A603B6C03F00F034C
:1033C000002B7AD100237B6471E07B689A697B686B
:1033D0009B8F9BB29B001A447B681B6812689A60A3
:1033E0007B689B8F9BB201339AB27B689A877B681C
:1033F0009A697B689B8F9BB29B001A447B681B6811
:1034000012689A607B689B8F9BB201339AB27B688B
:103410009A877B689A697B689B8F9BB29B001A4452
:103420007B681B6812689A607B689B8F9BB2013334
:103430009AB27B689A877B689A697B689B8F9BB2FC
:103440009B001A447B681B6812689A607B689B8F9C
:103450009BB201339AB27B689A873968786800F02A
:103460004FF90346002B17D07B681B681A687B68EE
:103470001B6822F001021A607B685B6D43F010024A
:103480007B685A657B68012283F851207B680022A3
:1034900083F8502001232EE17B681B681A687B6843
:1034A0001B6842F080021A607B6C04337B643B6CC7
:1034B0009B087A6C9A4288D31CE100237B6474E0F9
:1034C0007B689A697B689B8F9BB29B001A447B68E0
:1034D0001B6812689A607B689B8F9BB201339AB21B
:1034E0007B689A877B689A697B689B8F9BB29B00FD
:1034F0001A447B681B6812689A607B689B8F9BB23A
:1035000001339AB27B689A877B689A697B689B8F44
:103510009BB29B001A447B681B6812689A607B68A8
:103520009B8F9BB201339AB27B689A877B689A69BA
:103530007B689B8F9BB29B001A447B681B68126858
:103540009A607B689B8F9BB201339AB27B689A87A3
:103550003968786800F0D4F80346002B1AD07B68ED
:103560001B681A687B681B6822F001021A607B687E
:103570005B6D43F010027B685A657B68012283F81B
:1035800051207B68002283F850200123B3E000BF64
:1035900050C402087B681B681A687B681B6842F08D
:1035A00080021A607B6C04337B643B6C1B099B00BC
:1035B0007A6C9A4284D300237B6414E07B689A6916
:1035C0007B689B8F9BB29B001A447B681B681268C8
:1035D0009A607B689B8F9BB201339AB27B689A8713
:1035E0007B6C01337B643B6C9B0803F003037A6CB8
:1035F0009A42E3D33B6C03F00303002B0BD106E0AC
:103600007B681B6800229A607B6C01337B647B6C57
:10361000032BF5D929E07B689A697B689B8F9BB265
:103620009B0013441B68FB637B685B685A003B6C20
:1036300003F0030313449B0048333B4453F83C3CE2
:10364000FA6B1340FB637B681B68FA6B9A607B6CB8
:1036500001337B6406E07B681B6800229A607B6C08
:1036600001337B647B6C032BF5D93968786800F0F3
:1036700047F80346002B17D07B681B681A687B68E5
:103680001B6822F001021A607B685B6D43F0100238
:103690007B685A657B68012283F851207B68002291
:1036A00083F85020012326E07B681B681A687B683A
:1036B0001B6842F080021A601CE07B681B681B6874
:1036C00023F006017B685A687B681B680A431A600E
:1036D0007B681B681B6823F4C0427B681B6842F44C
:1036E00000521A607B681B681A687B681B6842F08E
:1036F00001021A60002318464837BD46B0BD00BF1E
:1037000080B584B000AF78603960FEF7F1FCF860F6
:1037100010E03B68B3F1FF3F0CD0FEF7E9FC024636
:10372000FB68D31A3A689A4202D33B68002B01D156
:10373000012307E07B681B685B6803F00103002B33
:10374000E7D0002318461037BD4680BD80B487B04F
:1037500000AF7860396000237B6140E13B681A6804
:1037600001217B6901FA03F31340FB60FB68002B26
:1037700000F032813B685B6803F00303012B05D046
:103780003B685B6803F00303022B30D17B689B68C6
:103790003B617B695B00032202FA03F3DB433A6976
:1037A00013403B613B68DA687B695B0002FA03F314
:1037B0003A6913433B617B683A699A607B685B684E
:1037C0003B6101227B6902FA03F3DB433A69134050
:1037D0003B613B685B681B0903F001027B6902FAED
:1037E00003F33A6913433B617B683A695A603B686B
:1037F0005B6803F00303032B17D07B68DB683B6136
:103800007B695B00032202FA03F3DB433A6913404E
:103810003B613B689A687B695B0002FA03F33A6993
:1038200013433B617B683A69DA603B685B6803F08D
:103830000303022B23D17B69DA087B68083253F833
:1038400022303B617B6903F007039B000F2202FAE1
:1038500003F3DB433A6913403B613B681A697B69B8
:1038600003F007039B0002FA03F33A6913433B6139
:103870007B69DA087B680832396943F822107B6873
:103880001B683B617B695B00032202FA03F3DB43A5
:103890003A6913403B613B685B6803F003027B6954
:1038A0005B0002FA03F33A6913433B617B683A69B0
:1038B0001A603B685B6803F44033002B00F08C8097
:1038C0004E4A7B699B08023352F823303B617B6987
:1038D00003F003039B00072202FA03F3DB433A6978
:1038E00013403B617B68B3F1904F0DD07B68444A35
:1038F000934207D07B68434A934201D1022304E0FC
:10390000072302E0012300E000237A6902F00302AA
:10391000920093403A6913433B6138497B699B08A5
:1039200002333A6941F82320374B1B683B61FB683F
:10393000DB433A6913403B613B685B6803F48013E7
:10394000002B03D03A69FB6813433B612E4A3B6965
:1039500013602D4B5B683B61FB68DB433A691340A6
:103960003B613B685B6803F40013002B03D03A69AA
:10397000FB6813433B61244A3B695360224BD3F8F5
:1039800080303B61FB68DB433A6913403B613B6835
:103990005B6803F48033002B03D03A69FB68134360
:1039A0003B61194A3B69C2F88030174BD3F8843029
:1039B0003B61FB68DB433A6913403B613B685B68F2
:1039C00003F40033002B03D03A69FB6813433B61D7
:1039D0000D4A3B69C2F884307B6901337B613B68E7
:1039E0001A687B6922FA03F3002B7FF4B7AE00BF9D
:1039F00000BF1C37BD4680BC704700BF00000140BF
:103A000000040048000800480008005880B483B053
:103A100000AF78600B467B8013467B707B78002B71
:103A200003D07A887B689A6102E07A887B689A6220
:103A300000BF0C37BD4680BC704780B400AF4FF06C
:103A4000B0431B6803F48013B3F5801F01D1012339
:103A500000E000231846BD4680BC704780B400AF2C
:103A60004FF0B0431B6803F00803082B01D101237A
:103A700000E000231846BD4680BC704780B400AF0C
:103A80004FF0B0431B6803F0F0031846BD4680BCFE
:103A9000704780B400AF4FF0B043D3F8943003F4D4
:103AA00070631846BD4680BC704780B400AF4FF0CD
:103AB000B0439B6803F00C031846BD4680BC7047BA
:103AC00080B400AF4FF0B0439B6803F0F00318469A
:103AD000BD4680BC704780B400AF4FF0B043DB6898
:103AE0001B0A03F07F031846BD4680BC704780B4B4
:103AF00000AF4FF0B043DB6803F060431846BD46AB
:103B000080BC704780B400AF4FF0B043DB6803F077
:103B100070031846BD4680BC704780B400AF4FF0BC
:103B2000B043DB6803F003031846BD4680BC704712
:103B300090B587B000AF00237B6100233B61FFF7A6
:103B4000B4FFB860FFF7E9FF7860BB68002B05D0D1
:103B5000BB680C2B39D17B68012B36D1FFF77EFF78
:103B60000346002B15D1FFF779FF0346012B06D141
:103B7000FFF784FF03461B0A03F00F0305E0FFF77E
:103B800088FF03461B0A03F00F03364A52F823301E
:103B900014E0FFF763FF0346012B06D1FFF76EFF2A
:103BA00003461B0903F00F0305E0FFF772FF03460E
:103BB0001B0903F00F032B4A52F823303B61BB680B
:103BC000002B15D13B697B6112E0BB68042B02D14D
:103BD000254B7B610CE0BB68082B09D1FFF72DFF5B
:103BE0000346012B02D1204B7B6101E01F4B7B611F
:103BF000FFF75BFF03460C2B2FD1FFF78EFF78609A
:103C00007B68022B03D07B68032B03D00DE0164B9F
:103C1000FB600DE0FFF711FF0346012B02D1124BB1
:103C2000FB6005E0114BFB6002E03B69FB6000BFFD
:103C3000FFF751FF0246FB6803FB02F4FFF762FF48
:103C400003461B090133B4FBF3F4FFF750FF0346AF
:103C50005B0F0133B4FBF3F37B617B6918461C37C0
:103C6000BD4690BD481603080024F4000048E80152
:103C700098B500AFFFF75CFF0446FFF721FF03464E
:103C80001B0903F00F03034A52F82330B4FBF3F38C
:103C9000184698BDE815030880B483B000AF78607B
:103CA000064B9B6823F4006204497B6813438B60D6
:103CB00000BF0C37BD4680BC704700BF00040058F1
:103CC00080B400AF054BD3F89030044A43F400436E
:103CD000C2F8903000BFBD4680BC70470004005859
:103CE00080B400AF054BD3F89030044A23F400436E
:103CF000C2F8903000BFBD4680BC70470004005839
:103D000080B400AF034B4FF400629A6100BFBD4620
:103D100080BC70470004005880B400AF064B5B695C
:103D200003F00203022B01D1012300E00023184617
:103D3000BD4680BC704700BF0004005880B400AF8F
:103D4000064B5B6903F00403042B01D1012300E05F
:103D500000231846BD4680BC704700BF00040058D1
:103D600080B400AF4FF0B043D3F894304FF0B0427E
:103D700023F40043C2F8943000BFBD4680BC7047B6
:103D800080B400AF4FF0B043D3F8943003F48043D5
:103D9000B3F5804F01D1012300E000231846BD4652
:103DA00080BC704780B483B000AF7860064BD3F816
:103DB000902005497B681343C1F8903000BF0C3751
:103DC000BD4680BC704700BF0008005880B584B075
:103DD00000AF78607B68002B03D10123FB73FB7B72
:103DE00052E00023FB737B689B79BB73BB7B002B8A
:103DF00002D0BB7B032B09D17B6800225A71786803
:103E000000F048F84FF48050FFF7CCFFBB7B002B4D
:103E100026D17B6802229A71FFF7A2FF1C4B1A6819
:103E20001346DB009B1A9B00DB0C642202FB03F3AE
:103E3000BB60BB68002B05D10123FB737B680122AB
:103E40009A6007E0BB68013BBB60FFF799FF034640
:103E5000002BEED1FFF734FF4FF40060FFF71CFF9B
:103E6000FFF74EFFFB7B002B0AD17B681B681846CF
:103E700000F038FA7B6801221A717B6800229A6090
:103E80007B6801229A71FB7B18461037BD4680BDC6
:103E90000400002080B483B000AF786000BF0C370E
:103EA000BD4680BC704780B586B000AFF8607A60D0
:103EB0001A460B467B8113463B81FB689B79DBB23C
:103EC000012B4AD1FB685B79012B01D1022345E02C
:103ED000FB6801225A71FB6802229A71F86800F0AF
:103EE000CFFAFFF7FDFE0D21F86800F01BFA7B8981
:103EF0001B0A9BB2DBB21946F86800F013FA7B8903
:103F0000DBB21946F86800F00DFA0023BB820AE024
:103F1000BB8A7A6813441B781946F86800F002FAE5
:103F2000BB8A0133BB82BA8A3B899A42F0D3FFF73E
:103F3000C7FEF86800F0C8FAFB689B68002B02D047
:103F40000123FB7501E00023FB75FB6801229A71D8
:103F5000FB6800225A71FB7D00E0022318461837E7
:103F6000BD4680BD80B588B000AFF8607A601A4663
:103F70000B467B8113463B817B68BB61FB689B7969
:103F8000DBB2012B4AD1FB685B79012B01D1022303
:103F900045E0FB6801225A71F86800F071FAFFF7FA
:103FA0009FFE1D21F86800F0BDF97B891B0A9BB2BA
:103FB000DBB21946F86800F0B5F97B89DBB2194627
:103FC000F86800F0AFF90021F86800F0ABF90023C1
:103FD000FB8209E0B969F86800F0FAF9BB690133BE
:103FE000BB61FB8A0133FB82FA8A3B899A42F1D397
:103FF000FFF766FEF86800F067FAFB689B68002B25
:1040000002D00123FB7701E00023FB77FB6801224C
:104010009A71FB6800225A71FB7F00E00223184668
:104020002037BD4680BD80B586B000AFF8607A60AD
:104030001A460B46FB7213463B81FB689B79DBB249
:10404000012B4AD1FB685B79012B01D1022345E0AA
:10405000FB6801225A71F86800F012FAFB7A842B8F
:1040600002D0FB7A942B03D1FB6801221A7102E083
:10407000FB6800221A71FFF733FEFB7A1946F868D5
:1040800000F050F90023BB820AE0BB8A7A6813442F
:104090001B781946F86800F045F9BB8A0133BB82EA
:1040A000BA8A3B899A42F0D3FFF70AFEFB7A842B47
:1040B00002D0F86800F008FAFB689B68002B02D079
:1040C0000123FB7501E00023FB75FB6801229A7157
:1040D000FB6800225A71FB7D00E002231846183766
:1040E000BD4680BD80B588B000AFF8607A601A46E2
:1040F0000B46FB7213463B817B68BB61FB689B7977
:10410000DBB2012B3DD1FB685B79012B01D102238E
:1041100038E0FB6801225A71F86800F0B1F9FFF746
:10412000DFFDFB7A1946F86800F0FCF80021F8681A
:1041300000F0F8F80023FB8209E0B969F86800F0A4
:1041400047F9BB690133BB61FB8A0133FB82FA8A01
:104150003B899A42F1D3FFF7B3FDF86800F0B4F958
:10416000FB689B68002B02D00123FB7701E0002352
:10417000FB77FB6801229A71FB6800225A71FB7F72
:1041800000E0022318462037BD4680BD80B586B0CA
:1041900000AFF8607A601A460B46FB7213463B810B
:1041A000FB689B79DBB2012B3ED1FB685B79012B6D
:1041B00001D1022339E0FB6801225A71F86800F04E
:1041C0005FF9FFF78DFD0E21F86800F0ABF8FB7A80
:1041D0001946F86800F0A6F80023BB820AE0BB8A03
:1041E0007A6813441B781946F86800F09BF8BB8A7C
:1041F0000133BB82BA8A3B899A42F0D3FFF760FD54
:10420000F86800F061F9FB689B68002B02D001237D
:10421000FB7501E00023FB75FB6801229A71FB68C6
:1042200000225A71FB7D00E0022318461837BD4674
:1042300080BD80B588B000AFF8607A601A460B4642
:10424000FB7213463B817B68BB61FB689B79DBB2E9
:10425000012B41D1FB685B79012B01D102233CE0AA
:10426000FB6801225A71F86800F00AF9FFF738FD7F
:104270001E21F86800F056F8FB7A1946F86800F03D
:1042800051F80021F86800F04DF80023FB8209E0A6
:10429000B969F86800F09CF8BB690133BB61FB8A1F
:1042A0000133FB82FA8A3B899A42F1D3FFF708FD7A
:1042B000F86800F009F9FB689B68002B02D0012325
:1042C000FB7701E00023FB77FB6801229A71FB6812
:1042D00000225A71FB7F00E0022318462037BD46BA
:1042E00080BD000080B483B000AF78600C4B1B68C9
:1042F0000B4A23F040031360094A7B6843F441737F
:104300001360074B4FF4B8525A60054B1B68044AC0
:1043100043F04003136000BF0C37BD4680BC7047BC
:104320000000015880B487B000AF78600B46FB7086
:104330000023FB75234B1A681346DB009B1A9B0076
:10434000DB0C642202FB03F3FB60FB68002B05D14E
:104350000123FB757B6801229A6008E0FB68013B42
:10436000FB60194B9B6803F00203022BEDD1174B46
:104370003B613B69FA781A70124B1A681346DB00EE
:104380009B1A9B00DB0C642202FB03F3FB60FB68BF
:10439000002B05D10123FB757B6801229A6008E0A0
:1043A000FB68013BFB60084B9B6803F00103012B9A
:1043B000EDD1054BDB68FB7D18461C37BD4680BC44
:1043C000704700BF04000020000001580C00015895
:1043D00080B487B000AF786039600023FB75254B4F
:1043E0001A681346DB009B1A9B00DB0C642202FB5D
:1043F00003F3FB60FB68002B05D10123FB757B6891
:1044000001229A6008E0FB68013BFB601A4B9B6845
:1044100003F00203022BEDD1184B3B613B69FF22F5
:104420001A70144B1A681346DB009B1A9B00DB0CB6
:10443000642202FB03F3FB60FB68002B05D1012320
:10444000FB757B6801229A6008E0FB68013BFB601A
:10445000094B9B6803F00103012BEDD1064BDB6890
:10446000DAB23B681A70FB7D18461C37BD4680BC2B
:10447000704700BF04000020000001580C000158E4
:1044800080B584B000AF78607B681B79012B11D1B7
:104490000C4B1A6813465B001344DB001B0CFB60DB
:1044A000FFF71EFCFB68013BFB60FB68002BF9D1AA
:1044B000FFF706FC786800F007F803461846103747
:1044C000BD4680BD0400002080B586B000AF786096
:1044D0000023FB75124B1A6813465B001344DB0084
:1044E0001B0D642202FB03F3FB60FFF727FC38611E
:1044F000FB68002B05D10123FB757B6802229A60C3
:1045000009E0FB68013BFB60FFF706FC02463B69E4
:104510001340012BE9D0FB7D18461837BD4680BDFE
:104520000400002080B48BB000AFF860B9607A60FE
:10453000FB681A68BB687B617B6993FAA3F33B61F4
:104540003B69BB61BB69002B01D1202303E0BB6940
:10455000B3FA83F3DBB25B00032101FA03F3DB431D
:104560001A40BB683B623B6A93FAA3F3FB61FB69A9
:104570007B627B6A002B01D1202303E07B6AB3FAC4
:1045800083F3DBB25B00796801FA03F31A43FB683B
:104590001A6000BF2C37BD4680BC704780B485B020
:1045A00000AFF860B9607A60FB685A68BB68DB43AB
:1045B0001A40BB68796801FB03F31A43FB685A6031
:1045C00000BF1437BD4680BC704780B48BB000AFCD
:1045D000F860B9607A60FB689A68BB687B617B6948
:1045E00093FAA3F33B613B69BB61BB69002B01D12B
:1045F000202303E0BB69B3FA83F3DBB25B00032142
:1046000001FA03F3DB431A40BB683B623B6A93FA4F
:10461000A3F3FB61FB697B627B6A002B01D1202342
:1046200003E07B6AB3FA83F3DBB25B00796801FADB
:1046300003F31A43FB689A6000BF2C37BD4680BC69
:10464000704780B48BB000AFF860B9607A60FB68E7
:10465000DA68BB687B617B6993FAA3F33B613B69D2
:10466000BB61BB69002B01D1202303E0BB69B3FA16
:1046700083F3DBB25B00032101FA03F3DB431A404F
:10468000BB683B623B6A93FAA3F3FB61FB697B6205
:104690007B6A002B01D1202303E07B6AB3FA83F30A
:1046A000DBB25B00796801FA03F31A43FB68DA6056
:1046B00000BF2C37BD4680BC704780B48BB000AFC4
:1046C000F860B9607A60FB681A6ABB687B617B69D5
:1046D00093FAA3F33B613B69BB61BB69002B01D13A
:1046E000202303E0BB69B3FA83F3DBB29B000F2105
:1046F00001FA03F3DB431A40BB683B623B6A93FA5F
:10470000A3F3FB61FB697B627B6A002B01D1202351
:1047100003E07B6AB3FA83F3DBB29B00796801FAAA
:1047200003F31A43FB681A6200BF2C37BD4680BCF6
:10473000704780B48BB000AFF860B9607A60FB68F6
:104740005A6ABB681B0A7B617B6993FAA3F33B61DE
:104750003B69BB61BB69002B01D1202303E0BB692E
:10476000B3FA83F3DBB29B000F2101FA03F3DB43BF
:104770001A40BB681B0A3B623B6A93FAA3F3FB61D6
:10478000FB697B627B6A002B01D1202303E07B6AFB
:10479000B3FA83F3DBB29B00796801FA03F31A439F
:1047A000FB685A6200BF2C37BD4680BC704780B59D
:1047B00088B000AF786039603B681B683B613B693B
:1047C00093FAA3F3FB60FB687B617B69002B01D14B
:1047D000202303E07B69B3FA83F3DBB2FB614EE095
:1047E0003B681A680121FB6901FA03F31340BB61BE
:1047F000BB69002B40D03B685B681A46B969786892
:10480000FFF790FE3B685B68012B03D03B685B6859
:10481000022B0DD13B689B681A46B9697868FFF78F
:10482000D4FE3B68DB681A46B9697868FFF7B6FEC4
:104830003B681B691A46B9697868FFF702FF3B6855
:104840005B68022B11D1BB69FF2B07D83B685B6902
:104850001A46B9697868FFF730FF06E03B685B6984
:104860001A46B9697868FFF764FF3B685B681A46C7
:10487000B9697868FFF756FEFB690133FB613B6855
:104880001A68FB6922FA03F3002BA9D10123184609
:104890002037BD4680BD80B483B000AF78607B68B0
:1048A0001B6803F00103012B01D1012300E0002369
:1048B00018460C37BD4680BC704780B483B000AF4B
:1048C000786039607B68DB6A23F00F033A6892B244
:1048D0001A437B68DA6200BF0C37BD4680BC704764
:1048E00080B483B000AF786039607B685B6823F484
:1048F00040523B681A437B685A6000BF0C37BD4684
:1049000080BC704780B483B000AF786039607B684A
:104910009B6823F440723B681A437B689A6000BF2F
:104920000C37BD4680BC70472DE9B04F88B000AF52
:10493000F861B9617A613B613B69002B39D0BB6991
:104940000022BB60FA607B699BB21A461B4B33F8AE
:1049500012309BB200223B607A60D7E90023D7E98E
:104960000201FCF76BF802460B46104619464FF061
:1049700000024FF000030B0243EA106302023969A0
:10498000490800200C46054612EB040843EB0509D4
:104990003B6900229A46934652465B46404649464A
:1049A000FCF74CF802460B461346C3F31302FB69AF
:1049B000DA6000BF2037BD46BDE8B08F8816030817
:1049C00080B584B000AF786039600023FB737868ED
:1049D000FFF761FF0346002B36D17B681A681D4B39
:1049E00013403A6891683A68126911433A6852690B
:1049F0000A431A437B681A603B68DB68194678688B
:104A0000FFF76EFF3B689B6919467868FFF77AFFEE
:104A10004FF4406000F030F9B860BB68002B0DD057
:104A20003B685B68002B09D00123FB733B681A6865
:104A30003B685B68B9687868FFF776FF3B681B687E
:104A400019467868FFF739FFFB7B18461037BD46DB
:104A500080BD00BFF3E9FFEF80B400AF4FF0B0437B
:104A60001B6803F48013B3F5801F01D1012300E01C
:104A700000231846BD4680BC704780B400AF4FF09D
:104A8000B0431B6803F48063B3F5806F01D1012349
:104A900000E000231846BD4680BC704780B400AFDC
:104AA0004FF0B043D3F8903003F00203022B01D152
:104AB000012300E000231846BD4680BC704780B447
:104AC00000AF4FF0B0431B6803F00803082B01D17F
:104AD000012300E000231846BD4680BC704780B427
:104AE00000AF4FF0B0431B6803F0F0031846BD461B
:104AF00080BC704780B400AF4FF0B043D3F894301F
:104B000003F470631846BD4680BC704780B400AFA4
:104B10004FF0B0439B6803F00C031846BD4680BCC1
:104B2000704780B400AF4FF0B0439B6803F0F003D0
:104B30001846BD4680BC704780B400AF4FF0B0430C
:104B4000D3F8083103F0F0031846BD4680BC704727
:104B500080B400AF4FF0B043D3F808311B0103F02D
:104B6000F0031846BD4680BC704780B400AF4FF0DC
:104B7000B0439B6803F4E0631846BD4680BC7047B1
:104B800080B400AF4FF0B0439B6803F46053184605
:104B9000BD4680BC704780B483B000AF78604FF0F2
:104BA000B043D3F888207B68134018460C37BD46C5
:104BB00080BC704780B400AF4FF0B043DB681B0A85
:104BC00003F07F031846BD4680BC704780B400AF39
:104BD0004FF0B043DB6803F060431846BD4680BC2D
:104BE000704780B400AF4FF0B043DB6803F0700350
:104BF0001846BD4680BC704780B400AF4FF0B0434C
:104C0000DB6803F003031846BD4680BC704780B5DF
:104C100082B000AF786000F071F802467B681A60DD
:104C20007B681B68184600F011F902467B685A60E1
:104C30007B681B68184600F01FF902467B689A6083
:104C40007B681B68184600F02DF902467B68DA6025
:104C50007B685B68184600F03BF902467B681A6186
:104C60007B685B68184600F047F902467B685A612A
:104C700000BF0837BD4680BD80B584B000AF786006
:104C80000023FB607868FFF786FF0346B3F5406FAB
:104C900015D0B3F5406F1BD8B3F5806F03D0B3F5D3
:104CA000006F04D014E000F029F8F8601FE0FFF76F
:104CB000E4FE0346012B17D10F4BFB6014E0FFF716
:104CC000EDFE0346012B11D14FF40043FB600DE0D4
:104CD00000F014F80346184600F0B8F803461846EA
:104CE00000F0F6F8F86002E000BF00E000BFFB68EB
:104CF00018461037BD4680BD0024F40080B582B050
:104D000000AFFFF703FF03460C2B61D801A252F856
:104D100023F000BF494D0008D14D0008D14D0008D7
:104D2000D14D0008AD4D0008D14D0008D14D00080F
:104D3000D14D0008B34D0008D14D0008D14D0008F9
:104D4000D14D0008C94D0008FFF7B9FE0346002BFE
:104D500015D1FFF7B4FE0346012B06D1FFF7BFFEC6
:104D600003461B0A03F00F0305E0FFF7C3FE0346EB
:104D70001B0A03F00F03324A52F8233014E0FFF706
:104D80009EFE0346012B06D1FFF7A9FE03461B0931
:104D900003F00F0305E0FFF7ADFE03461B0903F028
:104DA0000F03274A52F823307B6043E0254B7B609A
:104DB00040E0FFF751FE0346012B02D1214B7B60FF
:104DC00038E0214B7B6035E000F0AAF8786031E0F4
:104DD000FFF775FE0346002B15D1FFF770FE034663
:104DE000012B06D1FFF77BFE03461B0A03F00F03DE
:104DF00005E0FFF77FFE03461B0A03F00F03104A8E
:104E000052F8233014E0FFF75AFE0346012B06D177
:104E1000FFF765FE03461B0903F00F0305E0FFF7EC
:104E200069FE03461B0903F00F03054A52F82330BD
:104E30007B6000BF7B6818460837BD4680BD00BF59
:104E4000481603080024F4000048E80180B582B049
:104E500000AF7860FFF765FE03461B0903F00F0300
:104E6000044A52F823307A68B2FBF3F31846083745
:104E7000BD4680BDE815030880B582B000AF7860FC
:104E8000FFF75AFE03461B0903F00F03044A52F8CA
:104E900023307A68B2FBF3F318460837BD4680BD6D
:104EA000E815030880B582B000AF7860FFF750FEC8
:104EB00003461B0903F00F03044A52F823307A68B3
:104EC000B2FBF3F318460837BD4680BDE81503086A
:104ED00080B582B000AF7860FFF747FE03461B0A3B
:104EE000044A52F823307A6822FA03F31846083746
:104EF000BD4680BD2816030880B582B000AF78603B
:104F0000FFF73EFE0346DB0A044A52F823307A6874
:104F100022FA03F318460837BD4680BD2816030859
:104F200090B583B000AFFFF767FE38603B68032B96
:104F30003ED03B68032B46D83B68012B03D03B682F
:104F4000022B32D03FE0FFF7BAFD0346002B15D10C
:104F5000FFF7B5FD0346012B06D1FFF7C0FD034661
:104F60001B0A03F00F0305E0FFF7C4FD03461B0A0D
:104F700003F00F03394A52F8233014E0FFF79FFD86
:104F80000346012B06D1FFF7AAFD03461B0903F0D8
:104F90000F0305E0FFF7AEFD03461B0903F00F0307
:104FA0002E4A52F823307B603FE02D4B7B603CE083
:104FB000FFF752FD0346012B02D1294B7B6034E001
:104FC000284B7B6031E0FFF77AFD0346002B15D1BB
:104FD000FFF775FD0346012B06D1FFF780FD034661
:104FE0001B0A03F00F0305E0FFF784FD03461B0ACD
:104FF00003F00F03194A52F8233014E0FFF75FFD66
:105000000346012B06D1FFF76AFD03461B0903F097
:105010000F0305E0FFF76EFD03461B0903F00F03C6
:105020000E4A52F823307B6000BFFFF7C3FD0246F3
:105030007B6803FB02F4FFF7D4FD03461B09013331
:10504000B4FBF3F4FFF7C2FD03465B0F0133B4FB7F
:10505000F3F318460C37BD4690BD00BF4816030851
:105060000024F4000048E80180B483B000AF786009
:105070004FF0B0439A6B4FF0B0417B6813438B63A2
:1050800000BF0C37BD4680BC704780B483B000AF12
:1050900078604FF0B0439A6B7B68DB434FF0B041D0
:1050A00013408B6300BF0C37BD4680BC704780B493
:1050B00083B000AF78604FF0B0431A6C4FF0B0414E
:1050C0007B6813430B6400BF0C37BD4680BC704740
:1050D00080B483B000AF78604FF0B0431A6C7B6847
:1050E000DB434FF0B04113400B6400BF0C37BD46AB
:1050F00080BC704780B483B000AF786039607B6853
:105100003A689A6200BF0C37BD4680BC704780B4D5
:1051100083B000AF786039607B683A68DA6200BFBC
:105120000C37BD4680BC704780B483B000AF786058
:1051300039607B683A681A6300BF0C37BD4680BC93
:10514000704780B483B000AF786039607B683A689C
:105150005A6300BF0C37BD4680BC704780B483B033
:1051600000AF786039607B683A689A6300BF0C379B
:10517000BD4680BC704780B483B000AF78603960B2
:105180007B683A68DA6300BF0C37BD4680BC704765
:1051900080B483B000AF786039607B683A681A6485
:1051A00000BF0C37BD4680BC704780B483B000AFF1
:1051B000786039607B689B6D1B0C1B043A681A434E
:1051C0007B689A6500BF0C37BD4680BC704780B4D1
:1051D00083B000AF786039607B683A68DA6500BFF9
:1051E0000C37BD4680BC704780B483B000AF786098
:1051F0007B685B6943F001027B685A6100BF0C3732
:10520000BD4680BC7047000080B584B000AF7860B8
:105210000123FB737B681C4A934208D14FF4006062
:10522000FFF745FF4FF40060FFF752FF26E07B6871
:10523000B3F1804F06D10120FFF716FF0120FFF7E1
:1052400024FF1BE07B68114A934208D14FF40030E1
:10525000FFF72DFF4FF40030FFF73AFF0EE07B68B9
:105260000B4A934208D14FF48020FFF720FF4FF400
:105270008020FFF72DFF01E00023FB73FB7B184626
:105280001037BD4680BD00BF002C014000440140E6
:105290000048014080B584B000AF786039607B6819
:1052A0001B68FB607B68274A934203D07B68B3F19D
:1052B000804F06D1FB6823F070023B685B681343A4
:1052C000FB607B681F4A93420BD07B68B3F1804F31
:1052D00007D07B681C4A934203D07B681B4A9342E9
:1052E00006D1FB6823F440723B68DB681343FB6024
:1052F0007B68FA681A603B689B6819467868FFF714
:1053000006FF3B681B8819467868FFF7F3FE7B6849
:105310000C4A934207D07B680B4A934203D07B68C8
:105320000A4A934205D13B681B6919467868FFF722
:10533000FBFE7868FFF758FF012318461037BD467B
:1053400080BD00BF002C01400044014000480140E6
:1053500080B586B000AFF860B9607A600023FB7555
:10536000BB68B3F5801F45D0BB68B3F5801F48D834
:10537000BB68B3F5803F36D0BB68B3F5803F40D8FB
:10538000BB68B3F5805F27D0BB68B3F5805F38D8C2
:10539000BB68B3F5807F18D0BB68B3F5807F30D889
:1053A000BB68012B03D0BB68102B07D029E07968BC
:1053B000F86800F02DF80346FB7523E07968F8687B
:1053C00000F09AF80346FB751CE07968F86800F075
:1053D0000BF90346FB7515E07968F86800F07CF975
:1053E0000346FB750EE07968F86800F0D5F90346CE
:1053F000FB7507E07968F86800F026FA0346FB754C
:1054000000E000BFFB7D18461837BD4680BD000098
:1054100080B586B000AF786039607B681B6A23F086
:1054200001027B681A627B681B6A7B617B685B6830
:105430003B617B689B69FB60FB6823F00303FB60B7
:10544000FB6823F4803323F070033A681268134337
:10545000FB607B6923F002023B681B6913437B619D
:105460007B6923F001023B685B6813437B617B68C7
:105470001E4A934207D07B681D4A934203D07B6843
:105480001C4A93421ED17B6923F008023B685B698A
:105490009B0013437B617B6923F004023B689B689C
:1054A0009B0013437B613B6923F480723B689B69DB
:1054B00013433B613B6923F400723B68DB695B008B
:1054C00013433B617B683A695A607B68FA689A616A
:1054D0003B68DB6819467868FFF733FE7B687A69BA
:1054E0001A62012318461837BD4680BD002C0140C2
:1054F000004401400048014080B586B000AF7860AC
:1055000039607B681B6A23F010027B681A627B6833
:105510001B6A7B617B685B683B617B689B69FB60A6
:10552000FB6823F44073FB60FB6823F0807323F473
:10553000E0433A68126812021343FB607B6923F070
:1055400020023B681B691B0113437B617B6923F0CD
:1055500010023B685B681B0113437B617B681F4A39
:10556000934207D07B681E4A934203D07B681D4A52
:1055700093421FD17B6923F080023B685B699B01EA
:1055800013437B617B6923F040023B689B689B016E
:1055900013437B613B6923F480623B689B699B00FA
:1055A00013433B613B6923F400623B68DB69DB002A
:1055B00013433B617B683A695A607B68FA689A6179
:1055C0003B68DB6819467868FFF7C8FD7B687A6935
:1055D0001A62012318461837BD4680BD002C0140D1
:1055E000004401400048014080B586B000AF7860BB
:1055F00039607B681B6A23F480727B681A627B685F
:105600001B6A7B617B685B683B617B68DB69FB6075
:10561000FB6823F00303FB60FB6823F4803323F073
:1056200070033A6812681343FB607B6923F40072CD
:105630003B681B691B0213437B617B6923F4807207
:105640003B685B681B0213437B617B681F4A934284
:1056500007D07B681E4A934203D07B681D4A934261
:105660001FD17B6923F400623B685B699B02134393
:105670007B617B6923F480623B689B689B021343D8
:105680007B613B6923F480523B689B691B01134398
:105690003B613B6923F400523B68DB695B011343C8
:1056A0003B617B683A695A607B68FA68DA613B68FB
:1056B000DB6819467868FFF75EFD7B687A691A62D5
:1056C000012318461837BD4680BD00BF002C01409D
:1056D000004401400048014080B586B000AF7860CA
:1056E00039607B681B6A23F480527B681A627B688E
:1056F0001B6A3B617B685B687B617B68DB69FB6085
:10570000FB6823F44073FB60FB6823F0807323F491
:10571000E0433A68126812021343FB603B6923F4CA
:1057200000523B681B691B0313433B613B6923F435
:1057300080523B685B681B0313433B617B68134AE1
:10574000934207D07B68124A934203D07B68114A88
:10575000934207D17B6923F480423B689B699B019C
:1057600013437B617B687A695A607B68FA68DA6107
:105770003B68DB6819467868FFF70AFD7B683A6981
:105780001A62012318461837BD4680BD002C01401F
:10579000004401400048014080B584B000AF78600B
:1057A00039607B681B6A23F480327B681A627B68ED
:1057B0001B6AFB607B685B6DBB60BB6823F4803356
:1057C00023F070033A6812681343BB60FB6823F44C
:1057D00000323B681B691B041343FB60FB6823F426
:1057E00080323B685B681B041343FB607B68134A91
:1057F000934207D07B68124A934203D07B68114AD8
:10580000934209D17B685B6823F480323B689B69D3
:105810001B021A437B685A607B68BA685A653B680A
:10582000DB6819467868FFF7C0FC7B68FA681A6283
:10583000012318461037BD4680BD00BF002C014033
:10584000004401400048014080B584B000AF78605A
:1058500039607B681B6A23F480127B681A627B685C
:105860001B6AFB607B685B6DBB60BB6823F0807369
:1058700023F4E0433A68126812021343BB60FB68EA
:1058800023F400123B681B691B051343FB60FB6894
:1058900023F480123B685B681B051343FB607B6845
:1058A000124A934207D07B68114A934203D07B6827
:1058B000104A934209D17B685B6823F480223B68DD
:1058C0009B699B021A437B685A607B68BA685A6579
:1058D0003B68DB6819467868FFF779FC7B68FA68F3
:1058E0001A62012318461037BD4680BD002C0140C6
:1058F000004401400048014080B483B000AF7860AC
:10590000034A7B68136000BF0C37BD4680BC7047FC
:105910000400002080B485B000AF78604FF0B04341
:10592000DA6C4FF0B0417B681343CB644FF0B04367
:10593000DA6C7B681340FB60FB6800BF1437BD4620
:1059400080BC704780B586B000AF3B1D00221A6056
:105950005A609A60DA601A610420FFF7DBFF0420C6
:10596000FFF7D8FF10237B600123BB600023FB609F
:1059700003233B613B1D19460B48FDF7E7FE20233F
:105980007B603B1D19460848FDF7E0FE08237B605D
:105990003B1D19460448FDF7D9FE002000F00EF823
:1059A00000BF1837BD4680BD0008004880B400AF76
:1059B00000231846BD4680BC7047000080B582B009
:1059C00000AF0346FB71FB79032B4BD801A252F8C1
:1059D00023F000BFE5590008055A0008255A0008C1
:1059E000455A0008002208212048FEF70FF800223F
:1059F00010211E48FEF70AF8002220211B48FEF75E
:105A000005F82FE0012208211848FDF7FFFF0122C9
:105A100010211648FDF7FAFF002220211348FDF758
:105A2000F5FF1FE0012208211048FDF7EFFF0122DA
:105A300010210E48FDF7EAFF012220210B48FDF757
:105A4000E5FF0FE0012208210848FDF7DFFF0022F3
:105A500010210648FDF7DAFF012220210348FDF757
:105A6000D5FF00BF00BF0837BD4680BD0008004815
:105A700080B400AF02231846BD4680BC704780B496
:105A800083B000AF0346FB7100BF0C37BD4680BC3E
:105A9000704780B485B000AF78604FF0B0431A6DA6
:105AA0004FF0B0417B6813430B654FF0B0431A6D64
:105AB0007B681340FB60FB6800BF1437BD4680BCA9
:105AC000704780B483B000AF78604FF0B0431A6D78
:105AD0007B68DB434FF0B04113400B6500BF0C37D0
