:020000040800F2
:100000000000012079130008E9100008FD10000825
:100010001111000825110008391100080000000026
:100020000000000000000000000000004D1100086A
:100030004F11000800000000511100085311000882
:10004000C9130008C9130008C9130008C913000820
:10005000C9130008C9130008C9130008C913000810
:10006000C9130008C9130008C9130008C913000800
:10007000C9130008C9130008C9130008C9130008F0
:10008000C9130008C9130008C9130008C9130008E0
:10009000C9130008C9130008C9130008C9130008D0
:1000A000C9130008C9130008C9130008993C0008C7
:1000B000C9130008C9130008C9130008C9130008B0
:1000C000C9130008C9130008C9130008C9130008A0
:1000D0000D130008C91300089D320008C913000859
:1000E000C9130008C9130008C9130008C913000880
:1000F000C9130008C9130008C9130008C913000870
:10010000C9130008C91300088D3A0008C913000874
:10011000C9130008C9130008C9130008C91300084F
:10012000C9130008C9130008C9130008C91300083F
:08013000C9130008C9130008FF
:1001400010B5054C237833B9044B13B10448AFF311
:1001500000800123237010BD9000002000000000EB
:100160009855010808B5034B1BB103490348AFF389
:10017000008008BD00000000940000209855010890
:1001800001F0FF01102A2BDB10F0070F08D010F848
:10019000013B013A8B422DD010F0070F42B3F6D14C
:1001A000F0B441EA012141EA014122F007047FF065
:1001B00000070023F0E80256083C85EA010586EABC
:1001C000010685FA47F5A3FA87F586FA47F6A5FAF8
:1001D00087F68EB9EED1F0BC01F0FF0102F0070204
:1001E00032B110F8013B013A83EA010313B1F8D1AF
:1001F0000020704701387047002D06BF3546033890
:10020000073815F0010F07D1013015F4807F02BFC8
:10021000013015F4C03F0130F0BC0138704700BF19
:1002200070B54FF0FF0C4CF4E06C1CEA11541DBF8C
:100230001CEA135594EA0C0F95EA0C0F00F0DEF857
:100240002C4481EA030621EA4C5123EA4C5350EA3C
:10025000013518BF52EA033541F4801143F480138D
:1002600038D0A0FB02CE4FF00005E1FB02E506F01E
:100270000042E0FB03E54FF00006E1FB03569CF073
:10028000000F18BF4EF0010EA4F1FF04B6F5007F79
:1002900064F5407404D25FEA4E0E6D4146EB0606EB
:1002A00042EAC62141EA55514FEAC52040EA5E5074
:1002B0004FEACE2EB4F1FD0C88BFBCF5E06F1ED81E
:1002C000BEF1004F08BF5FEA500E50F1000041EB55
:1002D000045170BD06F0004646EA010140EA020002
:1002E00081EA0301B4EB5C04C2BFD4EB0C0541EA24
:1002F000045170BD41F480114FF0000E013C00F339
:10030000AB8014F1360FDEBF002001F0004170BD5C
:10031000C4F10004203C35DA0C341BDC04F1140475
:10032000C4F1200500FA05F320FA04F001FA05F201
:1003300040EA020001F0004221F0004110EBD370CE
:1003400021FA04F642EB06015EEA430E08BF20EAFA
:10035000D37070BDC4F10C04C4F1200500FA04F39D
:1003600020FA05F001FA04F240EA020001F000412F
:1003700010EBD37041F100015EEA430E08BF20EAA2
:10038000D37070BDC4F1200500FA05F24EEA020EEA
:1003900020FA04F301FA05F243EA020321FA04F019
:1003A00001F0004121FA04F220EA020000EBD370D0
:1003B0005EEA430E08BF20EAD37070BD94F0000FD0
:1003C0000FD101F00046400041EB010111F4801F04
:1003D00008BF013CF7D041EA060195F0000F18BFB5
:1003E000704703F00046520043EB030313F4801FF1
:1003F00008BF013DF7D043EA0603704794EA0C0FAB
:100400000CEA135518BF95EA0C0F0CD050EA4106C0
:1004100018BF52EA4306D1D181EA030101F000413D
:100420004FF0000070BD50EA410606BF1046194665
:1004300052EA430619D094EA0C0F02D150EA013671
:1004400013D195EA0C0F05D152EA03361CBF1046B2
:1004500019460AD181EA030101F0004141F0FE4151
:1004600041F470014FF0000070BD41F0FE4141F4D5
:10047000780170BD81F0004102E000BF83F00043CD
:1004800030B54FEA41044FEA430594EA050F08BF2F
:1004900090EA020F1FBF54EA000C55EA020C7FEAF3
:1004A000645C7FEA655C00F0E2804FEA5454D4EB70
:1004B0005555B8BF6D420CDD2C4480EA020281EA3A
:1004C000030382EA000083EA010180EA020281EA72
:1004D0000303362D88BF30BD11F0004F4FEA0131C4
:1004E0004FF4801C4CEA113102D0404261EB4101D3
:1004F00013F0004F4FEA03334CEA133302D0524259
:1005000063EB430394EA050F00F0A780A4F1010414
:10051000D5F1200E0DDB02FA0EFC22FA05F280184E
:1005200041F1000103FA0EF2801843FA05F3594134
:100530000EE0A5F120050EF1200E012A03FA0EFCB3
:1005400028BF4CF0020C43FA05F3C01851EBE371DD
:1005500001F0004507D54FF0000EDCF1000C7EEBFA
:1005600000006EEB0101B1F5801F1BD3B1F5001F38
:100570000CD349085FEA30004FEA3C0C04F1010457
:100580004FEA445212F5800F80F09A80BCF1004F80
:1005900008BF5FEA500C50F1000041EB045141EA02
:1005A000050130BD5FEA4C0C404141EB0101013CCB
:1005B00028BFB1F5801FE9D291F0000F04BF0146BA
:1005C0000020B1FA81F308BF2033A3F10B03B3F18C
:1005D00020020CDA0C3208DD02F1140CC2F10C021C
:1005E00001FA0CF021FA02F10CE002F11402D8BF7A
:1005F000C2F1200C01FA02F120FA0CFCDCBF41EA46
:100600000C019040E41AA2BF01EB0451294330BD14
:100610006FEA04041F3C1CDA0C340EDC04F11404F1
:10062000C4F1200220FA04F001FA02F340EA0300C8
:1006300021FA04F345EA030130BDC4F10C04C4F10E
:10064000200220FA02F001FA04F340EA03002946EE
:1006500030BD21FA04F0294630BD94F0000F83F438
:10066000801306BF81F480110134013D4EE77FEA1B
:10067000645C18BF7FEA655C29D094EA050F08BF67
:1006800090EA020F05D054EA000C04BF1946104648
:1006900030BD91EA030F1EBF0021002030BD5FEA8C
:1006A000545C05D14000494128BF41F0004130BDB4
:1006B00014F580043CBF01F5801130BD01F0004508
:1006C00045F0FE4141F470014FF0000030BD7FEA7B
:1006D000645C1ABF194610467FEA655C1CBF0B4676
:1006E000024650EA013406BF52EA033591EA030F8D
:1006F00041F4002130BD00BF90F0000F04BF002185
:10070000704730B54FF4806404F132044FF00005B7
:100710004FF0000150E700BF90F0000F04BF002130
:10072000704730B54FF4806404F1320410F0004596
:1007300048BF40424FF000013EE700BF42004FEA91
:10074000E2014FEA31014FEA02701FBF12F07F430E
:1007500093F07F4F81F06051704732F07F4208BFC5
:10076000704793F07F4F04BF41F40021704730B5CC
:100770004FF4607401F0004521F000411CE700BF18
:1007800050EA010208BF704730B54FF000050AE09B
:1007900050EA010208BF704730B511F0004502D59C
:1007A000404261EB41014FF4806404F132045FEA9E
:1007B000915C3FF4D8AE4FF003025FEADC0C18BF47
:1007C00003325FEADC0C18BF033202EBDC02C2F139
:1007D000200300FA03FC20FA02F001FA03FE40EACB
:1007E0000E0021FA02F11444BDE600BF4FF0FF3CB9
:1007F00006E000BF4FF0010C02E000BF4FF0010C1B
:100800004DF804CD4FEA410C7FEA6C5C4FEA430C93
:1008100018BF7FEA6C5C1BD001B050EA410C0CBFE2
:1008200052EA430C91EA030F02BF90EA020F002044
:10083000704710F1000F91EA030F58BF994208BFAB
:1008400090422CBFD8176FEAE37040F00100704768
:100850004FEA410C7FEA6C5C02D150EA013C07D1BF
:100860004FEA430C7FEA6C5CD6D152EA033CD3D00A
:100870005DF8040B704700BF8446104662468C4604
:100880001946634600E000BF01B5FFF7B7FF002837
:1008900048BF10F1000F01BD4DF808EDFFF7F4FF60
:1008A0000CBF012000205DF808FB00BF4DF808EDEB
:1008B000FFF7EAFF34BF012000205DF808FB00BF0E
:1008C0004DF808EDFFF7E0FF94BF012000205DF830
:1008D00008FB00BF4DF808EDFFF7CEFF94BF0120E5
:1008E00000205DF808FB00BF4DF808EDFFF7C4FFDE
:1008F00034BF012000205DF808FB00BF4FEA410231
:1009000012F5001215D211D56FF47873B3EB625261
:1009100012D94FEAC12343F0004343EA505311F088
:10092000004F23FA02F018BF404270474FF000001A
:10093000704750EA013005D111F0004008BF6FF058
:10094000004070474FF00000704700BF4A0011D2CE
:1009500012F5001211D20DD56FF47873B3EB625219
:100960000ED44FEAC12343F0004343EA505323FA25
:1009700002F070474FF00000704750EA013002D19A
:100980004FF0FF3070474FF0000070477BB972B9ED
:100990000029BEBF00204FF0004106E008BF00283C
:1009A0001CBF6FF000414FF0FF3000F0BBB9ADF15C
:1009B000080C6DE904CE002909DB002B1ADB00F0DE
:1009C0004DF8DDF804E0DDE9022304B07047404251
:1009D00061EB4101002B1BDB00F040F8DDF804E087
:1009E000DDE9022304B0404261EB4101524263EB76
:1009F00043037047524263EB430300F02FF8DDF8E6
:100A000004E0DDE9022304B0404261EB410170479C
:100A1000524263EB430300F021F8DDF804E0DDE926
:100A2000022304B0524263EB4303704753B94AB9FF
:100A3000002908BF00281CBF4FF0FF314FF0FF30E6
:100A400000F070B9ADF1080C6DE904CE00F006F8C5
:100A5000DDF804E0DDE9022304B070472DE9F0473A
:100A6000089E0D4604460F46002B4AD18A42944602
:100A700065D9B2FA82F343B102FA03FCC3F1200252
:100A80009F4020FA02F217439C404FEA1C4E1FFA87
:100A90008CF5B7FBFEF1220C0EFB117742EA074200
:100AA00001FB05F090420AD91CEB020201F1FF376D
:100AB00080F01B81904240F2188102396244121A80
:100AC000A4B2B2FBFEF00EFB102244EA024400FB8B
:100AD00005F5A5420AD91CEB040400F1FF3280F0B1
:100AE0000681A54240F203816444023840EA014095
:100AF000641B00211EB1DC400023C6E90043BDE8B1
:100B0000F0878B4208D9002E00F0EC800021C6E966
:100B100000050846BDE8F087B3FA83F1002949D102
:100B2000AB4202D3824200F2F780841A65EB0302E3
:100B300001201746002EE2D0C6E90047DFE702B9E0
:100B4000FFDEB2FA82F3002B40F08F808A1A4FEA60
:100B50001C471FFA8CFE0121B2FBF7F507FB15209D
:100B6000220C42EA00420EFB05F0904208D91CEB31
:100B7000020205F1FF3802D2904200F2CA804546D7
:100B8000121AA4B2B2FBF7F007FB102244EA0244A7
:100B90000EFB00FEA64508D91CEB040400F1FF3251
:100BA00002D2A64500F2BA801046A4EB0E0440EA39
:100BB00005409FE7C1F120078B4022FA07FC4CEA71
:100BC000030C05FA01F420FA07F3FD40234300FA71
:100BD00001F94FEA1C401FFA8CFEB5FBF0F81C0C23
:100BE00000FB185544EA054408FB0EF5A54202FA3D
:100BF00001F20BD91CEB040408F1FF3A80F0878066
:100C0000A54240F28480A8F102086444641B9DB2AE
:100C1000B4FBF0F300FB134445EA044403FB0EFE6F
:100C2000A64508D91CEB040403F1FF306BD2A6459E
:100C300069D9023B644443EA0840A0FB0283A4EB69
:100C40000E049C42C6461D4655D352D056B1B9EB50
:100C50000E0364EB050404FA07F7CB40CC401F43B6
:100C6000C6E900740021BDE8F087C3F1200102FA53
:100C700003FC20FA01F225FA01F19D402A434FEAD4
:100C80001C471FFA8CFEB1FBF7F007FB1015110C87
:100C900041EA054100FB0EF58D4204FA03F408D940
:100CA0001CEB010100F1FF382FD28D422DD9023803
:100CB0006144491B92B2B1FBF7F507FB151142EAFB
:100CC000014205FB0EF1914208D91CEB020205F12D
:100CD000FF3816D2914214D9023D6244521A45EAB5
:100CE000004139E73146304609E73946E7E6104624
:100CF000FCE6C145AAD2B8EB020E63EB0C05013845
:100D0000A4E74546EAE7034695E74046D1E7D046E3
:100D10007CE7023D624433E708460BE7644402384F
:100D200043E700BF704700BF4FF0B04382B0DA6CBA
:100D30000243DA64DB6C03400193019B02B070470D
:100D4000F0B587B01022002102A813F0F7FE0120B1
:100D5000FFF7EAFF0220FFF7E7FF274F0420FFF726
:100D6000E3FF4FF40A4680200024FFF7DDFF032550
:100D7000BE6249F6F07369464FF09040CDE9003508
:100D8000049401F0F5FC0096694601263846CDE949
:100D90000164CDE9034401F0EBFC47F236536946A8
:100DA000384607F58067CDE90035049401F0E0FC92
:100DB00042F2070369463846CDE90035049401F054
:100DC000D7FC69464FF09040CDE90054049601F0FD
:100DD000CFFC402369463846CDE90034049601F043
:100DE000C7FC0823694605480494CDE9003501F0A5
:100DF000BFFC07B0F0BD00BF00040048001C004865
:100E0000014813F0ABBD00BF5F5601080146014821
:100E100013F03EBD8656010810B50146144604483D
:100E200013F036FD21460348BDE8104013F030BDF5
:100E3000B5560108F056010808B5094813F08EFDB3
:100E4000084808F065F9014620B9BDE808400648A1
:100E500013F084BDBDE80840044813F019BD00BF7D
:100E600009570108B000002023570108385701082E
:100E7000014608B5084813F00BFD084808F0ACF827
:100E8000014620B9BDE80840054813F067BDBDE83C
:100E90000840044813F0FCBC65570108B00000206E
:100EA000895701089E57010808B513460A460146AE
:100EB000014813F0EDFCFEE7CC57010810B50846D9
:100EC0001446114600F0FEF9204610BD72B6BFF37D
:100ED0004F8F0549054BCA6802F4E0621343CB60AB
:100EE000BFF34F8F00BFFDE700ED00E00400FA05FF
:100EF0002D4A08B5136823F0070343F0020313607B
:100F0000136803F00703022BFAD1284A136823F46D
:100F1000C06343F4007313604FF0B0431A6842F4A7
:100F200000121A601A6842F480321A601A6891033B
:100F3000FCD5DA681E4911401E4A0A43DA60DA68B5
:100F400042F08052DA601A6842F080721A604FF004
:100F5000B0431A689201FCD59A6842F003029A6085
:100F60004FF0B0439A6802F00C020C2AFAD19A684A
:100F7000114822F0F0029A60D3F8082122F00F0203
:100F8000C3F808219A6822F4E0629A609A6822F411
:100F900060529A6002F072F80F2000F017FA08B160
:100FA000FFF794FF08BD00BF004000580004005840
:100FB0008C80FF1F130C0060006CDC0200B51F4D1D
:100FC0008BB000F029FAFFF793FFFFF7B9FE00F0AE
:100FD00077F91B4813F0C2FC0FCD05AC0FC42B688A
:100FE000236005A803F0B2FB20BB164813F0B6FC43
:100FF000154A0023049307CA01AC84E8070013488C
:1010000022464FF2B10107F0E7FEA8B9104813F0ED
:10101000A5FC03F01CFD0C4603F019FD2146024619
:101020000C4813F035FC0021084603F045FD03F0A1
:10103000FFFAFCE70848D9E70848E8E7B055010897
:10104000E7570108785801089075FF1FB00000208D
:10105000B3580108EF58010891580108CC5801080D
:1010600060B141B14AB10023C0E90012C0E90231C8
:10107000016101207047084670471046704700B173
:101080008068704790B1D0E901329A420FD2C368AC
:1010900019708368D0E9001201338360C3680A4481
:1010A00001339342C36000D3C16001207047002028
:1010B000704790B191B1836893B103691B780B704D
:1010C0008368D0E90012013B836003690A4401335D
:1010D0009342036100D301610120704708467047C5
:1010E000184670477047000008B5024902484B2275
:1010F000FFF7DAFE125901087559010808B50249CF
:1011000002485522FFF7D0FE125901086359010821
:1011100008B5024902486422FFF7C6FE12590108C9
:101120005159010808B5024902487322FFF7BCFE75
:10113000125901084059010808B5024902488222A3
:10114000FFF7B2FE125901082D5901087047704788
:1011500070477047704700F00700C0F10702031D99
:10116000042A28BF0422062B4FF0FF3303FA02F3B0
:101170006FEA03038CBF0338002003F0040303FA73
:1011800000F0704710B54649464890B04FF4806271
:10119000FFF766FF202200210DEB020013F0CEFCCA
:1011A0004FF0B0430024D3F888203F4822F00302D8
:1011B000C3F888201A6E42F480421A661A6E02F44E
:1011C00080420192019ADA6C42F00202DA64DB6C2E
:1011D000069403F002030093C022009B0223CDE992
:1011E000022302A907230793CDE9044401F0C0FAC2
:1011F0004FF4E133CDE909342C480894082308A9B9
:10120000CDE90B44CDE90D340F9401F0D9FE284A05
:1012100002F6080353E8003F23F0604343F0204305
:1012200002F6080040E800310029F1D102F6080377
:1012300053E8003F23F0606302F6080040E8003105
:101240000029F3D119490B6823F000530B608B6818
:1012500043F480538B608B6823F400538B604B689E
:1012600023F490434B608B6823F02A038B600B6858
:1012700043F001030B60CB699B02FCD50D4BD86892
:10128000C0F30220FFF767FF0B4B0001C0B283F8E9
:10129000240310225A60094B196010B010BD00BF22
:1012A000FC010020E8010020000400480038014053
:1012B0000030014000ED00E000E100E0FC0500200E
:1012C000FFF760BF2DE9F0410446C0B1B9B10D4F41
:1012D0000D4E4518EFF3108872B614F8011B38460E
:1012E000FFF7D0FE88F31088326852E8003F43F0E1
:1012F000800342E800310029F7D1A542EAD1BDE8D8
:10130000F08100BFE8010020FC05002013B5184C57
:101310002368DA6912060FD516480DF10701FFF7A9
:10132000C8FEB8B9226852E8003F23F0800342E8C3
:1013300000310029F7D111E0DA69D40710D4DA6955
:10134000900710D4DA6951070FD4DA69120705D56E
:10135000082206E023689DF807209A6202B010BDBB
:1013600001221A62FAE70222FBE70422F9E700BF32
:10137000FC050020E80100200D488546FFF7EAFE45
:101380000C480D490D4A002302E0D458C4500433E0
:10139000C4188C42F9D30A4A0A4C002301E01360B6
:1013A0000432A242FBD313F039FCFFF707FEFEE73D
:1013B00000000120000000208C000020C88E0108E1
:1013C0009000002010410020FEE7000038B5104CCE
:1013D000237805460BB9012038BD00F02DFF227897
:1013E0004FF47A73B3FBF2F3B0FBF3F000F094F830
:1013F00004460028EFD10F2DEDD8024629464FF0C4
:10140000FF3000F037F8034B20461D60E4E700BFD3
:10141000040000200800002010B5032000F018F898
:1014200000F00AFF064B18600F20FFF7CFFF0446BD
:1014300018B9FFF757FE204610BD0124FBE700BF97
:1014400000000020014B1868704700BF0006002014
:101450000749CA6822F4E0620302120403F4E0635D
:10146000120C134343F0BF6343F40033CB60704767
:1014700000ED00E0164B30B5DC68C4F30224C4F183
:101480000703251D042B28BF0423062D4FF0FF352D
:101490008CBF033C002405FA03F321EA0303A540B3
:1014A00022EA0502A340002843EA0203ACBF00F190
:1014B0006040084A4FEA0313B8BF00F00F00DBB2E8
:1014C000AABF00F56140135480F8003330BD00BF5F
:1014D00000ED00E014ED00E0002807DB044A4109BC
:1014E000012300F01F00834042F82130704700BF05
:1014F00000E100E000280CDB4309064900F01F0072
:1015000020330122824041F82320BFF34F8FBFF3E5
:101510006F8F704700E100E00138B0F1807F0BD29F
:101520004FF0E023054A5861F02182F82310002093
:10153000072298611A6170470120704700ED00E0B2
:10154000C368A3B1A1B1B1F5802F10D102681968A9
:10155000D1635968916399685163D96811631969B6
:10156000D1615969916199695161DB691361704772
:1015700002681968D1615968916199685161DB68A5
:10158000F4E770B506460C46FFF75CFF0546326887
:101590005368DB0701D5002070BD611CF8D0FFF750
:1015A00051FF401BA04201D8002CF0D10120F3E7ED
:1015B0002DE9F041794E04460F460FCE8CB06D46B2
:1015C0000FC50FCE0FC596E80F0085E80F00A36A80
:1015D000E56903B9AD0023681A68002D00F0CD80DD
:1015E00022F4C04242F400521A601A6815F00F0645
:1015F00042F001021A601FD04FEA15184FEA88081E
:101600000026B04523685ED8C5F3810200218A42D6
:1016100040F08B8015F0030540F0938001310429E0
:101620009D60FBD139462046FFF7ABFF23680028B9
:1016300000F09E801A6833E0AD08B54203D8002060
:101640000CB0BDE8F081A38FA16922689BB220464F
:1016500051F823309360A38F01339BB2A387A38FEC
:101660009BB251F823309360A38F01339BB2A387C1
:10167000A38F9BB251F823309360A38F01339BB2A9
:10168000A387A38F9BB251F823309360A38F0133BC
:101690009BB2A3873946FFF774FF23681A6868B1C5
:1016A00022F001021A60636D43F0100363650120AC
:1016B000002384F8510084F85030C1E742F08002E2
:1016C0001A600436B9E7A28FA16992B2204651F898
:1016D00022209A60A28F013292B2A287A28F92B288
:1016E00051F822209A60A28F013292B2A287A28F73
:1016F00092B251F822209A60A28F013292B2A28750
:10170000A28F92B251F822209A60A38F01339BB22C
:10171000A3873946FFF735FF23681A680028BFD131
:1017200042F080021A6004366BE7A08FA66980B28F
:10173000013156F820009860A08F013080B2A08758
:1017400065E7A18FA06989B2013250F82110606865
:1017500005EB40050CA800EB850555F8300C014061
:1017600099600021042A3FF45DAF99600132F9E7E6
:101770001A6842F080021A6062E7616822F006028D
:101780000A431A601A6822F4C04242F400521A60F6
:101790001A6842F001021A60284651E7C455010850
:1017A00010B50446E8B190F8513003F0FF021BB9C0
:1017B00080F8502001F0A0FDD4E9013021680A68CA
:1017C0000343606922F4A022034322F0660213431C
:1017D0000B60002001236065A06584F851306364CC
:1017E00010BD0120FCE738B50546012480B1026830
:1017F00044640024C487A0F840408487136823F021
:101800000103136001F098FD85F8514085F85040C0
:10181000204638BD70477FB5C38F456B02689BB2C9
:10182000044655F823309360C38F01339BB2C387BE
:10183000C38F9BB255F823309360C38F01339BB2A3
:10184000C387C38F9BB255F823309360C38F013396
:101850009BB2C387C38F9BB255F823309360C38F6D
:1018600001339BB2C387FFF78CFE88B122681368EF
:1018700023F001031360636D43F0100363650123DC
:1018800084F85130002384F850302046FFF7C2FF1F
:1018900023681A6842F080021A60DA680092DA68F7
:1018A0000192DA68DB680393B4F8423002920333A2
:1018B0009B0868460021B4F8402092B29A4201D2B7
:1018C000042901D104B070BDB4F84020A56B50F8D4
:1018D000046B92B2013145F82260B4F84020013225
:1018E00092B2A4F84020E6E72DE9FF41C36AB0F8C0
:1018F0004250012B04460E461FD1826D012A1BD196
:10190000C36D2B44C365B4F84230AD08180718BF47
:1019100025F00305FFF796FD0746E28FB4F8403047
:1019200092B295429BB201D99D424BD8B4F8425035
:101930002A0764D1002028E083652768A168E5654F
:101940004FF00008A4F83C803B6823F4C0433B60A0
:101950002046FFF7F5FD236A1A68FA625A68BA62F0
:101960009A687A62DB683B623B6843F001033B6044
:101970003146FFF706FE58B1636D84F8508043F09E
:1019800010030120636584F8510004B0BDE8F081C4
:101990002268136843F08003136031462046FFF746
:1019A00007FE002840F087802268022363641368E2
:1019B00023F4C04343F480431360136823F470039B
:1019C0001360A0E731462046FFF725FF711CA4D025
:1019D000FFF738FDC01BB04201D8002E9DD1226810
:1019E000136823F001031360636D43F01003636514
:1019F0000120002384F8510084F85030C5E72268A4
:101A0000116801F01801102908BF11684FEA151379
:101A100003F1010308BF21F470014FEA0310C5EB85
:101A2000031305F1100508BF41EA0351A5EB0005BA
:101A300008BF1160AD089B0718BF01350021A942FE
:101A40002AD12B460021032B32D931462046FFF7FD
:101A500098FD0028C8D123681A6842F080021A60F5
:101A6000DA680092DA680192DA68DB68029203931E
:101A70006A46A8423FF45EAFB4F84030A16B52F81A
:101A8000046B9BB2013041F82360B4F8403001335D
:101A90009BB2A4F84030ECE7E38F606B9BB201315E
:101AA00050F823309360E38F01339BB2E387C6E79E
:101AB00091600133C7E7012067E72DE9FF41C36A61
:101AC000B0F84250012B04460E461FD1826D012A08
:101AD0001BD1C36D2B44C365B4F84230AD08180761
:101AE00018BF25F00305FFF7ADFC0746E28FB4F8F9
:101AF000403092B295429BB201D99D424BD8B4F886
:101B000042502A0764D1002028E083652768A16835
:101B1000E5654FF00008A4F83C803B6823F4C0431F
:101B20003B602046FFF70CFD23691A68FA625A6889
:101B3000BA629A687A62DB683B623B6843F00103F1
:101B40003B603146FFF71DFD58B1636D84F850804E
:101B500043F010030120636584F8510004B0BDE830
:101B6000F0812268136843F08003136031462046F9
:101B7000FFF71EFD002840F08F8022680223636477
:101B8000136823F4C04343F480431360136823F4C1
:101B900070031360A0E731462046FFF73CFE711C3E
:101BA000A4D0FFF74FFCC01BB04201D8002E9DD13E
:101BB0002268136823F001031360636D43F0100380
:101BC00063650120002384F8510084F85030C5E794
:101BD0002268116811F0180F08BF11684FEA151339
:101BE00003F1010308BF21F470014FEA0310C5EBB4
:101BF000031305F1100508BF41EA0351A5EB0005E9
:101C000008BF1160AD089B0718BF01350021A9422C
:101C100033D12B460021032B3BD931462046FFF719
:101C2000B0FC40B1012384F85130002384F85030D7
:101C30002046FFF7EFFD23681A6842F080021A6021
:101C4000DA680092DA680192DA68DB68029203933C
:101C500069460022AA423FF456AFB4F84030A06B68
:101C600051F8046B9BB2013240F82360B4F8403065
:101C700001339BB2A4F84030ECE7E38F606B9BB27A
:101C8000013150F823309360E38F01339BB2E38737
:101C9000BDE791600133BEE701205FE7F8B590F83A
:101CA0005150069E012D0446E8B240F0818094F820
:101CB00050700225012F84F851507FD0C4E90D13D4
:101CC000636A84F850000025E587A4F840500BB9FA
:101CD000920092B22568A4F842202B6823F01803E2
:101CE0002B602A68364B1340602B5AD009D8402B02
:101CF0000FD0344B134063B1636D43F02003636531
:101D0000F8BDB3F5803FF7D131462046FFF7ECFD33
:101D10004BE0E36A012B01D0042B04D1A26D012A10
:101D200033D00123A365A1682046FFF709FC63694E
:101D300043B123691A68EA625A68AA629A686A62B9
:101D4000DB682B62022363642B6843F001032B6082
:101D5000E28FB4F84210B4F8403092B2B2EB910F77
:101D60009BB24FEA910001D2984215D822681368BD
:101D700023F001031360012384F851300123002074
:101D800084F8513084F85000BAE7042BDAD1A16806
:101D90002046FFF7D5FBD5E731462046FFF73BFD50
:101DA000D6E731462046FFF788FE0028A8D1E5E7B0
:101DB000636D43F0080363650120A1E728469FE7B0
:101DC00060000100400001002DE9F843044690F84E
:101DD0005100089F0128C5B240F0018194F850607D
:101DE0000220012E84F8510000F0FF80C4E90D1399
:101DF000636A84F850500020E087A4F840000BB9D3
:101E0000920092B22668A4F84220336823F01803A7
:101E100043F0100333603268754B1340602B00F0C1
:101E2000D58009D8402B0FD0724B134063B1636D3E
:101E300043F0200363653DE0B3F5803FF7D13946B9
:101E40002046FFF751FDC5E0E36A012B01D0042BCA
:101E500006D1D4F85890B9F1010F2ED00123A36513
:101E60006369A168402B00F0888094F83080B8F155
:101E7000000F7AD1336823F0180343F0080333606E
:101E80002046FFF75DFB336843F0010333603946BA
:101E9000FFF777FB23681A68002837D022F0010289
:101EA0001A60636D43F010036365012384F85130B9
:101EB00084F850802846BDE8F883042B31D163694B
:101EC000A168402B79D094F83080B8F1000F6CD124
:101ED000336823F0180343F0080333602046FFF70C
:101EE0002FFB336843F0010333603946FFF749FBAA
:101EF00023681A6800284ED022F001021A60636D30
:101F000043F01003636584F85190D1E742F08002FA
:101F10001A601A6822F0180242F010021A6063690F
:101F200073BB226802236364136843F001031360E8
:101F3000E28FB4F84210B4F8403092B2B2EB910F95
:101F40009BB24FEA910001D298423AD822681368B6
:101F500023F001031360012384F85130012300258D
:101F600084F8513084F85050A4E72046FFF7E8FA8F
:101F7000336843F018033360D1E72046FFF7E0FAF7
:101F8000226923681168D96251689962916859621F
:101F9000D2681A62C5E742F080021A601A6822F01D
:101FA000180242F010021A60BBE72046FFF7C8FA99
:101FB000336843F018033360B3E72046FFF7C0FAF5
:101FC000AFE739462046FFF726FCB1E73946204601
:101FD000FFF773FD054600287FF46CAFBEE7636D25
:101FE00043F008036365012564E7054662E700BF27
:101FF00060000100400001002DE9F04F524C002329
:102000004FF00F090A6832FA03F501D1BDE8F08FED
:10201000012505FA03F818EA020200F08E804E68E6
:10202000032706F003054FEA430E07FA0EFC6F1E66
:10203000012F6FEA0C0C32D8876807EA0C0ACF68C8
:1020400007FA0EF747EA0A078760476827EA080891
:10205000C6F300179F4047EA08074760C76807EACA
:102060000C088F6807FA0EF747EA0807022DC760C9
:1020700017D14FEAD30800EB880803F0070AD8F815
:1020800020704FEA8A0A09FA0AFB27EA0B0B0F694C
:1020900007FA0AF747EA0B07C8F8207001E0032D9A
:1020A000DCD1076805FA0EF507EA0C073D4316F484
:1020B000403F056041D023F0030707F1804707F553
:1020C000803703F0030CBD684FEA8C0C4FF0070E0D
:1020D0000EFA0CFEB0F1904F25EA0E0E2FD01B4DDC
:1020E000A8422ED005F58065A8420CBF0225072521
:1020F00005FA0CF545EA0E05BD602568D74316F4D0
:10210000801F0CBF3D4015432560656816F4001F15
:102110000CBF3D4015436560D4F8805016F4803FF5
:102120000CBF3D401543C4F88050D4F88450B6032A
:1021300054BF3D401543C4F88450013362E7002585
:10214000D6E70125D4E700BF000800580004004886
:102150000AB1816170478162704700004FF0B0435F
:1021600010B59A68D96812F00C0205D00C2A4AD131
:1021700001F00303012B50D14FF0B0412B480B6805
:1021800013F0080306D00B6813F0080337D1D1F819
:10219000941007E00C68240756BFD1F89430096802
:1021A000C3F3032350F82330002A0CBF1846002045
:1021B0004FF0B0418A6802F00C020C2A1ED1CA68A6
:1021C00002F00302022A2ED0032A06D10B68184A15
:1021D00013F4801F174B18BF13464FF0B042D0685E
:1021E000D168D268C0F306205843C1F3021301330B
:1021F000B0FBF3F0530F0133B0FBF3F010BD0B68ED
:10220000C3F30313CEE7042A0AD0082A05D11B68BA
:1022100013F4801304D10748CAE700231846C7E720
:1022200003480023C4E7024BD7E700BFE459010885
:102230000024F4000048E80108B5FFF78FFF4FF0D5
:10224000B043044A9B68C3F3031352F82330B0FB36
:10225000F3F008BD84590108034AD2F8903043F4E2
:102260000043C2F89030704700040058034AD2F887
:10227000903023F40043C2F89030704700040058B7
:1022800070470000074B1A6822F040021A6040F4C1
:1022900041704FF4B85218605A601A6842F0400218
:1022A0001A6070470000015837B5054600284ED027
:1022B000837903F0FF046BB1032C0BD0254B4FF453
:1022C00000629A612868FFF7DDFF002401232B716B
:1022D000AC602FE000236B712846FFF7D1FF1E4A48
:1022E000D2F8903043F48053C2F89030002CE5D1FE
:1022F00002234FF0B042AB71D2F8943023F4004384
:10230000C2F89430154B1B681C214B43DB0C642135
:102310004B430193019B93B90124AC60FFF79CFFF1
:102320000C4B9A6842F400629A604FF400629A6122
:10233000002CC7D00123AB71204603B030BD019BF8
:10234000013B0193D2F894305B04E3D4E6E7012427
:10235000F2E700BF00040058000800580000002009
:1023600037B5174D2B6802461C204343DB0C642015
:10237000434314480193019B93B901209060114C91
:1023800021732B681C214B43DB0C64214B430193CD
:10239000019B6BB9012090600A4BDB6803B030BD34
:1023A000019B013B019383689C07E4D50020E6E78D
:1023B000019B013B0193A368DB07E9D5ECE700BF74
:1023C000000000200000015837B5184D2B68024668
:1023D0001C204343DB0C6420434315480193019BBD
:1023E000A3B901209060124CFF2323732B681C2596
:1023F0006B43DB0C64256B430193019B73B9012094
:1024000090600B4BDB680B7003B030BD019B013B50
:10241000019383689C07E2D50020E4E7019B013B20
:102420000193A368DB07E8D5EBE700BF00000020BD
:10243000000001580F4B13B51B680F4C1822534373
:102440001B0D64225343014601936269019B02F014
:10245000040223B902238B60012002B010BD019B4E
:10246000013B0193606910F00200F6D0002AECD124
:102470001046F2E7000000200004005807B5037979
:10248000012B0FD10A4B1B68182253431B0C0193DD
:10249000FFF7ECFE019B013B0193019B002BF9D15F
:1024A000FFF7DAFE03B05DF804EBFFF7C3BF00BF30
:1024B00000000020F8B51E468379012B154604461E
:1024C0000F46DAB22DD14379012B2AD00223427173
:1024D0008371FFF7D3FF0D212046FFF7C7FEFFF7FB
:1024E0003FFF390A2046FFF73BFFF9B22046FFF7CE
:1024F00037FF2E44B5420ED12046FFF7ADFEFFF761
:1025000099FFA06801230038A3714FF0000318BFA2
:1025100001206371F8BD15F8011B2046FFF720FF6D
:10252000E8E70220F6E7F8B51E468379012B154649
:1025300004460F46DAB22FD14379012B2CD04271D9
:10254000FFF79CFF1D212046FFF790FEFFF708FFD5
:10255000390A2046FFF704FFF9B22046FFF700FFD3
:1025600000212046FFF7FCFE2E44B5420ED1204646
:10257000FFF772FEFFF75EFFA06801230038A3712A
:102580004FF0000318BF01206371F8BD29462046B3
:10259000FFF71AFF0135E8E70220F6E7F8B51F4616
:1025A0008379012B154604460E46DAB22CD14379C5
:1025B000012B29D04271FFF761FF06F0EF03A3F171
:1025C000840253425341237131462046FFF74EFEA9
:1025D000FFF7C6FE2F44AF4210D1FFF73DFE842E19
:1025E00002D02046FFF726FFA06801230038A37120
:1025F0004FF0000318BF01206371F8BD15F8011BEF
:102600002046FFF7ADFEE6E70220F6E7F8B51E46E6
:102610008379012B154604460F46DAB227D1437958
:10262000012B24D04271FFF729FF39462046FFF7DE
:102630001DFEFFF795FE00212046FFF791FE2E4478
:10264000B5420ED12046FFF707FEFFF7F3FEA06864
:1026500001230038A3714FF0000318BF01206371FC
:10266000F8BD29462046FFF7AFFE0135E8E7022016
:10267000F6E7F8B51E468379012B154604460F464A
:10268000DAB227D14379012B24D04271FFF7F6FE4D
:102690000E212046FFF7EAFDFFF762FE394620468D
:1026A000FFF75EFE2E44B5420ED12046FFF7D4FD63
:1026B000FFF7C0FEA06801230038A3714FF00003AC
:1026C00018BF01206371F8BD15F8011B2046FFF704
:1026D00047FEE8E70220F6E7F8B51E468379012BAE
:1026E000154604460F46DAB22BD14379012B28D088
:1026F0004271FFF7C3FE1E212046FFF7B7FDFFF72B
:102700002FFE39462046FFF72BFE00212046FFF71B
:1027100027FE2E44B5420ED12046FFF79DFDFFF760
:1027200089FEA06801230038A3714FF0000318BF91
:1027300001206371F8BD29462046FFF745FE0135AB
:10274000E8E70220F6E730B5046891FAA1F3B3FA9E
:1027500083F303255B0005FA03F324EA030391FAEC
:10276000A1F1B1FA81F149008A401A43026030BDFB
:102770002DE9F84F0E460F6897FAA7F54FF0010BB9
:10278000B5FA85F54FF0030A4FF00F0837FA05F355
:1027900002D10120BDE8F88F0BFA05F43C4053D07C
:1027A000D6F8049021464A46FFF7CDFF09F1FF33E2
:1027B000012B19D8B368816894FAA4F2B2FA82F2B4
:1027C00052000AFA02F221EA020294FAA4F1B1FAE2
:1027D00081F149008B40134383604268F36822EA29
:1027E00004026343134343603369C16894FAA4F25B
:1027F000B2FA82F252000AFA02F221EA020294FAD2
:10280000A4F1B1FA81F149008B401343B9F1020FF1
:10281000C36015D1FF2C716918D8026A94FAA4F329
:10282000B3FA83F39B0008FA03F322EA030294FA53
:10283000A4F3B3FA83F39B0001FA03F31343036297
:102840004A462146FFF77FFF01359FE7426A230A88
:1028500093FAA3FCBCFA8CFC4FEA8C0C08FA0CFC33
:1028600022EA0C0293FAA3F3B3FA83F39B00994094
:1028700011434162E4E700002DE9F041076817F0D9
:1028800001070546884647D1D8F81020D8F8083007
:1028900001681343D8F814201343204A0A40134315
:1028A00003604368D8F80C2023F44053134343607B
:1028B0008368D8F8182023F44073134383604FF4DF
:1028C000406000F083F9D8F80060044610B3D8F8EF
:1028D0000440FCB1B3B2124A394632F813203B46E9
:1028E000FEF7A4F8090241EA106163080002C0186B
:1028F00022463B4641F10001FEF798F8C0F3130071
:10290000E8600120EB6AB6B223F00F031E43EE62CB
:10291000BDE8F0812046F5E70020F9E7F3E9FFEF95
:10292000245A01084FF0B0431868C0F300507047B4
:102930004FF0B0431868C0F3802070474FF0B043A9
:10294000D3F89000C0F3400070474FF0B0431868D0
:10295000C0F3C000704700004FF0B043044A9B68CA
:10296000C3F3031352F82330B0FBF3F0704700BFFA
:10297000845901084FF0B043034A9B68C3F3022314
:1029800052F82330D8407047C45901084FF0B04284
:1029900038B5916801F00C01082950D017D889B3D7
:1029A000042900F08C80FFF7D0FF4649024600283A
:1029B00076D1FFF7CAFF4FF0B043012816BFD3F816
:1029C00094201B68C2F3032251F822002AE00C294C
:1029D000E9D1D36803F00303022B5FD0032B37D078
:1029E000FFF7B3FF374C014600284AD1FFF7ADFF90
:1029F000012816BFD2F894101368C1F3032154F8CC
:102A000021302CE0FFF7A1FF2E4D044658B9FFF707
:102A10009CFF012816BFD2F894401368C4F3032426
:102A200055F8240038BDFFF790FF01280ABF116850
:102A3000D2F89430C1F3031155F82100F2E7FFF703
:102A400071FF214B01462148012908BF1846E9E7DB
:102A5000FFF768FF1D4A1C4B012818BF13464FF0B3
:102A6000B042D068D168D268C0F306205843C1F3A1
:102A700002130133B0FBF3F0530F0133B0FBF3F05B
:102A8000D0E7FFF762FF01280BBF1368D2F894303C
:102A9000C3F30313002354F82330E0E70A4BDEE7C7
:102AA000FFF753FF4FF0B04301280BBF1B68D3F86B
:102AB0009430C3F30313002351F82300B2E7024814
:102AC000B0E700BFE45901080024F4000048E80121
:102AD00070B50446FFF75AFF20600146FFF73CFF40
:102AE0004FF0B0466060D6F808310F4AC3F30313C5
:102AF000054652F82330B1FBF3F3A360D6F8083152
:102B000003F00F0352F82330B1FBF3F1E160FFF75C
:102B100031FF2061B368054AC3F3C22352F8233062
:102B2000DD40656170BD00BF84590108C4590108CA
:102B300010B54FF0B0440328D4F888302AD11F4A8A
:102B400003F0030343F44033934209D0B3F1031F6E
:102B50000DD0013A934211D1BDE81040FFF716BFE6
:102B6000FFF7E6FE0128164818BF002010BDFFF74A
:102B7000E5FE431E58425841C003F7E7FFF706FF42
:102B8000FFF7EAFEA3680F4AC3F3C22352F82330CB
:102B9000D840EBE7034043EA00400B4B9842DFD0BC
:102BA000B0F10C1FE3D0043B9842D5D0FFF7EEFE06
:102BB000FFF7D2FEBDE81040FFF7DCBE02000300C5
:102BC0000024F400C459010808000C0008B54FF0B7
:102BD000B043D3F888301840B0F5006F09D0B0F595
:102BE000406F0DD0B0F5806F11D1BDE80840FFF700
:102BF000CDBEFFF79DFE0128094818BF002008BD83
:102C0000FFF79CFE431E58425841C003F7E7FFF709
:102C1000BDFEFFF7A1FEBDE80840FFF7ABBE00BF59
:102C20000024F4001C4B98420AD14FF0B0431A6CB8
:102C300042F400621A641A6C22F400621A640CE016
:102C4000B0F1804F0BD14FF0B0439A6B42F00102CC
:102C50009A639A6B22F001029A63012070470F4B2E
:102C6000984209D14FF0B0431A6C42F400321A6412
:102C70001A6C22F40032E1E7094B984209D14FF077
:102C8000B0431A6C42F480221A641A6C22F4802237
:102C9000D4E70020704700BF002C014000440140F1
:102CA000004801401A4A0368904210B502D0B0F1C2
:102CB000804F09D14C6823F07003904243EA04032B
:102CC00009D0B0F1804F06D0124A904203D002F5ED
:102CD0008062904203D1CA6823F4407313430360B7
:102CE0008B68C3620B888362094B984207D003F557
:102CF000C053984203D003F58063984201D10B6919
:102D00000363436943F001034361012010BD00BF29
:102D1000002C014000440140B1F5805F30B500F067
:102D2000F08009D8102975D0B1F5807F00F0AE8011
:102D3000012935D0002030BDB1F5803F00F00E8173
:102D4000B1F5801FF6D1036A146823F4801303627F
:102D5000036A416D21F0807121F4E04141EA0424CD
:102D6000116923F4001343EA0153516823F48013DB
:102D700043EA01539149884207D001F5C051884286
:102D800003D001F58061884206D14168956921F43C
:102D9000802141EA85214160D2684465C26536E000
:102DA000036A156823F001030362036A41688469BA
:102DB00024F4803424F073042C43156923F00203B7
:102DC0002B43556823F001032B437C4DA84207D0C9
:102DD00005F5C055A84203D005F58065A84212D17B
:102DE000556923F0080343EA8503956823F004033B
:102DF00043EA8503956921F480712943D56921F45B
:102E0000007141EA4501D268416084614263036216
:102E1000012090E7036A156823F010030362036A38
:102E20004168846924F0807424F4E64444EA05246B
:102E3000156923F0200343EA0513556823F01003B6
:102E400043EA05135D4DA84207D005F5C055A842D9
:102E500003D005F58065A84213D1556923F080039E
:102E600043EA8513956823F0400343EA8513956987
:102E700021F4806141EA8501D56921F4006141EACC
:102E8000C501D268416084618263C0E7036A156846
:102E900023F480730362036A4168C46924F48034B4
:102EA00024F073042C43156923F4007343EA0523CB
:102EB000556823F4807343EA0523404DA84207D0A8
:102EC00005F5C055A84203D005F58065A84213D189
:102ED000556923F4006343EA8523956823F48063EE
:102EE00043EA8523956921F4805141EA0511D569AA
:102EF00021F4005141EA4511D2684160C461C263C6
:102F000085E7036A156823F480530362036A446803
:102F1000C16921F0807121F4E64141EA052115697A
:102F200023F4005343EA0533556823F4805343EAFE
:102F30000533224DA84207D005F5C055A84203D05D
:102F400005F58065A84204D1956924F4804444EADB
:102F50008514D2684460C161026458E7036A14684A
:102F600023F480330362036A416D21F4803121F040
:102F700070010C43116923F4003343EA01435168A3
:102F800023F4803343EA01430C49884207D001F51A
:102F9000C051884203D001F58061884206D1416862
:102FA000956921F4803141EA052141604465816DD4
:102FB000D268090C09041143816528E7002C0140FF
:102FC00038B50368DB0704460D464DD42A69AB6863
:102FD000016813436A691343EA691343234A0A40A9
:102FE000134303604368EA6823F440531343436088
:102FF0008368AA6923F44073134383601C4B98428F
:1030000020D10320FFF794FD2B68F0B16A68E2B18C
:103010000B2B15D8174951F82330E969B0FBF3F0B1
:10302000B1F5004F4FEA520319D103EB4003B3FB54
:10303000F2F34FF6F0721A40C3F342031343E36016
:10304000012003E00C4B984207D00020E26A2B8855
:1030500022F00F021343E36238BD0C20D2E7034491
:10306000B3FBF2F39BB2EAE70020F5E7F369FFEF69
:10307000003801403C5A010800440040014B1860F0
:10308000704700BF000000200020704708B50328EB
:103090002ED8DFE800F002131A2600221548082176
:1030A000FFF756F8002213481021FFF751F80022CD
:1030B000BDE808400F482021FFF74AB801220D481B
:1030C0000821FFF745F80122EDE701220948082110
:1030D000FFF73EF8012207481021FFF739F80122D7
:1030E000E6E7012203480821FFF732F80022F2E761
:1030F00008BD00BF0008004830B589B04FF0B043AC
:1031000000240794DA6C174D42F00402DA64DA6C9A
:1031100002F004020292029ADA6C42F00402DA64CB
:10312000DB6C059403F0040301931022019B01233F
:10313000CDE9032303A9032328460693FEF75CFF8A
:10314000202303A928460393FEF756FF082303A96B
:1031500028460393FEF750FF2046FFF797FF09B07C
:1031600030BD00BF0008004802207047404B30B51A
:103170001860404B19604FF0B04391B0D3F88820ED
:1031800022F44062C3F88820DA6D42F00102DA6569
:10319000DA6D02F001020292029ADA6C42F0010248
:1031A000DA64DB6C03F0010301930C25019B02231D
:1031B0000024CDE903530DEB050108234FF09040A7
:1031C0000893CDE905440794FFF7D2FA1C22214663
:1031D00009A811F0B3FC4FF4E13327480A9309A979
:1031E0000E95FFF749FB244B03F1080252E8002F2C
:1031F00022F0604242F0204203F1080040E8002142
:103200000029F1D103F1080252E8002F22F0606298
:1032100042F0206203F1080040E800210029F1D1CA
:103220009A6822F480529A609A6842F400529A6036
:103230001A6842F001021A60104BDB68104B402202
:1032400083F82613C3F884215A600B4A52E8003FE2
:1032500043F0200342E800310029F7D152E8003F53
:1032600043F0400342E800310029F7D111B030BDEE
:103270000C060020080600200080004000ED00E061
:1032800000E100E0014B9862704700BF0080004001
:10329000014B586AC0B2704700800040124BDA6997
:1032A000900604D5114B124A1B6810681847DA695A
:1032B00051060CD4DA69D2070DD4DA6990070DD41F
:1032C000DA6951070CD4DA6912070BD4704740222F
:1032D0001A62084BE7E701221A6270470222FBE7F5
:1032E0000422F9E70822F7E70080004008060020E2
:1032F000040600200C06002007B50E4B02689A4217
:1033000015D14FF0B04333201A6D42F400321A65E4
:103310001B6D002203F4003301931146019BFEF75D
:10332000A9F8332003B05DF804EBFEF7D5B803B07D
:103330005DF804FB001800580268064B9A4208D159
:103340004FF0B0423320136D23F400331365FEF7C2
:10335000D1B870470018005810B50B4A0B4C042325
:10336000C4E900230A4A0023C4E9032320460122BA
:10337000C4E90922A3606361E362FEF734FA2046E0
:10338000BDE81040FEF70CBA0018005820060020D7
:103390001006002043780178154A1B0403EB0163F3
:1033A000C1780B44817803EB0123136043790179E1
:1033B0001B0403EB0163C1790B44817903EB012307
:1033C0005360437A017A1B0403EB0163C17A0B4417
:1033D000817A03EB01239360437B017B1B0403EBA6
:1033E0000163C17B0B44817B03EB0123D3607047F6
:1033F0001006002070B58AB00446034602AD00F105
:103400001006186859682A4603C20833B3421546A5
:10341000F7D142F210730093102206AB084802A9BC
:10342000FEF73CFC0AAD06AA2346144603CCAC4288
:1034300018605960224603F10803F6D10AB070BD46
:103440002006002070B58AB00446034602AD00F1A4
:103450001006186859682A4603C20833B342154655
:10346000F7D142F210730093102206AB084802A96C
:10347000FEF7AAFC0AAD06AA2346144603CCAC42CA
:1034800018605960224603F10803F6D10AB070BDF6
:103490002006002010B5044600F05AF9084B1A78AF
:1034A0003AB108482146FDF7EDFDBDE8104000F0B7
:1034B0005FB9012220461A70FFF7E4FEF5E700BF6E
:1034C000100A0020140B002007B500F041F909484C
:1034D0000DF10701FDF7EDFD40B19DF80700FFF785
:1034E000D1FE00F045F903B05DF804FB024B187003
:1034F000F7E700BF140B0020100A002010B5FFF7FB
:10350000C7FE044600F024F921460348FDF7BAFD42
:10351000BDE8104000F02CB9FC090020A0F17D03AB
:10352000012B10B5044604D87D20FFF7B3FF84F0CB
:103530002000BDE81040FFF7ADBF00004140C9B218
:10354000024B33F8113083EA10207047745A010897
:1035500008B50A490A484FF40072FDF781FD094990
:1035600009484FF48072FDF77BFD084B0849094874
:1035700000221A70BDE80840FFF7F8BDF9070020E7
:10358000FC090020120A0020140B0020100A002061
:10359000FD340008C934000870B505467E200E468B
:1035A000FFF778FF2E444FF6FF74B5420CD1E0438D
:1035B00084B2C0B2FFF7B2FF200AFFF7AFFFBDE849
:1035C00070407E20FFF766BF15F8012B204611469C
:1035D000FFF7B4FF04461046FFF7A0FFE5E7000041
:1035E0002DE9F347DFF81891DFF8188106460F46FA
:1035F00000254846FDF743FD0446002867D055B333
:10360000DFF80481D8F80040002C62D0DFF8FCA07D
:103610004FF000094FF6FF705246A51E4D455CD88D
:10362000C343505D99B2DBB29842364B62D122441B
:1036300012F8012CB2EB112F5CD101220024BD4203
:103640001A70C8F800404FD830492A46304611F069
:1036500014FB2C463DE000F07BF80DF107014846D5
:10366000FDF727FD00F084F898F800109DF807306A
:10367000274849B97E2B05D1012288F80020224A2B
:10368000002111600370B4E77E2B1F4A09D1047832
:103690007E2C1AD0126888F80050022AECD90D4608
:1036A000F0E71168C7290ED87D2BEBD0047801F123
:1036B000010C7D2C154CC2F800C00ABF83F020021B
:1036C00063546254DEE788F800501560DAE7002D95
:1036D00096D1204602B0BDE8F0871AF8011BFFF72B
:1036E0002DFF09F1010999E708493A46304611F0E2
:1036F000C4FAEEE7012200241A70C8F80040E8E797
:10370000FC090020F8070020F40700202C07002007
:10371000110A002082B000230A4A0193019B9342C0
:103720000CDDBFF34F8F0849084BCA6802F4E06212
:103730001343CB60BFF34F8F00BFFDE7019B013305
:103740000193EBE73F420F0000ED00E00400FA05B3
:10375000EFF3108172B6044B1A680AB9034A11607C
:103760001A6801321A607047280B00202C0B0020C9
:10377000074B1A68013A1A601A68002ABCBF002277
:103780001A601B681BB9034B1B6803B962B670470C
:10379000280B00202C0B0020014BD3E9200170479F
:1037A0000075FF1F024BC3E900019A60704700BF1C
:1037B000300B002008B500F0A5FA012000F08CFACB
:1037C000002008BD70B524228AB000214B4811F0BA
:1037D000B5F94FF0B0434A485A6E42F001025A66BA
:1037E0005A6E02F001020092009A5A6C42F00102F5
:1037F0005A645A6C22F001025A6400230360FEF7F7
:1038000053FD044600B1FEE700F07EFC3D4BDB6853
:10381000C3F30223C3F10702042A03F1040128BF02
:103820000422062988BFDC1E4FF0FF339340DB43A0
:1038300003F00303A340344A1B01DBB282F83233A6
:103840004FF48023536000F0A1FA0021084600F0F5
:1038500053FB04220021012000F094FC0B210023E3
:103860001A46084600F000FB00250020234C00F01B
:1038700081FA2846257300F09DFB44F6906301A869
:10388000CDE9013500F0ECFC8DF80C504CF25033D2
:103890008DF818501D491E4D0493012244F62066F0
:1038A000002351F83300281A82421ED901EBC301CC
:1038B0000B798DF8193003A843F2D403059300F077
:1038C0008FFB144B23614FF2C0234025A382124883
:1038D000E5810123A37500F0F1FC284600F0B8FA59
:1038E000FFF768FF00200AB070BD0133162BD8D156
:1038F0000132B242D4D11F23DBE700BF300B0020DE
:10390000540B002000ED00E000E100E00C5D010838
:10391000A0860100051000013C0B0020F8B50F4601
:103920001C4640F2012100230646154608461A4669
:1039300000F09AFAFFF7A8FB384440B200F084FD8B
:10394000012100F06BFD094B094800FB063000F037
:10395000B5FA0848E4B204750C3000F0AFFC22461A
:103960002946002000F04AFD0020F8BD60DC7133DC
:10397000A0860100300B002010B500F085F9044648
:10398000002000F0CBF9044A13681BB1906804F1E1
:10399000C8019847002010BD300B002038B50546FF
:1039A00009480024C023037504840C3000F086FC11
:1039B0002146204600F032FD044B054800FB05304F
:1039C00000F07CFA204638BD300B002060DC7133FB
:1039D000A086010008B54A21002308461A4600F0D7
:1039E00043FA6FF07F4000F0AFF9002008BD0000FF
:1039F0002DE9F04FDFF8888098F8205087B0044612
:103A00008B461746002D36D001A800F083FA00221D
:103A10000DF102010DF1030098F821608DF80220EC
:103A20008DF803209DF808909DF909A000F0ECFBAB
:103A30009DF803309DF80200C02B92BF1946C021AB
:103A40000026BB4282BFF9B200221646002B0A466E
:103A500059461D4608BF002600F0D8FC0023A8F8F0
:103A60002030204684F800A084F80190A67065609C
:103A700007B0BDE8F08F2E46A9466FF07F0AF0E749
:103A8000300B0020004870470C00002037B500F0D4
:103A9000FBF8022301AA122105462348FEF7B6FDD2
:103AA000BDF804402048022364BA01AAA4B2194612
:103AB000FEF774FD220707D51C4A136823B1A5F24F
:103AC000A465906829469847E30705D5174A5368C7
:103AD00013B190682946984714F0420F22D0134B37
:103AE00093F82020F2B9012284F0400483F82020CA
:103AF0005A68C4F3801483F821401AB19868A5F17C
:103B000046019047002140F6021000F043FA40F6CB
:103B1000441000F0D3FA40F00201C9B240F644105C
:103B200000F038FA03B030BD540B0020300B0020F9
:103B300000F030BC30B5054695B04FF080400C46E3
:103B4000FFF770F8374B1D60374B1C604FF0B043E8
:103B50009A6D42F001029A659B6D03F00103009398
:103B6000009B324BDA68C2F30222C2F10703111D37
:103B7000042B28BF042306294FF0FF318CBF033AE2
:103B8000002201FA03F3DB43914003F00303C9432E
:103B9000934001F001010B43254A1B01DBB282F87F
:103BA0001B334FF00063136006A84FF08044FEF70C
:103BB0008FFF069B1F4AB3FBF2F3013B0025ADF8D4
:103BC000043001A96FF060434FF08040CDE902530B
:103BD000CDE90455FFF766F8236823F080032360DE
:103BE000A36823F4A03323F00703A360294620220F
:103BF0000CA810F0A3FF0CAA01212046FFF78CF8B7
:103C0000A36923F00403A361636823F07003636076
:103C1000A36823F08003A360236843F001032360BB
:103C200015B030BD600B0020640B002000ED00E0FB
:103C300000E100E048E8010010B50446FFF788FD08
:103C40004FF080434FF000605A6AD96841F002019A
:103C5000D9606FF0020119610A49A4EBC202C1F8F0
:103C60008001143A6FF000418A422BBF5A69E40880
:103C700042F002025C6328BF5A61BDE81040FFF7C2
:103C800077BD00BF00E100E04FF08043586AC000FC
:103C900070476FF0004070474FF080431A699207F9
:103CA0000CD56FF002021A61DA6822F00202DA60C3
:103CB000034B1B6813B1034A10681847704700BFD5
:103CC000600B0020640B002013460A4601460148A1
:103CD000FEF764BC540B002007B501228DF80700E5
:103CE0000DF107018020FFF7EFFF9DF80730002B53
:103CF000034B0CBF012202221A7003B05DF804FBD3
:103D00006E0B0020002208B51146C120FFF7DCFF32
:103D1000014B03221A7008BD6E0B002007B5094B3A
:103D20008DF8060004221A70030C8DF8043003226B
:103D3000030A01A983208DF80530FFF7C5FF03B002
:103D40005DF804FB6E0B002007B5094B8DF80600EB
:103D500005221A70030C8DF804300322030A01A90E
:103D600082208DF80530FFF7AFFF03B05DF804FB4C
:103D70006E0B002007B501228DF807000DF1070139
:103D80009F20FFF7A1FF03B05DF804FB07B5064BCA
:103D900001221B788DF807300DF107019620FFF7FF
:103DA00093FF03B05DF804FB705A010807B500F0FB
:103DB0007F008DF8070001220DF107018920FFF730
:103DC00083FF03B05DF804FB134B984207B50BD992
:103DD0004EF6E113ADF80430022201A99820FFF756
:103DE00073FF03B05DF804FB0C4B984202D94DF60B
:103DF000D733EFE70A4B984202D94CF2C153E9E7B7
:103E0000084B984202D948F27513E3E7064B9842F3
:103E1000E2D946F66B73DDE700E9A43580F8A932F4
:103E20008044E52D000B6B1B40FC541907B58DF841
:103E3000062004228DF804008DF8051095200DEB66
:103E400002018DF80730FFF73FFF03B05DF804FB78
:103E500007B501228DF807000DF107019320FFF748
:103E600033FF03B05DF804FB07B552BAADF8042088
:103E700040BA082249BAADF80000ADF802105BBAAA
:103E800069461046ADF80630FFF71EFF03B05DF837
:103E900004FB07B50B0C042200F0070049BA8DF8AB
:103EA0000400ADF8061097200DEB02018DF80530E7
:103EB000FFF70AFF03B05DF804FB000037B50C4DB7
:103EC0002B7804461BB9FFF77FFF01232B70094BAA
:103ED00060061A68E1090023FCF7A8FD042200BA75
:103EE00001900DEB02018620FFF7EEFE03B030BD1E
:103EF0006C0B00206C5A010807B502228DF80400F3
:103F00008DF805108F2001A9FFF7DEFE03B05DF8E4
:103F100004FB000013B50323044601AA1A48142128
:103F2000FEF774FB194B1A7822704AB1012A17D098
:103F300014220021204610F001FE0F2323700DE013
:103F40009DF8043023719DF80530A2605B425B1040
:103F5000A3719DF806305B425B10637102B010BD27
:103F60009DF804305B425B1023739DF905300233EA
:103F70009B1063739DF806305B425B10A373044B88
:103F80001B682361EAE700BF540B00206F0B002081
:103F9000680B002007B501238DF807100DF107020B
:103FA00001460348FEF786FA03B05DF804FB00BF44
:103FB000540B002007B5094B8DF807000146187017
:103FC00018B940F2AC60FFF7E5FF01220DF10701DF
:103FD0008A20FFF779FE03B05DF804FB6F0B002029
:103FE00013B5334A0446516810686B4603C3314B1E
:103FF00020781B78834201D0FFF7DCFF2378032B66
:1040000028D8DFE803F0023C293F2B4B61681A688F
:104010005301B3FBF1F3190C8DF80010190A8DF858
:1040200001108DF80230A168237B8DF80330637B8B
:104030008DF8043048060023C909FCF7F7FC030C8F
:1040400040BA8DF80530ADF80600082269468B208D
:10405000FFF73AFE02B010BD174B22691B685B01E7
:10406000B3FBF2F31A0C8DF800208DF802301A0A17
:10407000237D8DF801208DF803300422E6E7A36943
:104080000093FAE70C4B62681B685B01B3FBF2F329
:104090001A0C8DF800208DF802301A0A237B8DF857
:1040A0000330637B8DF801208DF804300522CDE7C5
:1040B000F45501086F0B00206C5A010807B5012365
:1040C00001460DF107020448FEF72DFA9DF807009E
:1040D00003B05DF804FB00BF540B0020094B1B78B4
:1040E00010B5044663B140F62310FFF7E7FF00F078
:1040F000F901214340F62310BDE81040FFF74ABF05
:1041000010BD00BF705A010810B508B1174B1860F8
:104110000220FFF7E3FF0024154B20461C70FFF739
:10412000DBFD144B1B789BB1134B40211878FFF734
:10413000B0FE40F611102146FFF72CFF4FF07F0034
:10414000FFF734FEFEF7D8FF0C4B01221A7010BDAA
:104150000B4B1C7840F611102146FFF71BFF214640
:1041600040F61210FFF716FFECE700BF700B0020BF
:104170006C0B0020715A0108725A01086E0B002066
:10418000735A0108012837B503460C46154620D15D
:104190000F2C02464FF000010CBF06200420FFF751
:1041A00045FE6FF010039C42B8BF1C460E2CA8BF02
:1041B0000E24182140F6E700FFF7ECFE022201A9C9
:1041C0008E208DF804408DF80550FFF77DFD03B07B
:1041D00030BD40F6D800FFF771FF40F01E01C9B2B4
:1041E00040F6D800FFF7D6FE012307210022042065
:1041F000FFF71CFE6FF008039C42B8BF1C46162C4C
:10420000A8BF16243821D5E737B5022305460C464A
:104210000C4801AA1321FEF7F9F90B4B1B78012B6F
:104220000DD10A4B1B78012B09D140F20270FFF728
:1042300045FF9DF805302870237003B030BD9DF810
:104240000400F6E7540B00206F0B00206D0B0020DC
:1042500013460A4601460148FEF72CB9540B0020CC
:1042600008B5014608224FF4D860FFF7F1FF00209F
:1042700008BD000007B5074B1B7840BAADF8040035
:104280002BB9022201A940F2BC60FFF7E1FF03B0A5
:104290005DF804FB6F0B002007B5074B1B7840BA95
:1042A000ADF804002BB9022201A940F2BE60FFF76D
:1042B000CFFF03B05DF804FB6F0B00201FB52E4A43
:1042C0000446D1689068127C01AB03C31A702B4B73
:1042D00020781B78834201D0FFF76CFE2378032BF4
:1042E00026D8DFE803F002383302637AF12B21D1BC
:1042F0004FF6FF70FFF7BEFF48F20500FFF7CCFF57
:1043000002236288A188ADF8061052BAE188ADF8A0
:1043100004208DF80B30227AA37A8DF80A20ADF8AC
:1043200008108DF80C30092201A98C20FFF7CCFC75
:1043300004B010BDF22BE4D141F60F50FFF79AFF05
:1043400041F22100FFF7A8FF0623DAE7237B8DF86F
:1043500004300122E8E7E389094A5BBAADF804308A
:10436000237C13708DF80630637C8DF80730638AE8
:10437000ADF808300622D7E7F45501086F0B00208E
:104380006D0B002013460A4601460148FEF7CBB8E4
:10439000540B002073B5002640F6E2000196FFF7AB
:1043A0008DFE00F0FE01054640F6E200FFF7F2FD4B
:1043B00040F6E500FFF782FE00F07F01044640F67C
:1043C000E500FFF7E7FD6FF07F40FFF7BDFC04223B
:1043D0000DEB020140F61900FFF7D4FF3046FFF75E
:1043E0007BFC294640F6E200FFF7D4FD214640F66B
:1043F000E500FFF7CFFD019802B070BD13460A46F5
:1044000001460148FEF735B9540B002013460A4611
:1044100001460148FEF760B9540B0020012908B598
:10442000034608460ED1012B07D10420FFF756FEA4
:104430000220BDE80840FEF729BE022B14BF084643
:104440000320F6E70120F4E738B50546FEF78CFEB9
:10445000012804460CD002280CD10F2DCCBF0446F5
:104460000124204602222946FFF78CFE204638BD53
:104470000224F6E70124F4E701390244824200D124
:10448000704711F8013F02F8013DF7E713B520B975
:10449000074908486122FCF707FD83690093D0E9CA
:1044A00004238468017B0068A04702B010BD00BFF0
:1044B000BC5D01080857010808B50EF03BFD052852
:1044C00096BF024B0120185C08BD00BFEF5E0108DB
:1044D00008B50EF04DFD052896BF024B0120185C73
:1044E00008BD00BFEF5E010837B504460846214607
:1044F0005CB153B19DF8184000940EF04BFD0528B7
:1045000005D8044B185C03B030BD0220FBE7012046
:10451000F9E700BFEF5E010870B5134B1C6804F5A6
:104520004055FFF715F903F03DF8D5F838328342CE
:1045300009D943F23021661863587268013342F199
:1045400000026350726043F23023C5F83802E55828
:104550000446FFF70DF94FF47A72002320462946EE
:10456000FCF764FA70BD00BF2C0000202DE9F74F66
:104570000C9D25B92A492B489422FCF795FC6B69C0
:10458000294CDFF8A8902268B3FA83F300F5C970CC
:104590005B09DB0702EB40126B611079019201218C
:1045A0004FF00042CDF8009002F0ECFEFFF7B4FFB0
:1045B00024682E4604F5495405F5B07A4FF47A780C
:1045C00000274FF0004B20791F2820D0D6E90A237E
:1045D000B3F1FF3F08BFB2F1FF3F18D02169D4F813
:1045E00014C06B69A1FB082108FB0C1117EB030C2D
:1045F000B2EB0C02D5F808C061EB0C01934577EBE8
:10460000010104D3CDE90094012102F0BBFE203664
:10461000564504F12004D6D103B0BDE8F08F00BFA9
:10462000BC5D0108085701082C0000208D440008DB
:1046300010B51B4C03F014FE236803F5405393F8A8
:10464000A03363B3FFF768FF236803F54E5330339D
:1046500053F8082C53F8043C801A61EB030140F630
:10466000A173984271F1000119D307F0C5FB09F05D
:1046700047FD08F0DDF90EF0A2FB0EF095FA0CF004
:104680007DF80CF01FFE0CF089FE0DF0AFFA03F080
:10469000D1FC236803F54053002283F8A02310BD0A
:1046A0002C0000202DE9F34188460746002838D029
:1046B000224B1E6806F54953002504336C011A5D30
:1046C0001F2A31D1012002F033FE05F5C97306EB34
:1046D00043131F2818711AD06A1C06EB421243F2CA
:1046E000282343F25821D75033194FF0FF3043F8B5
:1046F000018003F549534FF0FF31C3E9040143F250
:104700002C23FF21D154284602B0BDE8F0810423B8
:1047100000930B4A0B4B019302AB13E9030004F027
:1047200059FD4FF0FF35EEE701350B2DC6D10423BF
:104730000093044B044A0193EEE700BF2C000020D5
:10474000405E01081B5E0108765E01082DE9F0431A
:1047500085B00523DFF818810293CDF80C80DFF8CF
:104760001491454A02AF044697E8030004F032FD75
:10477000D9F8006034B10FCC06F5485510350FC597
:1047800023682B60002206F549534FF01F0C154695
:10479000FF244FF0FF304FF0FF311A6001320B2A37
:1047A000C3E9040183F804C09D601C739D6103F19B
:1047B0002003F2D106F54054C4F8385202F0A0FDAF
:1047C000FFF700F8FEF7C8FD03F03CFD00F0B0F97C
:1047D00001F0A8FC02F014FF05F0C4FA02F08CFF0F
:1047E00007F046FA08F058FA09F038FC00F0F2FA3F
:1047F00008F0E2F807F09EFB0EF0B4F90EF0D2FAE2
:104800000BF0BAFF0CF05CFD0DF060F90EF08AFBC6
:1048100003F0EEFBD9F80030184803F5405306F5D5
:10482000485183F8A0532831FFF73CFF0522CDE91A
:1048300002280346C4F82802114AC4F83C5297E8FB
:10484000030004F0C7FCD4F8283203F5C97306EB63
:1048500043160C4B307901960093D4F83C324FF05C
:104860000042012102F08EFD002005B0BDE8F0837A
:104870001B5E01082C000020AC5E01086D4500089D
:10488000C65E01088D4400082DE9F04F0A288DB05E
:10489000044689461546984600F2B280012900F286
:1048A000AF805A4B1E6806EB401707F5405B9BF83C
:1048B00044321F2B00F0A48000F1010A06EB4A1AD3
:1048C00043F228235AF80330002B00F09B80012983
:1048D00054D109A90AA807F009FB00284AD04C4B7B
:1048E0000A9A1B694FF47A7103F5FA73B3FBF1F37B
:1048F0009DF82C10A3FB020203FB012305930490F7
:1049000002F050FE099B03936B1C069348F10003D1
:104910000793039BC01A61EB010100234FF47A72E5
:10492000FCF734F8049BC018059B43EB0101069B80
:104930009842079B994167D243F22C2304F5C9742E
:104940000AF8039043F25023FA18FD50049BC2F872
:1049500004804FF47A71EA1A06EB44142D4B9BF84D
:10496000440200934A43039B0194494602F00AFD26
:10497000002000E004200DB0BDE8F08FFFF7CCFD73
:10498000854278EB01013FD343F22C234FF000091D
:104990000AF8039043F2502A07EB0A0247F80A503C
:1049A000C2F804800392FEF7D3FE039A556857F8C5
:1049B0000A204FF47A7006F54053A2FB002100FB59
:1049C0000511D3F83C3243F23020355819EB03007F
:1049D000121A4FF0004061EB0501904279EB0101A2
:1049E0000BD304F5C9740B499BF84402009106EB04
:1049F00044160196012102F0C5FCFEF7B9FEB7E7A7
:104A00000220B8E70120B6E70520B4E72C0000201B
:104A1000D05C01088D4400080A2808B50CD8074B63
:104A20001B6800F5C97003EB401318791F2803D0E9
:104A300002F0A0FD002008BD0220FCE72C000020B1
:104A400008B50DF0E3F880F00100C0B208BD07B56D
:104A5000022000F0C1F80822411C6846FFF70CFD57
:104A6000DDE9000103B05DF804FB000010B5114B57
:104A70001C6804F5405407F0A7F909F017FB07F08C
:104A8000AFFF0EF09BF90EF079F80BF076FE0CF00C
:104A900018FC0CF075FC0DF08FF803F0C3FAD4F895
:104AA000B0432CB1FFF7D3FF2346BDE810401847B1
:104AB00010BD00BF2C000020102938B50C4617D8B7
:104AC0000C4B1B6803F540550022C5F80C2248B179
:104AD00041B10A46014603F547503C3010F0CDF88D
:104AE000C5F80C42FFF7C2FF02F054FB002038BDAE
:104AF0000220FCE72C00002002F0C0BD82B00020A4
:104B000002B070470EF0C2B807B5002301A9ADF896
:104B100006300EF0CBF828B1022201A90DF10600F3
:104B2000FFF7AAFCBDF8060003B05DF804FB000027
:104B300030B5214B1C6804F68C2589B04522002134
:104B400028460FF0FBFF042384F88D3ACA2384F82B
:104B50008E3AFE2384F88F3A052384F8C03A01F098
:104B6000AFFA0368C4F8C13A4368C4F8C53A0223EF
:104B700084F8AF3AFEF710FE06AACDE9060104F666
:104B8000B82304F52B6112F8010B03F8010D8B42D9
:104B9000F9D1684604F6AF2101F05CF96B4605F1E6
:104BA000120004AA53F8041B40F8041B9342F9D1E5
:104BB0001B78037009B030BD2C00002010B5FEF743
:104BC000C7FD044B1B6893F88C4AFEF7D1FD2046C5
:104BD00010BD00BF2C00002008B50D4B01381B682C
:104BE000042810D8DFE800F003060F090C0003F6D4
:104BF0009E2008BD03F6AF20FBE703F68D20F8E703
:104C000003F52C60F5E7034903485722FCF74CF9FC
:104C10002C000020F55E0108575F010838B51F4BD6
:104C200004461D68FEF794FD234613F8102B013A45
:104C3000042A2DD8DFE802F003112C1A230005F610
:104C40009E2554F8042B45F8042B9C42F9D1237877
:104C50002B70BDE83840FEF78BBD05F6AF2554F844
:104C6000042B45F8042B9C42F9D1F0E705F68D257D
:104C700054F8042B45F8042B9C42F9D1E7E705F5DD
:104C80002C6554F8042B45F8042B9C42F9D1DEE73F
:104C9000034904486522FCF707F900BF2C000020F7
:104CA000F55E0108575F01087FB50378032B04D038
:104CB0000F4910484022FCF7F7F805238DF804301F
:104CC000D0F80130CDF80530D0F80530CDF80930F6
:104CD000FEF73EFD01A8FFF7A1FF074B1B6801226D
:104CE00083F88C2AFEF744FD07B05DF804FB00BF93
:104CF000F55E0108575F01082C00002010B51D4B20
:104D000088B01C680190FEF723FD01980378013BF1
:104D1000042B2CD8DFE803F0030D1610130004F663
:104D20009E2100F02FFF0446FEF722FD204608B02A
:104D300010BD04F6AF21F4E704F68D21F1E704F588
:104D40002C61EEE703238DF80C30D4F8C13ACDF88E
:104D50000D30D4F8C53ACDF81130D4F8B03ACDF8CA
:104D60001530D4F8B43ACDF8193003A9D9E70024A6
:104D7000DAE700BF2C000020013900F1080311F828
:104D8000012F03F8012D8342F9D1704737B50E4B3F
:104D90001D281D6805D90D490D484FF42F72FCF7E9
:104DA00083F82A2303FB00F404F60A3129446846F9
:104DB000FFF7E2FFDDE900010EF050FC254400237F
:104DC00085F8083B03B030BD2C0000206A5F010865
:104DD000CC5F010810B5064B1C6840F2EE42002182
:104DE00004F608300FF0AAFE1E2384F8F43F10BD2D
:104DF0002C000020064B1B68002003F2EC4293F8C5
:104E0000081B09B10130C0B22A339342F7D1704771
:104E10002C0000202DE9F04F85B0214B6D468846CF
:104E20001022002104462846D3F800A00FF086FE89
:104E3000FFF7E0FF404522D900260AF60A37B146BF
:104E40004FF0020B17F8021CA1B1C84510D139462A
:104E50002846FFF791FFB97A8DF808109AF8F41FE9
:104E6000B1424FF001034FF0000210D18DF809203C
:104E700009F1010901361E2E07F12A07E2D195E852
:104E80000F0084E80F00204605B0BDE8F08F97F8CA
:104E9000271000290CBF594619468DF80910E7E77D
:104EA0002C00002008B5094B1D281B6805D82A22B4
:104EB00002FB003090F8083B23B905490548602201
:104EC000FBF7F2FFB0F8120B08BD00BF2C0000206A
:104ED0006A5F0108DA5F010808B5094B1D281B68E5
:104EE00005D82A2202FB003090F8083B23B9054977
:104EF00005486922FBF7D8FFA0F8121B08BD00BFC8
:104F00002C0000206A5F0108CC5F010810B50C4B33
:104F10001D291B6805D82A2404FB013191F8083BA0
:104F200023B9084908487122FBF7BEFFB1F8184BB6
:104F300091F9143BB1F8161B01804480037110BD38
:104F40002C0000206A5F0108EB5F010807B5174BD2
:104F50001D281B6805D82A2202FB003090F8083B68
:104F600023B9134913487E22FBF79EFFB0F8183B84
:104F7000B0F8162B93420ED9032300930E4B0193E6
:104F800002AB13E903000D4A04F024F942F2107059
:104F900003B05DF804FB002AF8D042F2107101FB67
:104FA00003F0B0FBF2F080B2F2E700BF2C0000206B
:104FB0006A5F0108CC5F0108FC5F01080660010818
:104FC00010B50B4B1D291B6805D82A2404FB0131A1
:104FD00091F8083B23B9074907489322FBF764FF80
:104FE000D1F81A3B036091F81E3B037110BD00BF5E
:104FF0002C0000206A5F0108CC5F010807B502A9F8
:1050000001E90C000C4B1D281B6805D82A2202FB65
:10501000003090F8083B23B9084909489C22FBF767
:1050200043FF9DF80430009AC0F81A2B80F81E3B0D
:1050300003B05DF804FB00BF2C0000206A5F01088C
:10504000CC5F0108F8B50E4B1C68FEF71BFD04F69B
:105050000A33014604F6F6740020FF2213F8025CBE
:1050600055B15D7D954207D893F90A7091F91C609E
:10507000B742A4BF18462A462A33A342EED1F8BD50
:105080002C00002070B5154B1D281C6805D82A235C
:1050900003FB004393F8082B22B911491148CC2295
:1050A000FBF702FF93F8202B92B10D680A79D3F831
:1050B000211B93F8256B6D1A62EB06020A4E002144
:1050C00002F0FF02AE4271EB020238BF83F8201BF0
:1050D0002A2303FB004494F8200B70BD2C00002011
:1050E0006A5F0108DA5F010840420F0010B50F4BFC
:1050F0001D281A6805D82A2303FB002393F8084BC0
:1051000024B90B490B48E022FBF7CEFE012483F8BB
:10511000204B0C68C3F8214B097983F8251B92F8C2
:10512000F43F1B1A5842584110BD00BF2C0000200C
:105130006A5F0108DA5F0108F8B50F4B1C68074683
:1051400004F60A36002516F8023C2BB1082239462F
:1051500030460FF0E3FC48B101351E2D06F12A065A
:10516000F1D106490648FD22FBF79EFE2A2303FBE8
:10517000054494F8260BF8BD2C0000206A5F010856
:10518000176001081D2808B505D90A490A484FF4D7
:105190008A72FBF789FE094B1B682A2202FB003347
:1051A00093F8080B28B1B3F8120B884234BF0020E3
:1051B000012008BD6A5F0108CC5F01082C000020B7
:1051C0002DE9F84F1E46244BDDF828901F688346D2
:1051D0000D46904607F60A3A00241AF8023CABB393
:1051E0000822594650460FF099FC78BB56B12A2048
:1051F000604300F61A30D9F800203A503B1899F86D
:1052000004201A71B8F1000F1ED02A2202FB04728A
:10521000B2F9161BB2F8163B002907DA5B08A2F8B0
:10522000163BB2F8183B5B08A2F8183B2A2202FB97
:105230000472B2F8163B2B44A2F8163B26B1B2F822
:10524000183B0133A2F8183BBDE8F88F01341E2C3F
:105250000AF12A0AC1D1F7E72C000020F8B5114B5A
:105260001C68074604F60A36002516F8023C93B17E
:105270000822394630460FF051FC60B92A2303FB5F
:10528000054393F8262B013212F0FF0200D10122D0
:1052900083F8262B04E001351E2D06F12A06E4D101
:1052A000F8BD00BF2C000020F8B50D4B1E68074666
:1052B00006F60A35002415F8023C5BB1082239468F
:1052C00028460FF02BFC28B92A2303FB046686F836
:1052D000260BF8BD01341E2C05F12A05EBD1F8E7A9
:1052E0002C000020F7B56E4686E80C000D4B1D68BB
:1052F000074605F60A3405F6F67514F8023C63B164
:105300000899082220460FF009FC30B9306833793B
:105310006777C4F81E0084F822302A34AC42ECD1FE
:1053200003B0F0BD2C0000202DE9F74F02A901E9E0
:105330000C001A4B9DF804A0D3F800800746914654
:1053400008F60A3400254FF02A0B14F8026CDEB17F
:105350000C99082220460FF0E1FBA8B90BFB05834E
:10536000D3F8282B93F82C3B52EA03010CD0B9EB6D
:1053700002026AEB030303F0FF03642A73F10003E4
:1053800002D2637FBB4205D001351E2D04F12A04F1
:10539000DBD10026304603B0BDE8F08F2C000020A2
:1053A0001D2838B5024605D90B490C4840F2A91210
:1053B000FBF77AFD0A4B1C682A2303FB004090F898
:1053C000080B40B140F60A3513FB0253E218E358CC
:1053D0000B6053684B6038BD6A5F0108CC5F010801
:1053E0002C0000201D2808B505D90749074840F2C0
:1053F000B712FBF759FD064B1B682A2202FB00334C
:1054000093F8080B08BD00BF6A5F0108DA5F010866
:105410002C000020024B1B681E2283F8F42F7047DB
:105420002C00002008B50B4B1D281A6805D82A232C
:1054300003FB002393F8081B29B9074907484FF4D9
:10544000E472FBF731FD82F8F40F002283F8302B71
:1054500008BD00BF2C0000206A5F0108DA5F010868
:1054600008B5084B1B6893F8F42F1D2A08D800B123
:10547000027019B193F8F40FFFF792FF012008BDF5
:105480000020FCE72C00002070B586B002AC84E858
:105490000300694681E80C00144B00210DF1170050
:1054A0001C68FFF7DDFFF0B19DF817502A2606FBB8
:1054B000054191F8080BB0B1D1F81A0B009A91F898
:1054C0001E1B9DF80430121A029863EB01039DF82D
:1054D0000C10904203F0FF0399413ABF06FB0544CC
:1054E00004F60A30002006B070BD00BF2C0000207A
:1054F00013B5044669460020FFF7B2FF38B1082211
:10550000214668460FF00AFBB0FA80F0400902B06D
:1055100010BD00002DE9F04385B06B4683E8030021
:10552000234BDFF890801E68DFF88C90234F3546C0
:10553000002495F8083B9BB32A2101FB0461009AE3
:10554000D1F81A0B9DF8043091F81E1B121A63EB68
:10555000010303F0FF03D8F81010B9FBF1F19142F9
:105560004FF000029A411BD22046FFF70FFC96F83D
:10557000F43FA34208D10123CDE9023704AB13E97C
:1055800003000F4A03F026FE95F8203B43B10523A4
:10559000CDE9023704AB13E903000A4A03F01AFE0F
:1055A00001341E2C05F12A05C3D105B0BDE8F083F6
:1055B0002C000020D05C010800A493D6FC5F0108F9
:1055C0002F6001084860010808B5094B1D281B68B9
:1055D00005D82A2202FB003090F8083B2BB9054978
:1055E000054840F20322FBF75FFCA0F82E1B08BD24
:1055F0002C0000206A5F0108CC5F010808B5094B48
:105600001D281B6805D82A2202FB003090F8083BB1
:105610002BB9054905484FF40372FBF745FCB0F878
:105620002E0B08BD2C0000206A5F0108CC5F01082A
:105630002DE9F04F85B0054601934B4B9DF838B0EE
:105640001C688946164604F60A37A24604F6F67820
:1056500017F8023C33B10822294638460FF05EFAAB
:1056600000287CD02A374745F2D100221046134645
:105670004FF01E089AF8081B69B32A2101FB034E5C
:10568000D6F800C0DEF81A1B37799EF81EEBBCEB8B
:10569000010167EB0E0707F0FF078A4270EB070C6A
:1056A0000BD29AF831CBBCF1000F06D194F8F4CFAD
:1056B0009C451EBF0A463846984601331E2B0AF108
:1056C0002A0AD7D1B8F11E0F01D1002048E0404688
:1056D000FFF75CFB43462A225343E218012182F87C
:1056E000081B9DF83C1082F8091B03F60A33296851
:1056F000E150E018696841604FF6FF73A2F8123B71
:10570000002382F8149BA2F8163BA2F8183B3179CB
:10571000306882F81E1B0199C2F81A0B92F82C0B04
:1057200082F8203B994263F3070008BF4FF0FF0B5C
:1057300082F82C0B82F81FBBA2F8263BA2F8283B6C
:10574000A2F82A3BA2F82E3BA2F8303B294602A839
:10575000FFF712FBDDE902014A460DF073FF01205D
:1057600005B0BDE8F08F00BF2C0000202DE9F74FF9
:105770001446264A9DF83080D2F800A000901E46BC
:105780009DF834300F460AF60A39002519F802BC94
:10579000BBF1000F2AD000990193082248460FF070
:1057A000BDF9019B10BB2A2202FB05A292F9141B32
:1057B00082F8093B072313FB0173002B00DA073340
:1057C000DB1082F8143B2A232168227903FB05A30E
:1057D000002E08BF4FF0FF085846C3F81A1B83F885
:1057E0001E2B83F81F8B03B0BDE8F08F01351E2DF3
:1057F00009F12A09CAD10098CDE90C832246334623
:10580000394603B0BDE8F04FFFF712BF2C0000206F
:105810001D2808B505D9094909484FF41772FBF747
:1058200043FB084A12682A2101FB002393F8083B36
:105830001BB1BDE80840FFF7A9BA08BD6A5F0108BF
:10584000CC5F01082C00002070B5094B1D68FFF7E4
:10585000E1FD002405F608352A2606FB04F3EB5C7F
:1058600013B1E0B2FFF7D4FF01341E2CF5D170BDA7
:105870002C0000202DE9F0410D4B1C68074688469E
:1058800004F60A34002514F8026C56B10822394691
:1058900020460FF043F920B988F800503046BDE8A3
:1058A000F08101351E2D04F12A04ECD10026F5E724
:1058B0002C00002008B5094B1D281B6805D82A229A
:1058C00002FB003090F8083B2BB90549054840F22F
:1058D0008122FBF7E9FA90F8310B08BD2C0000207B
:1058E0006A5F0108DA5F010808B5094B1D281B68CB
:1058F00005D82A2202FB003090F8083B2BB9054955
:10590000054840F28A22FBF7CFFA80F8311B08BD28
:105910002C0000206A5F0108CC5F0108074B1B6860
:10592000002003F2EC4293F8081B19B193F8311BE5
:1059300001B101302A339342F5D170472C00002089
:1059400008B5094B1B6893F8F42F1D2A05D90749A0
:1059500007484FF42872FBF7A7FA2A2101FB02330C
:1059600093F8300B08BD00BF2C0000206A5F0108CF
:105970006360010808B5094B1B6893F8F42F1D2AD2
:1059800005D9074907484FF42A72FBF78DFA2A21F7
:1059900001FB023383F8300B08BD00BF2C00002050
:1059A0006A5F01086360010807280FD8012303FA22
:1059B00000F010F0920F0BD110F0480F0AD110F048
:1059C000240F14BF18460020C00070470020704705
:1059D000022070471020704708B5024620B91349CD
:1059E0001348B222FBF760FA007803280BD004D8E2
:1059F000431E012B0DD9002004E0063801288CBF7E
:105A00000020012008BD5078A0F1FF035842584102
:105A1000F8E7FFF7C9FF1044824201D10120F1E706
:105A200012F8013FFF2BF7D0E5E700BF77600108D0
:105A30000857010837B5034620B919491948942277
:105A4000FBF732FA027800240025022ACDE900454E
:105A500010D0032A18D0012A08D1FFF7BDFF28B1C2
:105A60004FF0FF324FF0FF33CDE90023DDE90001B5
:105A700003B030BD02AA00F1080113F8010F02F8CB
:105A8000010D8B42F9D1F1E700F1080202A91033B0
:105A900012F8010F01F8010D9A42F9D1E6E700BFB3
:105AA00077600108085701080278032A034625D1C8
:105AB0004278FF2A22D18278022A1FD1C078E8B921
:105AC0001A79F2B95879D8B99A79D2B9D879B8B9D6
:105AD0001A7AB2B95A7A8AB9987A78B9DA7A82B9DE
