:020000040800F2
:100000000000012071130008F1100008051100081C
:10001000191100082D11000841110008000000000E
:100020000000000000000000000000005511000862
:100030005711000800000000591100085B1100086A
:10004000C1130008C1130008C1130008C113000840
:10005000C1130008C1130008C1130008C113000830
:10006000C1130008C1130008C1130008C113000820
:10007000C1130008C1130008C1130008C113000810
:10008000C1130008C1130008C1130008C113000800
:10009000C1130008C1130008C1130008C1130008F0
:1000A000C1130008C1130008C11300089D3C0008DB
:1000B000C1130008C1130008C1130008C1130008D0
:1000C000C1130008C1130008C1130008C1130008C0
:1000D00005130008C113000899320008C113000875
:1000E000C1130008C1130008C1130008C1130008A0
:1000F000C1130008C1130008C1130008C113000890
:10010000C1130008C1130008893A0008C113000890
:10011000C1130008C1130008C1130008C11300086F
:10012000C1130008C1130008C1130008C11300085F
:08013000C1130008C11300080F
:1001400010B5054C237833B9044B13B10448AFF311
:1001500000800123237010BD100300200000000068
:100160002C41020808B5034B1BB103490348AFF308
:10017000008008BD00000000140300202C4102088C
:1001800001F0FF01102A2BDB10F0070F08D010F848
:10019000013B013A8B422DD010F0070F42B3F6D14C
:1001A000F0B441EA012141EA014122F007047FF065
:1001B00000070023F0E80256083C85EA010586EABC
:1001C000010685FA47F5A3FA87F586FA47F6A5FAF8
:1001D00087F68EB9EED1F0BC01F0FF0102F0070204
:1001E00032B110F8013B013A83EA010313B1F8D1AF
:1001F0000020704701387047002D06BF3546033890
:10020000073815F0010F07D1013015F4807F02BFC8
:10021000013015F4C03F0130F0BC0138704700BF19
:1002200070B54FF0FF0C4CF4E06C1CEA11541DBF8C
:100230001CEA135594EA0C0F95EA0C0F00F0DEF857
:100240002C4481EA030621EA4C5123EA4C5350EA3C
:10025000013518BF52EA033541F4801143F480138D
:1002600038D0A0FB02CE4FF00005E1FB02E506F01E
:100270000042E0FB03E54FF00006E1FB03569CF073
:10028000000F18BF4EF0010EA4F1FF04B6F5007F79
:1002900064F5407404D25FEA4E0E6D4146EB0606EB
:1002A00042EAC62141EA55514FEAC52040EA5E5074
:1002B0004FEACE2EB4F1FD0C88BFBCF5E06F1ED81E
:1002C000BEF1004F08BF5FEA500E50F1000041EB55
:1002D000045170BD06F0004646EA010140EA020002
:1002E00081EA0301B4EB5C04C2BFD4EB0C0541EA24
:1002F000045170BD41F480114FF0000E013C00F339
:10030000AB8014F1360FDEBF002001F0004170BD5C
:10031000C4F10004203C35DA0C341BDC04F1140475
:10032000C4F1200500FA05F320FA04F001FA05F201
:1003300040EA020001F0004221F0004110EBD370CE
:1003400021FA04F642EB06015EEA430E08BF20EAFA
:10035000D37070BDC4F10C04C4F1200500FA04F39D
:1003600020FA05F001FA04F240EA020001F000412F
:1003700010EBD37041F100015EEA430E08BF20EAA2
:10038000D37070BDC4F1200500FA05F24EEA020EEA
:1003900020FA04F301FA05F243EA020321FA04F019
:1003A00001F0004121FA04F220EA020000EBD370D0
:1003B0005EEA430E08BF20EAD37070BD94F0000FD0
:1003C0000FD101F00046400041EB010111F4801F04
:1003D00008BF013CF7D041EA060195F0000F18BFB5
:1003E000704703F00046520043EB030313F4801FF1
:1003F00008BF013DF7D043EA0603704794EA0C0FAB
:100400000CEA135518BF95EA0C0F0CD050EA4106C0
:1004100018BF52EA4306D1D181EA030101F000413D
:100420004FF0000070BD50EA410606BF1046194665
:1004300052EA430619D094EA0C0F02D150EA013671
:1004400013D195EA0C0F05D152EA03361CBF1046B2
:1004500019460AD181EA030101F0004141F0FE4151
:1004600041F470014FF0000070BD41F0FE4141F4D5
:10047000780170BD81F0004102E000BF83F00043CD
:1004800030B54FEA41044FEA430594EA050F08BF2F
:1004900090EA020F1FBF54EA000C55EA020C7FEAF3
:1004A000645C7FEA655C00F0E2804FEA5454D4EB70
:1004B0005555B8BF6D420CDD2C4480EA020281EA3A
:1004C000030382EA000083EA010180EA020281EA72
:1004D0000303362D88BF30BD11F0004F4FEA0131C4
:1004E0004FF4801C4CEA113102D0404261EB4101D3
:1004F00013F0004F4FEA03334CEA133302D0524259
:1005000063EB430394EA050F00F0A780A4F1010414
:10051000D5F1200E0DDB02FA0EFC22FA05F280184E
:1005200041F1000103FA0EF2801843FA05F3594134
:100530000EE0A5F120050EF1200E012A03FA0EFCB3
:1005400028BF4CF0020C43FA05F3C01851EBE371DD
:1005500001F0004507D54FF0000EDCF1000C7EEBFA
:1005600000006EEB0101B1F5801F1BD3B1F5001F38
:100570000CD349085FEA30004FEA3C0C04F1010457
:100580004FEA445212F5800F80F09A80BCF1004F80
:1005900008BF5FEA500C50F1000041EB045141EA02
:1005A000050130BD5FEA4C0C404141EB0101013CCB
:1005B00028BFB1F5801FE9D291F0000F04BF0146BA
:1005C0000020B1FA81F308BF2033A3F10B03B3F18C
:1005D00020020CDA0C3208DD02F1140CC2F10C021C
:1005E00001FA0CF021FA02F10CE002F11402D8BF7A
:1005F000C2F1200C01FA02F120FA0CFCDCBF41EA46
:100600000C019040E41AA2BF01EB0451294330BD14
:100610006FEA04041F3C1CDA0C340EDC04F11404F1
:10062000C4F1200220FA04F001FA02F340EA0300C8
:1006300021FA04F345EA030130BDC4F10C04C4F10E
:10064000200220FA02F001FA04F340EA03002946EE
:1006500030BD21FA04F0294630BD94F0000F83F438
:10066000801306BF81F480110134013D4EE77FEA1B
:10067000645C18BF7FEA655C29D094EA050F08BF67
:1006800090EA020F05D054EA000C04BF1946104648
:1006900030BD91EA030F1EBF0021002030BD5FEA8C
:1006A000545C05D14000494128BF41F0004130BDB4
:1006B00014F580043CBF01F5801130BD01F0004508
:1006C00045F0FE4141F470014FF0000030BD7FEA7B
:1006D000645C1ABF194610467FEA655C1CBF0B4676
:1006E000024650EA013406BF52EA033591EA030F8D
:1006F00041F4002130BD00BF90F0000F04BF002185
:10070000704730B54FF4806404F132044FF00005B7
:100710004FF0000150E700BF90F0000F04BF002130
:10072000704730B54FF4806404F1320410F0004596
:1007300048BF40424FF000013EE700BF42004FEA91
:10074000E2014FEA31014FEA02701FBF12F07F430E
:1007500093F07F4F81F06051704732F07F4208BFC5
:10076000704793F07F4F04BF41F40021704730B5CC
:100770004FF4607401F0004521F000411CE700BF18
:1007800050EA010208BF704730B54FF000050AE09B
:1007900050EA010208BF704730B511F0004502D59C
:1007A000404261EB41014FF4806404F132045FEA9E
:1007B000915C3FF4D8AE4FF003025FEADC0C18BF47
:1007C00003325FEADC0C18BF033202EBDC02C2F139
:1007D000200300FA03FC20FA02F001FA03FE40EACB
:1007E0000E0021FA02F11444BDE600BF4FF0FF3CB9
:1007F00006E000BF4FF0010C02E000BF4FF0010C1B
:100800004DF804CD4FEA410C7FEA6C5C4FEA430C93
:1008100018BF7FEA6C5C1BD001B050EA410C0CBFE2
:1008200052EA430C91EA030F02BF90EA020F002044
:10083000704710F1000F91EA030F58BF994208BFAB
:1008400090422CBFD8176FEAE37040F00100704768
:100850004FEA410C7FEA6C5C02D150EA013C07D1BF
:100860004FEA430C7FEA6C5CD6D152EA033CD3D00A
:100870005DF8040B704700BF8446104662468C4604
:100880001946634600E000BF01B5FFF7B7FF002837
:1008900048BF10F1000F01BD4DF808EDFFF7F4FF60
:1008A0000CBF012000205DF808FB00BF4DF808EDEB
:1008B000FFF7EAFF34BF012000205DF808FB00BF0E
:1008C0004DF808EDFFF7E0FF94BF012000205DF830
:1008D00008FB00BF4DF808EDFFF7CEFF94BF0120E5
:1008E00000205DF808FB00BF4DF808EDFFF7C4FFDE
:1008F00034BF012000205DF808FB00BF4FEA410231
:1009000012F5001215D211D56FF47873B3EB625261
:1009100012D94FEAC12343F0004343EA505311F088
:10092000004F23FA02F018BF404270474FF000001A
:10093000704750EA013005D111F0004008BF6FF058
:10094000004070474FF00000704700BF4A0011D2CE
:1009500012F5001211D20DD56FF47873B3EB625219
:100960000ED44FEAC12343F0004343EA505323FA25
:1009700002F070474FF00000704750EA013002D19A
:100980004FF0FF3070474FF0000070477BB972B9ED
:100990000029BEBF00204FF0004106E008BF00283C
:1009A0001CBF6FF000414FF0FF3000F0BFB9ADF158
:1009B000080C6DE904CE002909DB002B1ADB00F0DE
:1009C0004DF8DDF804E0DDE9022304B07047404251
:1009D00061EB4101002B1BDB00F040F8DDF804E087
:1009E000DDE9022304B0404261EB4101524263EB76
:1009F00043037047524263EB430300F02FF8DDF8E6
:100A000004E0DDE9022304B0404261EB410170479C
:100A1000524263EB430300F021F8DDF804E0DDE926
:100A2000022304B0524263EB4303704753B94AB9FF
:100A3000002908BF00281CBF4FF0FF314FF0FF30E6
:100A400000F074B9ADF1080C6DE904CE00F006F8C1
:100A5000DDF804E0DDE9022304B070472DE9F0473A
:100A6000089E0D4604468846002B4DD18A42944686
:100A700068D9B2FA82F252B101FA02F3C2F120014E
:100A800020FA01F10CFA02FC41EA030894404FEA13
:100A90001C45210CB8FBF5FE1FFA8CF705FB1E83E5
:100AA00041EA03430EFB07F199420BD91CEB030308
:100AB0000EF1FF3080F01E81994240F21B81AEF1B1
:100AC000020E63445B1AA4B2B3FBF5F005FB1033CE
:100AD00044EA034400FB07F7A7420AD91CEB0404CD
:100AE00000F1FF3380F00881A74240F205816444A1
:100AF0000238E41B40EA0E4000211EB1D44000231E
:100B0000C6E90043BDE8F0878B4208D9002E00F00B
:100B1000EE800021C6E900050846BDE8F087B3FA7B
:100B200083F100294AD1AB4202D3824200F2F9801C
:100B3000841A65EB030301209846002EE2D0C6E933
:100B40000048DFE702B9FFDEB2FA82F2002A40F085
:100B50009180A1EB0C054FEA1C471FFA8CFE012186
:100B6000B5FBF7F307FB1350250C45EA00450EFBD8
:100B700003F0A84208D91CEB050503F1FF3802D2A7
:100B8000A84200F2CB8043462D1AA4B2B5FBF7F081
:100B900007FB105544EA05440EFB00FEA64508D9A4
:100BA0001CEB040400F1FF3502D2A64500F2BB8025
:100BB0002846A4EB0E0440EA03409EE7C1F120075B
:100BC0008B4022FA07FC4CEA030C20FA07F405FAE2
:100BD00001F31C43FD404FEA1C4900FA01F3B5FB49
:100BE000F9F8200C1FFA8CFE09FB185540EA054560
:100BF00008FB0EF0A84202FA01F20BD91CEB050526
:100C000008F1FF3A80F08880A84240F28580A8F180
:100C1000020865442D1AA4B2B5FBF9F009FB105582
:100C200044EA054500FB0EFEAE4508D91CEB050560
:100C300000F1FF346CD2AE456AD90238654440EA0F
:100C40000840A0FB0294A5EB0E05A542C846A646A7
:100C500056D353D05EB1B3EB080265EB0E0505FA2F
:100C600007F722FA01F3CD401F43C6E900750021C2
:100C7000BDE8F087C2F1200320FA03F10CFA02FC70
:100C800025FA03F395400D434FEA1C471FFA8CFEEB
:100C9000B3FBF7F107FB11302B0C43EA004301FBD8
:100CA0000EF0984204FA02F408D91CEB030301F198
:100CB000FF382FD298422DD9023963441B1AADB2A6
:100CC000B3FBF7F007FB103345EA034500FB0EF3D7
:100CD000AB4208D91CEB050500F1FF3816D2AB4238
:100CE00014D902386544ED1A40EA014138E731462B
:100CF000304607E78646E5E61846FAE64B45A9D2B0
:100D0000B9EB020864EB0C0E0138A3E74046EAE7B2
:100D1000204694E74146D1E7D0467BE7023B654455
:100D200032E7084609E76444023842E7704700BFEB
:100D30004FF0B04382B0DA6C0243DA64DB6C1840E7
:100D40000190019B02B07047F0B587B018220021D6
:100D5000684622F095F90120FFF7EAFF0220FFF72D
:100D6000E7FF274F0420FFF7E3FF4FF40A468020F8
:100D70000024FFF7DDFF0325BE6249F6F0736946E4
:100D80004FF09040CDE90035049401F0F2FC00965C
:100D9000694601263846CDE90164CDE9034401F0F6
:100DA000E8FC47F236536946384607F58067CDE9D7
:100DB0000035049401F0DDFC42F207036946384631
:100DC000CDE90035049401F0D4FC69464FF0904021
:100DD000CDE90054049601F0CCFC40236946384626
:100DE000CDE90034049601F0C4FC082369460548A7
:100DF0000494CDE9003501F0BCFC07B0F0BD00BFA4
:100E000000040048001C0048014822F0C7B900BF98
:100E10003C7702080146014822F03AB9637702089C
:100E200010B501461446044822F032F92146034821
:100E3000BDE8104022F02CB992770208CD77020865
:100E400008B5094822F0AAF908480CF013FB01463E
:100E500020B9BDE80840064822F0A0B9BDE8084026
:100E6000044822F015B900BFE677020830030020DD
:100E70000078020815780208014608B5084822F0F3
:100E800007F908480CF094F9014620B9BDE808407C
:100E9000054822F083B9BDE80840044822F0F8B8BC
:100EA0004278020830030020667802087B78020846
:100EB00008B513460A460146014822F0E9F8FEE764
:100EC000A978020810B508461446114600F0F6F954
:100ED000204610BD72B6BFF34F8F0549054BCA6857
:100EE00002F4E0621343CB60BFF34F8F00BFFDE716
:100EF00000ED00E00400FA052D4A08B5136823F060
:100F0000070343F002031360136803F00703022B87
:100F1000FAD1284A136823F4C06343F400731360C2
:100F20004FF0B0431A6842F400121A601A6842F493
:100F300080321A601A689103FCD5DA681E491140A4
:100F40001E4A0A43DA60DA6842F08052DA601A68B0
:100F500042F080721A604FF0B0431A689201FCD5DB
:100F60009A6842F003029A604FF0B0439A6802F028
:100F70000C020C2AFAD19A68114822F0F0029A6009
:100F8000D3F8082122F00F02C3F808219A6822F44E
:100F9000E0629A609A6822F460529A6002F072F8F5
:100FA0000F2000F00FFA08B1FFF794FF08BD00BF53
:100FB00000400058000400588C80FF1F130C006094
:100FC000006CDC0200B51F4D8BB000F021FAFFF77A
:100FD00093FFFFF7B9FE00F06FF91B4822F0DEF82F
:100FE0000FCD05AC0FC42B68236005A803F076FC79
:100FF00020BB164822F0D2F8154A0023049307CAF2
:1010000001AC84E80700134822464FF2B1010BF00F
:1010100097FFA8B9104822F0C1F804F00FF90C4668
:1010200004F00CF9214602460C4822F031F8002168
:10103000084603F05DFD03F0D3FDFCE70848D9E75F
:101040000848E8E748410208C478020855790208D0
:101050009075FF1F3003002090790208CC790208B8
:101060006E790208A979020860B141B14AB1002342
:10107000C0E90012C0E90231016101207047084651
:1010800070471046704700B18068704790B1D0E952
:1010900001329A420FD2C36819708368D0E90012F6
:1010A00001338360C3680A4401339342C36000D3B1
:1010B000C160012070470020704790B191B18368F2
:1010C00093B103691B780B708368D0E90012013B70
:1010D000836003690A4401339342036100D30161D1
:1010E0000120704708467047184670477047000057
:1010F00008B5024902484B22FFF7DAFEEF790208F1
:10110000527A020808B5024902485522FFF7D0FE7C
:10111000EF790208407A020808B5024902486422C1
:10112000FFF7C6FEEF7902082E7A020808B50249D9
:1011300002487322FFF7BCFEEF7902081D7A02080D
:1011400008B5024902488222FFF7B2FEEF79020891
:101150000A7A02087047704770477047704700F07E
:101160000700C0F10702031D042A28BF0422062B32
:101170004FF0FF3303FA02F36FEA03038CBF033827
:10118000002003F0040303FA00F0704710B5424951
:10119000424890B04FF48062FFF766FF202200249F
:1011A00000210DEB020021F06BFFCDE904444FF06C
:1011B000B0430694D3F88820394822F00302C3F8DC
:1011C00088201A6E42F480421A661A6E02F4804237
:1011D0000192019ADA6C42F00202DA64DB6C03F0ED
:1011E00002030093C022009B0223CDE9022302A93F
:1011F0000723079301F0BDFA4FF4E133CDE9093439
:1012000028480894082308A9CDE90B44CDE90D34FA
:101210000F9401F0D9FE244A52E8003F23F06043C6
:1012200043F0204342E800310029F5D152E8003F65
:1012300023F0606342E800310029F7D119490B68B7
:1012400023F000530B608B6843F480538B608B68F2
:1012500023F400538B604B6823F490434B608B68FE
:1012600023F02A038B600B6843F001030B60CB690A
:101270009B02FCD50D4BD868C0F30220FFF76FFF2F
:101280000B4B0001C0B283F8240310225A60094BB3
:10129000196010B010BD00BF7C040020680400205D
:1012A00000040048003801400838014000ED00E02B
:1012B00000E100E07C080020FFF768BF2DE9F04165
:1012C0000446C0B1B9B10D4F0D4E4518EFF310886B
:1012D00072B614F8011B3846FFF7D8FE88F3108861
:1012E000326852E8003F43F0800342E800310029B1
:1012F000F7D1A542EAD1BDE8F08100BF6804002023
:101300007C08002013B5184C2368DA6912060FD543
:1013100016480DF10701FFF7D0FEB8B9226852E870
:10132000003F23F0800342E800310029F7D111E0AB
:10133000DA69D40710D4DA69900710D4DA69510752
:101340000FD4DA69120705D5082206E023689DF854
:1013500007209A6202B010BD01221A62FAE7022247
:10136000FBE70422F9E700BF7C08002068040020A6
:101370000D488546FFF7F2FE0C480D490D4A002343
:1013800002E0D458C4500433C4188C42F9D30A4A3A
:101390000A4C002301E013600432A242FBD321F087
:1013A0002DFEFFF70FFEFEE70000012000000020E9
:1013B00010030020FC7F02081003002014400020CE
:1013C000FEE7000038B5104C237805460BB9012024
:1013D00038BD00F031FF22784FF47A73B3FBF2F39B
:1013E000B0FBF3F000F096F804460028EFD10F2D83
:1013F000EDD8024629464FF0FF3000F037F8034B96
:1014000020461D60E4E700BF040000200800002023
:1014100010B5032000F018F800F00EFF064B18601E
:101420000F20FFF7CFFF044618B9FFF75FFE2046F5
:1014300010BD0124FBE700BF00000020014B18682D
:10144000704700BF800800200749CA6822F4E062A4
:101450000302120403F4E063120C134343F0BF636E
:1014600043F40033CB60704700ED00E0164B30B51D
:10147000DC68C4F30224C4F10703251D042B28BF34
:101480000423062D4FF0FF3505FA03F38CBF033C10
:10149000002421EA0303A34005FA04F422EA04022B
:1014A000002843EA0203ACBF00F16040074A4FEA5C
:1014B0000313B8BF00F00F00DBB2AABF00F5614014
:1014C000135480F8003330BD00ED00E014ED00E06F
:1014D000002808DB0123420900F01F0003FA00F096
:1014E000014B43F82200704700E100E000280DDBCB
:1014F0004309012200F01F0002FA00F02033044AE1
:1015000042F82300BFF34F8FBFF36F8F704700BFC8
:1015100000E100E00138B0F1807F0BD24FF0E02312
:10152000054A5861F02182F82310002007229861B3
:101530001A6170470120704700ED00E0C368A3B155
:10154000A1B1B1F5802F10D102681968D163596833
:10155000916399685163D96811631969D1615969B7
:10156000916199695161DB6913617047026819687B
:10157000D1615968916199685161DB68F4E770B590
:1015800006460C46FFF75AFF054632685368DB07EC
:1015900001D5002070BD611CF8D0FFF74FFF401B44
:1015A000A04201D8002CF0D10120F3E72DE9F04151
:1015B000794E04460F460FCE8CB06D460FC50FCE48
:1015C0000FC596E80F0085E80F00A36AE56903B927
:1015D000AD0023681A68002D00F0CD8022F4C042CF
:1015E00042F400521A601A6815F00F0642F0010228
:1015F0001A601FD04FEA15184FEA88080026B04538
:1016000023685ED8C5F3810200218A4240F08B80B6
:1016100015F0030540F09380013104299D60FBD152
:1016200039462046FFF7ABFF2368002800F09E8074
:101630001A6833E0AD08B54203D800200CB0BDE80D
:10164000F081A38FA16922689BB2204651F8233014
:101650009360A38F01339BB2A387A38F9BB251F8F2
:1016600023309360A38F01339BB2A387A38F9BB2D8
:1016700051F823309360A38F01339BB2A387A38FCC
:101680009BB251F823309360A38F01339BB2A387A1
:101690003946FFF774FF23681A6868B122F0010227
:1016A0001A60636D43F0100363650120002384F822
:1016B000510084F85030C1E742F080021A600436CD
:1016C000B9E7A28FA16992B2204651F822209A6010
:1016D000A28F013292B2A287A28F92B251F8222039
:1016E0009A60A28F013292B2A287A28F92B251F871
:1016F00022209A60A28F013292B2A287A28F92B268
:1017000051F822209A60A38F01339BB2A3873946F8
:10171000FFF735FF23681A680028BFD142F0800226
:101720001A6004366BE7A08FA66980B2013156F8C3
:1017300020009860A08F013080B2A08765E7A18F5C
:10174000A06989B2013250F82110606805EB4005AC
:101750000CA800EB850555F8300C0140996000217C
:10176000042A3FF45DAF99600132F9E71A6842F04C
:1017700080021A6062E7616822F006020A431A607A
:101780001A6822F4C04242F400521A601A6842F009
:1017900001021A60284651E75C41020810B5044670
:1017A000E8B190F8513003F0FF021BB980F85020E7
:1017B00001F0A0FDD4E9013021680A6803436069A3
:1017C00022F4A022034322F0660213430B600020A0
:1017D00001236065A06584F85130636410BD012069
:1017E000FCE738B50546012480B102684464002452
:1017F000C487A0F840408487136823F00103136076
:1018000001F098FD85F8514085F85040204638BDDC
:1018100070477FB5C38F456B02689BB2044655F88D
:1018200023309360C38F01339BB2C387C38F9BB2B6
:1018300055F823309360C38F01339BB2C387C38FA6
:101840009BB255F823309360C38F01339BB2C3879B
:10185000C38F9BB255F823309360C38F01339BB283
:10186000C387FFF78CFE88B12268136823F0010359
:101870001360636D43F010036365012384F85130F6
:10188000002384F850302046FFF7C2FF23681A680F
:1018900042F080021A60DA680092DA680192DA682F
:1018A000DB680393B4F84230029203339B08684626
:1018B0000021B4F8402092B29A4201D2042901D109
:1018C00004B070BDB4F84020A56B50F8046B92B220
:1018D000013145F82260B4F84020013292B2A4F8F8
:1018E0004020E6E7F0B5C36AB0F84250012B85B05E
:1018F00004460E461FD1826D012A1BD1C36D2B44B5
:10190000C365B4F84230AD08180718BF25F00305C9
:10191000FFF794FD0746E28FB4F8403092B295424B
:101920009BB201D99D4249D8B4F842301A0762D11E
:10193000002027E083652268A168E5650027A78766
:10194000136823F4C04313602046FFF7F7FD226AB3
:1019500023681168D9625168996291685962D268A6
:101960001A621A6842F001021A603146FFF707FE58
:1019700050B1636D84F8507043F01003012063652B
:1019800084F8510005B0F0BD2268136843F080036D
:10199000136031462046FFF709FE002840F087809B
:1019A000226802236364136823F4C04343F4804332
:1019B0001360136823F470031360A2E731462046D6
:1019C000FFF727FF711CA6D0FFF738FDC01BB04200
:1019D00001D8002E9FD12268136823F00103136001
:1019E000636D43F0100363650120002384F8510008
:1019F00084F85030C6E72168086800F01800102805
:101A000008BF08684FEA131202F1010208BF20F470
:101A100070004FEA021703F11005C3EB021208BF72
:101A200040EA0250A5EB070508BF0860AD08930720
:101A300018BF01350022AA422AD12B460022032BCF
:101A400032D931462046FFF79AFD0028C8D12368D5
:101A50001A6842F080021A60DA680092DA6801922D
:101A6000DA68DB68029203936A46A8423FF460AFEB
:101A7000B4F84030A16B52F8046B9BB2013041F8CE
:101A80002360B4F8403001339BB2A4F84030ECE757
:101A9000E38F606B9BB2013250F823308B60E38F91
:101AA00001339BB2E387C6E78A600133C7E70120B1
:101AB00068E7F0B5C36AB0F84250012B85B0044620
:101AC0000E461FD1826D012A1BD1C36D2B44C36505
:101AD000B4F84230AD08180718BF25F00305FFF72A
:101AE000ADFC0746E28FB4F8403092B295429BB20B
:101AF00001D99D4249D8B4F842301A0762D100207A
:101B000027E083652268A168E5650027A787136839
:101B100023F4C04313602046FFF710FD22692368B9
:101B20001168D9625168996291685962D2681A62E3
:101B30001A6842F001021A603146FFF720FD50B1E9
:101B4000636D84F8507043F010030120636584F8DE
:101B5000510005B0F0BD2268136843F080031360A4
:101B600031462046FFF722FD002840F08F80226892
:101B700002236364136823F4C04343F48043136077
:101B8000136823F470031360A2E731462046FFF781
:101B900040FE711CA6D0FFF751FCC01BB04201D81B
:101BA000002E9FD12268136823F001031360636D38
:101BB00043F0100363650120002384F8510084F88A
:101BC0005030C6E72168086810F0180F08BF086891
:101BD0004FEA131202F1010208BF20F470004FEA2D
:101BE000021703F11005C3EB021208BF40EA0250CE
:101BF000A5EB070508BF0860AD08930718BF0135BE
:101C00000022AA4233D12B460022032B3BD9314676
:101C10002046FFF7B4FC40B1012384F85130002383
:101C200084F850302046FFF7F3FD23681A6842F02D
:101C300080021A60DA680092DA680192DA68DB687A
:101C40000292039369460022AA423FF458AFB4F8C7
:101C50004030A06B51F8046B9BB2013240F8236016
:101C6000B4F8403001339BB2A4F84030ECE7E38F86
:101C7000606B9BB2013250F823308B60E38F0133ED
:101C80009BB2E387BDE78A600133BEE7012060E7CE
:101C9000F8B590F85160069D012E0446F0B240F070
:101CA000848094F850700226012F84F8516000F06F
:101CB0008280C4E90D13636A84F850000026E68729
:101CC000A4F840600BB9920092B22368A4F84220B5
:101CD0001A6822F018021A601A68384B1340602BF9
:101CE0005CD009D8402B0FD0354B134063B1636DE6
:101CF00043F020036365F8BDB3F5803FF7D1294673
:101D00002046FFF7EFFD4DE0E36A012B01D0042BE5
:101D100004D1A26D012A35D00123A365A168204614
:101D2000FFF70CFC63694BB1226923681168D96223
:101D30005168996291685962D2681A6222680223D6
:101D40006364136843F001031360E28FB4F8421038
:101D5000B4F8403092B2B2EB910F9BB24FEA9100CF
:101D600001D2984215D82268136823F0010313604A
:101D7000012384F851300123002084F8513084F885
:101D80005000B8E7042BD9D1A1682046FFF7D6FB55
:101D9000D4E729462046FFF73CFDD6E729462046F2
:101DA000FFF787FE0028A6D1E5E7636D43F008033F
:101DB000636501209FE730469DE700BF600001009A
:101DC000400001002DE9F041044690F85100069EC4
:101DD0000128C5B240F0048194F850700220012F10
:101DE00084F8510000F00281C4E90D13636A84F89D
:101DF00050500020E087A4F840000BB9920092B246
:101E00002368A4F842201A6822F0180242F0100257
:101E10001A601968764A0A40602A00F0D88009D80A
:101E2000402A0FD0734A0A4062B1636D43F0200329
:101E300063653EE0B2F5803FF7D131462046FFF7BB
:101E400051FDC8E0E26A012A01D0042A06D1D4F883
:101E50005880B8F1010F2FD00122A2656269A168F4
:101E6000402A00F0948094F83070002F40F0868073
:101E70001A6822F0180242F008021A602046FFF7A2
:101E80005DFB2268136843F0010313603146FFF7DE
:101E900076FB23681A68002837D022F001021A6006
:101EA000636D43F010036365012384F8513084F8B7
:101EB00050702846BDE8F081042A3BD16269A168D0
:101EC000402A7BD094F83070002F6ED11A6822F02F
:101ED000180242F008021A602046FFF72FFB226822
:101EE000136843F0010313603146FFF748FB236892
:101EF0001A6800284FD022F001021A60636D43F087
:101F00001003636584F85180D1E742F080021A60C3
:101F10001A6822F0180242F010021A6063694BB18D
:101F2000226923681168D96251689962916859627F
:101F3000D2681A62226802236364136843F00103C3
:101F40001360E28FB4F84210B4F8403092B2B2EBB2
:101F5000910F9BB24FEA910001D2984232D8226889
:101F6000136823F001031360012384F85130012327
:101F7000002584F8513084F850509AE72046FFF746
:101F8000DDFA2268136843F018031360C6E72046A1
:101F9000FFF7D4FAC2E742F080021A601A6822F012
:101FA000180242F010021A60C4E72046FFF7C6FA92
:101FB0002268136843F018031360BBE72046FFF75D
:101FC000BDFAB7E731462046FFF723FCB9E73146B3
:101FD0002046FFF76EFD054600287FF46AAFC6E78E
:101FE000636D43F008036365012562E7054660E71A
:101FF00060000100400001002DE9F04F524C002329
:102000004FF00F090A6832FA03F501D1BDE8F08FED
:10201000012505FA03F818EA020200F08E804E68E6
:10202000032706F003054FEA430E07FA0EFC6F1E66
:10203000012F6FEA0C0C32D8876807EA0C0ACF68C8
:1020400007FA0EF747EA0A078760476827EA080891
:10205000C6F300179F4047EA08074760C76807EACA
:102060000C088F6807FA0EF747EA0807022DC760C9
:1020700017D14FEAD30800EB880803F0070AD8F815
:1020800020704FEA8A0A09FA0AFB27EA0B0B0F694C
:1020900007FA0AF747EA0B07C8F8207001E0032D9A
:1020A000DCD1076805FA0EF507EA0C072F4316F492
:1020B000403F076041D023F0030707F1804707F551
:1020C000803703F0030CBD684FEA8C0C4FF0070E0D
:1020D0000EFA0CFEB0F1904F25EA0E0E2FD01B4DDC
:1020E000A8422ED005F58065A8420CBF0225072521
:1020F00005FA0CF545EA0E05BD602568D74316F4D0
:10210000801F0CBF3D4015432560656816F4001F15
:102110000CBF3D4015436560D4F8805016F4803FF5
:102120000CBF3D401543C4F88050D4F88450B6032A
:1021300054BF3D401543C4F88450013362E7002585
:10214000D6E70125D4E700BF000800580004004886
:102150000AB1816170478162704700004FF0B0435F
:1021600010B59A68D96812F00C0205D00C2A4AD131
:1021700001F00303012B50D14FF0B0412B480B6805
:1021800013F0080306D00B6813F0080337D1D1F819
:10219000941007E00C68240756BFD1F89430096802
:1021A000C3F3032350F82330002A0CBF1846002045
:1021B0004FF0B0418A6802F00C020C2A1ED1CA68A6
:1021C00002F00302022A2ED0032A06D10B68184A15
:1021D00013F4801F174B18BF13464FF0B042D0685E
:1021E000D168D268C0F306205843C1F3021301330B
:1021F000B0FBF3F0530F0133B0FBF3F010BD0B68ED
:10220000C3F30313CEE7042A0AD0082A05D11B68BA
:1022100013F4801304D10748CAE700231846C7E720
:1022200003480023C4E7024BD7E700BFC07A020887
:102230000024F4000048E80108B5FFF78FFF4FF0D5
:10224000B043044A9B68C3F3031352F82330B0FB36
:10225000F3F008BD607A0208034AD2F8903043F4E4
:102260000043C2F89030704700040058034AD2F887
:10227000903023F40043C2F89030704700040058B7
:1022800070470000074B1A6822F040021A6040F4C1
:1022900041704FF4B85218605A601A6842F0400218
:1022A0001A6070470000015837B5054600284ED027
:1022B000837903F0FF046BB1032C0BD0254B4FF453
:1022C00000629A612868FFF7DDFF002401232B716B
:1022D000AC602FE000236B712846FFF7D1FF1E4A48
:1022E000D2F8903043F48053C2F89030002CE5D1FE
:1022F00002234FF0B042AB71D2F8943023F4004384
:10230000C2F89430154B1B681C214B43DB0C642135
:102310004B430193019B93B90124AC60FFF79CFFF1
:102320000C4B9A6842F400629A604FF400629A6122
:10233000002CC7D00123AB71204603B030BD019BF8
:10234000013B0193D2F894305B04E3D4E6E7012427
:10235000F2E700BF00040058000800580000002009
:1023600037B5174D2B6802461C204343DB0C642015
:10237000434314480193019B93B901209060114C91
:1023800021732B681C214B43DB0C64214B430193CD
:10239000019B6BB9012090600A4BDB6803B030BD34
:1023A000019B013B019383689C07E4D50020E6E78D
:1023B000019B013B0193A368DB07E9D5ECE700BF74
:1023C000000000200000015837B5184D2B68024668
:1023D0001C204343DB0C6420434315480193019BBD
:1023E000A3B901209060124CFF2323732B681C2596
:1023F0006B43DB0C64256B430193019B73B9012094
:1024000090600B4BDB680B7003B030BD019B013B50
:10241000019383689C07E2D50020E4E7019B013B20
:102420000193A368DB07E8D5EBE700BF00000020BD
:10243000000001580F4B13B51B680F4C1822534373
:102440001B0D64225343014601936269019B02F014
:10245000040223B902238B60012002B010BD019B4E
:10246000013B0193606910F00200F6D0002AECD124
:102470001046F2E7000000200004005807B5037979
:10248000012B0FD10A4B1B68182253431B0C0193DD
:10249000FFF7ECFE019B013B0193019B002BF9D15F
:1024A000FFF7DAFE03B05DF804EBFFF7C3BF00BF30
:1024B00000000020F8B51E468379012B154604461E
:1024C0000F46DAB22DD14379012B2AD00223427173
:1024D0008371FFF7D3FF0D212046FFF7C7FEFFF7FB
:1024E0003FFF390A2046FFF73BFFF9B22046FFF7CE
:1024F00037FF2E44B5420ED12046FFF7ADFEFFF761
:1025000099FFA06801230038A3714FF0000318BFA2
:1025100001206371F8BD15F8011B2046FFF720FF6D
:10252000E8E70220F6E7F8B51E468379012B154649
:1025300004460F46DAB22FD14379012B2CD04271D9
:10254000FFF79CFF1D212046FFF790FEFFF708FFD5
:10255000390A2046FFF704FFF9B22046FFF700FFD3
:1025600000212046FFF7FCFE2E44B5420ED1204646
:10257000FFF772FEFFF75EFFA06801230038A3712A
:102580004FF0000318BF01206371F8BD29462046B3
:10259000FFF71AFF0135E8E70220F6E7F8B51F4616
:1025A0008379012B154604460E46DAB22CD14379C5
:1025B000012B29D04271FFF761FF06F0EF03A3F171
:1025C000840253425341237131462046FFF74EFEA9
:1025D000FFF7C6FE2F44AF4210D1FFF73DFE842E19
:1025E00002D02046FFF726FFA06801230038A37120
:1025F0004FF0000318BF01206371F8BD15F8011BEF
:102600002046FFF7ADFEE6E70220F6E7F8B51E46E6
:102610008379012B154604460F46DAB227D1437958
:10262000012B24D04271FFF729FF39462046FFF7DE
:102630001DFEFFF795FE00212046FFF791FE2E4478
:10264000B5420ED12046FFF707FEFFF7F3FEA06864
:1026500001230038A3714FF0000318BF01206371FC
:10266000F8BD29462046FFF7AFFE0135E8E7022016
:10267000F6E7F8B51E468379012B154604460F464A
:10268000DAB227D14379012B24D04271FFF7F6FE4D
:102690000E212046FFF7EAFDFFF762FE394620468D
:1026A000FFF75EFE2E44B5420ED12046FFF7D4FD63
:1026B000FFF7C0FEA06801230038A3714FF00003AC
:1026C00018BF01206371F8BD15F8011B2046FFF704
:1026D00047FEE8E70220F6E7F8B51E468379012BAE
:1026E000154604460F46DAB22BD14379012B28D088
:1026F0004271FFF7C3FE1E212046FFF7B7FDFFF72B
:102700002FFE39462046FFF72BFE00212046FFF71B
:1027100027FE2E44B5420ED12046FFF79DFDFFF760
:1027200089FEA06801230038A3714FF0000318BF91
:1027300001206371F8BD29462046FFF745FE0135AB
:10274000E8E70220F6E730B5046891FAA1F3B3FA9E
:1027500083F303255B0005FA03F324EA030391FAEC
:10276000A1F1B1FA81F1490002FA01F119430160C6
:1027700030BD2DE9F8430E460D6895FAA5F54FF0EA
:102780000109B5FA85F503274FF00F08346834FACC
:1027900005F302D10120BDE8F88309FA05F10C40E8
:1027A00054D072682146FFF7CEFF7268531E012B8A
:1027B0001BD8836894FAA4F1B1FA81F1490007FAB1
:1027C00001F123EA010194FAA4FCB368BCFA8CFC81
:1027D0004FEA4C0C03FA0CF30B4383604168F36837
:1027E00021EA040163430B434360C36894FAA4F1F4
:1027F000B1FA81F1490007FA01F123EA010194FAE3
:10280000A4FC3369BCFA8CFC4FEA4C0C03FA0CF3C1
:102810000B43022AC36016D1FF2CD6F814C017D878
:10282000016A94FAA4F3B3FA83F39B0008FA03F362
:1028300021EA030194FAA4F3B3FA83F39B000CFAA0
:1028400003F30B4303622146FFF77DFF01359DE74C
:10285000D0F824E0210A91FAA1F3B3FA83F39B00A4
:1028600008FA03F32EEA030391FAA1F1B1FA81F118
:1028700089000CFA01F10B434362E4E72DE9F041D2
:10288000076817F001070546884647D1D8F8102099
:10289000D8F8083001681343D8F814201343204AAD
:1028A0000A40134303604368D8F80C2023F44053D4
:1028B000134343608368D8F8182023F4407313430C
:1028C00083604FF4406000F085F9D8F8006004465A
:1028D00010B3D8F80440FCB1B3B2124A394632F80A
:1028E00013203B46FEF7A2F8090241EA1061630893
:1028F0000002C01822463B4641F10001FEF796F85F
:10290000C0F31300E8600120EB6AB6B223F00F03B6
:102910001E43EE62BDE8F0812046F5E70020F9E7AE
:10292000F3E9FFEF007B02084FF0B0431868C0F3F3
:10293000005070474FF0B0431868C0F380207047D4
:102940004FF0B043D3F89000C0F3400070474FF011
:10295000B0431868C0F3C000704700004FF0B043A8
:10296000044A9B68C3F3031352F82330B0FBF3F01F
:10297000704700BF607A02084FF0B043034A9B687B
:10298000C3F3022352F82330D8407047A07A0208DC
:102990004FF0B04238B5916801F00C01082951D0D0
:1029A00017D889B3042900F08C80FFF7D0FF46497F
:1029B0000246002876D1FFF7CAFF4FF0B043012846
:1029C00016BFD3F894201B68C2F3032251F82230BB
:1029D0002AE00C29E9D1D36803F00303022B5FD06E
:1029E000032B37D0FFF7B3FF374C014600284AD1FD
:1029F000FFF7ADFF012816BFD2F894101368C1F39A
:102A0000032154F821202CE0FFF7A1FF2E4D0446AE
:102A100060B9FFF79CFF012816BFD2F894401368F5
:102A2000C4F3032455F82430184638BDFFF78FFF50
:102A300001280ABF1168D2F89430C1F3031155F888
:102A40002130F1E7FFF770FF204A214B012818BF22
:102A50001346E9E7FFF768FF1C4A1D4B012808BF32
:102A60001A464FF0B040C368C168C068C3F306237C
:102A70005343400FC1F3021201320130B3FBF2F3B2
:102A8000B3FBF0F3D0E7FFF762FF01280BBF136839
:102A9000D2F89430C3F30313002354F82320E0E763
:102AA0000B4ADEE7FFF753FF4FF0B04301280BBF9F
:102AB0001B68D3F89430C3F30313002351F8233079
:102AC000B2E7034BB0E700BFC07A02080048E80154
:102AD0000024F40038B50446FFF75AFF2060FFF7E2
:102AE0003DFF4FF0B0416060D1F808210F4D2368E1
:102AF000C2F3031255F82220B3FBF2F2A260D1F820
:102B0000082102F00F0255F82220B3FBF2F3E36034
:102B1000FFF732FF20618A6805496368C2F3C22269
:102B200051F82220D340636138BD00BF607A0208AB
:102B3000A07A020810B54FF0B0440328D4F88830CA
:102B400029D1204A03F0030343F44033934209D0D0
:102B5000B3F1031F0CD0013A934210D1BDE81040ED
:102B6000FFF716BFFFF7E6FE012828D0002010BDB2
:102B7000FFF7E6FE0128F9D14FF40040F7E7FFF731
:102B800007FFFFF7EBFEA3680F4AC3F3C22352F817
:102B90002330D840EBE7034043EA00400B4B984218
:102BA000E0D0B0F10C1FE3D0043B9842D6D0FFF741
:102BB000EFFEFFF7D3FEBDE81040FFF7DDBE04488F
:102BC000D5E700BF02000300A07A020808000C004D
:102BD0000024F40008B54FF0B043D3F88830184013
:102BE000B0F5006F09D0B0F5406F0CD0B0F5806F34
:102BF00010D1BDE80840FFF7CBBEFFF79BFE0128D0
:102C000010D0002008BDFFF79BFE0128F9D14FF43A
:102C10000040F7E7FFF7BCFEFFF7A0FEBDE8084065
:102C2000FFF7AABE0048EDE70024F4001C4B9842D1
:102C30000AD14FF0B0431A6C42F400621A641A6C65
:102C400022F400621A640CE0B0F1804F0BD14FF017
:102C5000B0439A6B42F001029A639A6B22F0010230
:102C60009A63012070470F4B984209D14FF0B0434F
:102C70001A6C42F400321A641A6C22F40032E1E752
:102C8000094B984209D14FF0B0431A6C42F48022AC
:102C90001A641A6C22F48022D4E70020704700BF27
:102CA000002C014000440140004801401A4A0368DA
:102CB000904210B502D0B0F1804F09D14C6823F09A
:102CC0007003904243EA040309D0B0F1804F06D06C
:102CD000124A904203D002F58062904203D1CA6842
:102CE00023F44073134303608B68C3620B888362D1
:102CF000094B984207D003F5C053984203D003F51F
:102D00008063984201D10B690363436943F0010377
:102D10004361012010BD00BF002C01400044014070
:102D2000B1F5805F30B500F0F08009D8102975D07A
:102D3000B1F5807F00F0AE80012935D0002030BD94
:102D4000B1F5803F00F00E81B1F5801FF6D1036A26
:102D5000146823F480130362036A416D21F08071CB
:102D600021F4E04141EA0424116923F4001343EA09
:102D70000153516823F4801343EA01539149884277
:102D800007D001F5C051884203D001F58061884227
:102D900006D14168956921F4802141EA852141608D
:102DA000D2684465C26536E0036A156823F0010302
:102DB0000362036A4168846924F4803424F0730454
:102DC0002C43156923F002032B43556823F00103BC
:102DD0002B437C4DA84207D005F5C055A84203D02F
:102DE00005F58065A84212D1556923F0080343EA2E
:102DF0008503956823F0040343EA8503956921F46C
:102E000080712943D56921F4007141EA4501D268F6
:102E10004160846142630362012090E7036A1568A0
:102E200023F010030362036A4168846924F080740C
:102E300024F4E64444EA0524156923F0200343EA18
:102E40000513556823F0100343EA05135D4DA842AE
:102E500007D005F5C055A84203D005F58065A84206
:102E600013D1556923F0800343EA8513956823F055
:102E7000400343EA8513956921F4806141EA8501A5
:102E8000D56921F4006141EAC501D26841608461DD
:102E90008263C0E7036A156823F480730362036AE0
:102EA0004168C46924F4803424F073042C43156908
:102EB00023F4007343EA0523556823F4807343EA3F
:102EC0000523404DA84207D005F5C055A84203D0C0
:102ED00005F58065A84213D1556923F4006343EAE0
:102EE0008523956823F4806343EA8523956921F45B
:102EF000805141EA0511D56921F4005141EA45119B
:102F0000D2684160C461C26385E7036A156823F42F
:102F100080530362036A4468C16921F0807121F41F
:102F2000E64141EA0521156923F4005343EA0533DC
:102F3000556823F4805343EA0533224DA84207D055
:102F400005F5C055A84203D005F58065A84204D117
:102F5000956924F4804444EA8514D2684460C161D0
:102F6000026458E7036A146823F480330362036A37
:102F7000416D21F4803121F070010C43116923F47B
:102F8000003343EA0143516823F4803343EA0143A9
:102F90000C49884207D001F5C051884203D001F5A1
:102FA0008061884206D14168956921F4803141EA07
:102FB000052141604465816DD268090C0904114303
:102FC000816528E7002C014038B50368DB0704461B
:102FD0000D464DD42A69AB68016813436A691343EF
:102FE000EA691343234A0A40134303604368EA68CB
:102FF00023F44053134343608368AA6923F4407366
:10300000134383601C4B984220D10320FFF792FDAD
:10301000F8B16A68EAB12B680B2B15D8174951F83B
:103020002330E969B0FBF3F3B1F5004F4FEA5200EA
:1030300019D100EB43034FF6F070B3FBF2F31840E5
:10304000C3F342030343E360012003E00C4B9842C7
:1030500007D00020E26A2B8822F00F021343E362BC
:1030600038BD0C20D2E70344B3FBF2F39BB2EAE78E
:103070000020F5E7F369FFEF00380140187B0208F4
:1030800000440040014B1860704700BF0000002062
:103090000020704708B503282ED8DFE800F002139F
:1030A0001A26002215480821FFF752F8002213487B
:1030B0001021FFF74DF80022BDE808400F482021FD
:1030C000FFF746B801220D480821FFF741F8012219
:1030D000EDE7012209480821FFF73AF801220748E5
:1030E0001021FFF735F80122E6E701220348082105
:1030F000FFF72EF80022F2E708BD00BF00080048E5
:1031000030B5002489B0CDE905444FF0B0430794B1
:10311000DA6C164D42F00402DA64DA6C02F0040252
:103120000292029ADA6C42F00402DA64DB6C03F079
:10313000040301931022019B0123CDE9032303A97A
:10314000032328460693FEF757FF202303A92846AA
:103150000393FEF751FF082303A928460393FEF7C4
:103160004BFF2046FFF796FF09B030BD000800482E
:10317000022070473C4B30B518603C4B19604FF053
:10318000B04391B0D3F8882022F44062C3F888207D
:10319000DA6D42F00102DA65DA6D02F001020292A4
:1031A000029ADA6C42F00102DA64DB6C03F001038C
:1031B00001930C25019B02230024CDE903530DEB61
:1031C000050108234FF090400893CDE9054407948A
:1031D000FFF7CFFA1C22214609A81FF051FF4FF438
:1031E000E13323480A9309A90E95FFF747FB214ACB
:1031F00052E8003F23F0604343F0204342E80031AF
:103200000029F5D152E8003F23F0606343F02063CA
:1032100042E800310029F5D1154B9A6822F480521A
:103220009A609A6842F400529A601A6842F0010269
:103230001A60114AD268114A82F826134021C2F856
:103240008411516053E8002F42F0200243E800212E
:103250000029F7D153E8002F42F0400243E8002153
:103260000029F7D111B030BD8C080020880800205B
:10327000008000400880004000ED00E000E100E038
:10328000014B9862704700BF00800040014B586AB4
:10329000C0B2704700800040124BDA69900604D536
:1032A000114B124A1B6810681847DA6951060CD492
:1032B000DA69D2070DD4DA6990070DD4DA695107BB
:1032C0000CD4DA6912070BD4704740221A62084BFB
:1032D000E7E701221A6270470222FBE70422F9E7BE
:1032E0000822F7E7008000408808002084080020BA
:1032F0008C08002007B50E4B02689A4215D14FF09A
:10330000B04333201A6D42F400321A651B6D00225F
:1033100003F4003301931146019BFEF7A7F8332015
:1033200003B05DF804EBFEF7D3B803B05DF804FB1F
:10333000001800580268064B9A4208D14FF0B0427C
:103340003320136D23F400331365FEF7CFB87047B5
:103350000018005810B50B4A0B4C0423C4E9002395
:103360000A4A0023C4E9032320460122C4E90922B2
:10337000A3606361E362FEF734FA2046BDE81040C3
:10338000FEF70CBA00180058A00800209008002092
:1033900043780178154A1B0403EB0163C1780B44A1
:1033A000817803EB01231360437901791B0403EB5C
:1033B0000163C1790B44817903EB01235360437AA4
:1033C000017A1B0403EB0163C17A0B44817A03EB9E
:1033D00001239360437B017B1B0403EB0163C17BEF
:1033E0000B44817B03EB0123D360704790080020DE
:1033F00070B58AB00446034602AD00F110061868A5
:1034000059682A4603C20833B3421546F7D142F23F
:1034100010730093102206AB084802A9FEF738FC8F
:103420000AAD06AA2346144603CCAC421860596084
:10343000224603F10803F6D10AB070BDA0080020AF
:1034400070B58AB00446034602AD00F11006186854
:1034500059682A4603C20833B3421546F7D142F2EF
:1034600010730093102206AB084802A9FEF7AAFCCD
:103470000AAD06AA2346144603CCAC421860596034
:10348000224603F10803F6D10AB070BDA00800205F
:1034900010B5044600F05AF9084B1A783AB10848BA
:1034A0002146FDF7F3FDBDE8104000F05FB90122B1
:1034B00020461A70FFF7E4FEF5E700BF900C0020ED
:1034C000940D002007B500F041F909480DF10701FE
:1034D000FDF7F3FD40B19DF80700FFF7D1FE00F0C6
:1034E00045F903B05DF804FB024B1870F7E700BF25
:1034F000940D0020900C002010B5FFF7C7FE044685
:1035000000F024F921460348FDF7C0FDBDE8104056
:1035100000F02CB97C0C0020A0F17D03012B10B52C
:10352000044604D87D20FFF7B3FF84F02000BDE8F7
:103530001040FFF7ADBF00004140C9B2024B33F865
:10354000113083EA10207047507B020808B50A4901
:103550000A484FF40072FDF787FD094909484FF406
:103560008072FDF781FD084B0849094800221A7056
:10357000BDE80840FFF7FEBD790A00207C0C002062
:10358000920C0020940D0020900C0020F9340008CB
:10359000C534000870B505467E200E46FFF778FF5B
:1035A0002E444FF6FF74B5420CD1E04384B2C0B252
:1035B000FFF7B2FF200AFFF7AFFFBDE870407E20A3
:1035C000FFF766BF15F8012B20461146FFF7B4FF41
:1035D00004461046FFF7A0FFE5E700002DE9F3479A
:1035E000DFF81891DFF8188106460F460025484697
:1035F000FDF749FD0446002867D055B3DFF8048184
:10360000D8F80040002C62D0DFF8FCA04FF0000991
:103610004FF6FF705246A51E4D455CD8C343505D22
:1036200099B2DBB29842364B62D1224412F8012C97
:10363000B2EB112F5CD101220024BD421A70C8F8F0
:1036400000404FD830492A4630461FF00BFD2C462B
:103650003DE000F07BF80DF107014846FDF72DFD38
:1036600000F084F898F800109DF80730274849B911
:103670007E2B05D1012288F80020224A002111600A
:103680000370B4E77E2B1F4A09D104787E2C1AD030
:10369000126888F80050022AECD90D46F0E711684C
:1036A000C7290ED87D2BEBD0047801F1010C7D2CBD
:1036B000154CC2F800C00ABF83F020026354625464
:1036C000DEE788F800501560DAE7002D96D1204635
:1036D00002B0BDE8F0871AF8011BFFF72DFF09F1D2
:1036E000010999E708493A4630461FF0BBFCEEE76E
:1036F000012200241A70C8F80040E8E77C0C002082
:10370000780A0020740A0020AC090020910C0020E7
:1037100082B000230A4A0193019B93420CDDBFF360
:103720004F8F0849084BCA6802F4E0621343CB602C
:10373000BFF34F8F00BFFDE7019B01330193EBE720
:103740003F420F0000ED00E00400FA05EFF31081A6
:1037500072B6044B1A680AB9034A11601A6801323A
:103760001A607047A80D0020AC0D0020074B1A68A6
:10377000013A1A601A68002ABCBF00221A601B684E
:103780001BB9034B1B6803B962B67047A80D002034
:10379000AC0D0020014BD3E9200170470075FF1FDD
:1037A000024BC3E900019A60704700BFB00D0020D2
:1037B00008B500F0A9FA012000F090FA002008BD39
:1037C00070B524228AB000214B481FF059FC4FF0FD
:1037D000B0434A485A6E42F001025A665A6E02F0ED
:1037E00001020092009A5A6C42F001025A645A6C2B
:1037F00022F001025A6400230360FEF755FD0446DF
:1038000000B1FEE700F0A8FC3D4BDB68C3F30223E8
:10381000C3F10702042A03F1040128BF0422062988
:1038200088BFDC1E4FF0FF339340DB4303F00303FC
:10383000A340344A1B01DBB282F832334FF48023B9
:10384000536000F0A5FA0021084600F073FB042243
:103850000021012000F0BEFC0B2100231A4608467F
:1038600000F00EFB00250020234C00F085FA2846CE
:10387000257300F0BDFB44F6906301A8CDE9013546
:1038800000F018FD8DF80C504CF250338DF81850A4
:103890001D491E4D0493012244F62066002351F871
:1038A0003300281A82421ED901EBC3031B798DF81D
:1038B000193003A843F2D403059300F0AFFB144B77
:1038C00023614FF280234025A3821248E581012322
:1038D000A37500F021FD284600F0C6FAFFF768FF47
:1038E00000200AB070BD0133162BD8D10132B2428C
:1038F000D4D11F23DBE700BFB00D0020D40D002082
:1039000000ED00E000E100E0EC7D0208A08601008F
:1039100005100001BC0D0020F8B50F461C4640F212
:10392000012100230646154608461A4600F0A8FA6B
:10393000FFF7AEFB384440B200F0C2FD012100F0B9
:10394000A9FD094B094800FB063000F0CBFA0848F6
:10395000E4B204750C3000F0DFFC2246294600205A
:1039600000F088FD0020F8BD60DC7133A086010006
:10397000B00D002010B500F089F90446002000F0D9
:10398000CFF9044A13681BB1906804F1C801984745
:10399000002010BDB00D002038B5054609480024B0
:1039A0008023037504840C3000F0B6FC21462046C9
:1039B00000F070FD044B054800FB053000F092FA62
:1039C000204638BDB00D002060DC7133A0860100B8
:1039D00008B54A21002308461A4600F051FA6FF054
:1039E0007F4000F0B3F9002008BD00002DE9F04F42
:1039F000DFF8888098F8205087B004468B46174639
:103A0000002D36D001A800F0A3FA00220DF102012A
:103A10000DF1030098F821608DF802208DF8032045
:103A20009DF808909DF909A000F016FC9DF8033060
:103A30009DF80200802B92BF194680210026BB42D0
:103A400082BFF9B200221646002B0A4659461D468F
:103A500008BF002600F016FD0023A8F820302046FD
:103A600084F800A084F80190A670656007B0BDE8F6
:103A7000F08F2E46A9466FF07F0AF0E7B00D0020C8
:103A8000004870470C00002037B500F0FFF8022313
:103A900001AA122105462448FEF7B8FDBDF80440EE
:103AA0002148022364BA1946A4B201AAFEF776FDA2
:103AB000210707D51D4A136823B1A5F2A4659068B4
:103AC00029469847E20705D5184A536813B190680C
:103AD000294698476308A20943EA9414E30721D5CD
:103AE000124B93F82010E9B9D24302F0010283F897
:103AF0002120012283F820205A681AB19868A5F184
:103B000046019047002140F6021000F061FA40F6AD
:103B1000441000F0FBFA40F00201C9B240F6441034
:103B200000F056FA03B030BDD40D0020B00D0020D7
:103B300000F06CBC30B5054695B04FF080400C46A7
:103B4000FFF774F8384B1D60384B1C604FF0B043E2
:103B50009A6D42F001029A659B6D03F00103009398
:103B6000009B334BDA68C2F30222C2F10703111D36
:103B7000042B28BF042306294FF0FF3101FA03F379
:103B80006FEA03038CBF033A002203F00303934060
:103B900001FA02F2D24302F0010213431B01254A4B
:103BA000DBB282F81B334FF00063136006A84FF0BE
:103BB0008044FEF78FFF069B1F4AB3FBF2F3013BE5
:103BC0000025ADF8043001A96FF060434FF080404C
:103BD000CDE90253CDE90455FFF768F8236823F0D7
:103BE00080032360A36823F4A03323F00703A360BA
:103BF000294620220CA81FF043FA0CAA01212046D6
:103C0000FFF78EF8A36923F00403A361636823F030
:103C100070036360A36823F08003A360236843F00C
:103C20000103236015B030BDE00D0020E40D00203D
:103C300000ED00E000E100E048E8010010B50446B6
:103C4000FFF784FD4FF080434FF000605A6AD96857
:103C500041F00201D9606FF0020119610A49A4EB39
:103C6000C202C1F88001143A6FF000418A422BBFB2
:103C70005A69E40842F002025C6328BF5A61BDE859
:103C80001040FFF773BD00BF00E100E04FF080433C
:103C9000586AC00070476FF0004070474FF0804393
:103CA0001A6992070CD56FF002021A61DA6822F0E5
:103CB0000202DA60034B1B6813B1034A106818470D
:103CC000704700BFE00D0020E40D002013460A46B7
:103CD00001460148FEF762BCD40D002007B5012261
:103CE0008DF807000DF107018020FFF7EFFF9DF829
:103CF0000730002B034B0CBF012202221A7003B0C5
:103D00005DF804FBEE0D0020002208B51146C1202D
:103D1000FFF7DCFF014B03221A7008BDEE0D0020F7
:103D200007B5094B8DF8060004221A70030C8DF8B4
:103D300004300322030A01A983208DF80530FFF720
:103D4000C5FF03B05DF804FBEE0D002007B5094B7D
:103D50008DF8060005221A70030C8DF8043003223A
:103D6000030A01A982208DF80530FFF7AFFF03B0E9
:103D70005DF804FBEE0D002007B501228DF8070069
:103D80000DF107019F20FFF7A1FF03B05DF804FBD1
:103D900007B5064B01221B788DF807300DF107019E
:103DA0009620FFF793FF03B05DF804FB4C7B0208FD
:103DB00007B500F07F008DF8070001220DF1070123
:103DC0008920FFF783FF03B05DF804FB184B98428E
:103DD00007B50DD9E1238DF80430E9238DF80530BE
:103DE000022201A99820FFF771FF03B05DF804FBE0
:103DF000104B984204D9D7238DF80430DB23EDE72C
:103E00000D4B984204D9C1238DF80430C523E5E752
:103E10000A4B984204D975238DF804308123DDE7DD
:103E2000074B9842DCD96B238DF804306F23D5E71C
:103E300000E9A43580F8A9328044E52D000B6B1B06
:103E400040FC541907B58DF8062004228DF80400B3
:103E50008DF8051095200DEB02018DF80730FFF766
:103E600035FF03B05DF804FB07B501228DF80700AC
:103E70000DF107019320FFF729FF03B05DF804FB64
:103E800013B5040A8DF801008DF80310080A8DF8A7
:103E90000520110A1A0A8DF8062008228DF8020062
:103EA0008DF80410104669468DF800408DF80730F3
:103EB000FFF70CFF02B010BD07B50B0C042200F099
:103EC00007008DF804008DF805308DF807100B0AF7
:103ED00097200DEB02018DF80630FFF7F7FE03B0D7
:103EE0005DF804FB37B5114D2B7804461BB9FFF77D
:103EF0006DFF01232B700E4B60061A68E109002349
:103F0000FCF794FD030E8DF804300422030C8DF8A9
:103F100005308DF80700030A0DEB020186208DF8AD
:103F20000630FFF7D3FE03B030BD00BFEC0D00201C
:103F3000487B020807B502228DF804008DF80510B1
:103F40008F2001A9FFF7C2FE03B05DF804FB00005B
:103F500013B50323044601AA1A481421FEF756FBA1
:103F6000194B1A7822704AB1012A17D01422002165
:103F700020461FF085F80F2323700DE09DF80430D4
:103F800023719DF80530A2605B425B10A3719DF820
:103F900006305B425B10637102B010BD9DF80430C7
:103FA0005B425B1023739DF9053002339B106373F2
:103FB0009DF806305B425B10A373044B1B682361C2
:103FC000EAE700BFD40D0020EF0D0020E80D00202F
:103FD00007B501238DF807100DF1070201460348CC
:103FE000FEF768FA03B05DF804FB00BFD40D0020B3
:103FF00007B5094B8DF807000146187018B940F253
:10400000AC60FFF7E5FF01220DF107018A20FFF701
:104010005DFE03B05DF804FBEF0D002013B5384AD8
:104020000446516810686B4603C3364B20781B78F2
:10403000834201D0FFF7DCFF2378032B2AD8DFE887
:1040400003F0023E2B49304B61681A685301B3FB01
:10405000F1F3190C8DF80010190A8DF801108DF884
:104060000230A168237B8DF80330637B8DF8043028
:1040700048060023C909FCF7D9FC030C8DF805306C
:10408000030A8DF806308DF80700082269468B2058
:10409000FFF71CFE02B010BD1B4B22691B685B01C1
:1040A000B3FBF2F31A0C8DF800208DF802301A0AD7
:1040B000237D8DF801208DF803300422E6E7237E6E
:1040C0008DF80030637E8DF80130A37E8DF80230CC
:1040D000E37EF0E70C4B62681B685B01B3FBF2F315
:1040E0001A0C8DF800208DF802301A0A237B8DF807
:1040F0000330637B8DF801208DF804300522C5E77D
:104100008C410208EF0D0020487B020807B501230F
:1041100001460DF107020448FEF705FA9DF8070075
:1041200003B05DF804FB00BFD40D0020094B1B78E1
:1041300010B5044663B140F62310FFF7E7FF00F027
:10414000F901214340F62310BDE81040FFF740BFBE
:1041500010BD00BF4C7B020810B508B1174B1860AA
:104160000220FFF7E3FF0024154B20461C70FFF7E9
:10417000B5FD144B1B789BB1134B40211878FFF70A
:104180009BFE40F611102146FFF722FF4FF07F0003
:10419000FFF70EFEFEF7B4FF0C4B01221A7010BDA4
:1041A0000B4B1C7840F611102146FFF711FF2146FA
:1041B00040F61210FFF70CFFECE700BFF00D0020F7
:1041C000EC0D00204D7B02084E7B0208EE0D002016
:1041D0004F7B0208012837B503460C46154620D10F
:1041E0000F2C02464FF000010CBF06200420FFF701
:1041F00029FE6FF010018C42B8BF0C460E2CA8BFF0
:104200000E24182140F6E700FFF7E2FE022201A982
:104210008E208DF804408DF80550FFF757FD03B050
:1042200030BD40F6D800FFF771FF40F01E01C9B263
:1042300040F6D800FFF7CCFE07210123002204201E
:10424000FFF700FE6FF008018C42B8BF0C46162C39
:10425000A8BF16243821D5E737B5022304460D46FA
:104260000D4801AA1321FEF7D1F90C4B1B78012B45
:104270000DD10B4B1B78012B09D140F20270FFF7D7
:1042800045FF20709DF805302B7003B030BD9DF8C0
:1042900004302370F6E700BFD40D0020EF0D00209E
:1042A000ED0D002013460A4601460148FEF702B90B
:1042B000D40D002008B5014608224FF4D860FFF75E
:1042C000F1FF002008BD000007B5030A8DF8043097
:1042D000064B8DF805001B782BB9022201A940F28C
:1042E000BC60FFF7DFFF03B05DF804FBEF0D0020BB
:1042F00007B5030A8DF80430064B8DF805001B78CE
:104300002BB9022201A940F2BE60FFF7CBFF03B038
:104310005DF804FBEF0D00201FB5354A0446D16857
:104320009068127C01AB03C31A70324B20781B7863
:10433000834201D0FFF75CFE2378032B2ED8DFE801
:1043400003F002403B02637AF12B29D14FF6FF7054
:10435000FFF7BAFF48F20500FFF7CAFF02236288A1
:104360008DF80520110A22798DF8062062798DF8E2
:104370000720A2798DF80820E2798DF809208DF8C0
:104380000B30227AA37A8DF80A208DF804108DF86C
:104390000C30092201A98C20FFF798FC04B010BD55
:1043A000F22BDCD141F60F50FFF78EFF41F22100D6
:1043B000FFF79EFF0623D2E7237B8DF8043001220E
:1043C000E8E7E3898DF805301A0A8DF804200A4AD7
:1043D000237C13708DF80630637C8DF80730A37C46
:1043E0008DF80830E37C8DF809300622D2E700BF53
:1043F0008C410208EF0D0020ED0D002013460A4607
:1044000001460148FEF78FB8D40D002073B5002691
:1044100040F6E2000196FFF779FE00F0FE01054646
:1044200040F6E200FFF7D4FD40F6E500FFF76EFE30
:1044300000F07F01044640F6E500FFF7C9FD6FF08C
:104440007F40FFF783FC04220DEB020140F61900C8
:10445000FFF7D4FF3046FFF741FC294640F6E20063
:10446000FFF7B6FD214640F6E500FFF7B1FD0198E4
:1044700002B070BD13460A4601460148FEF7F9B87E
:10448000D40D002013460A4601460148FEF724B920
:10449000D40D0020012908B5034608460ED1012B92
:1044A00007D10420FFF742FE0220BDE80840FEF7D6
:1044B000F1BD022B14BF08460320F6E70120F4E704
:1044C00038B50546FEF754FE012804460CD00228F4
:1044D0000CD10F2DCCBF04460124204602222946D0
:1044E000FFF778FE204638BD0224F6E70124F4E702
:1044F00080B489B000AFF860B9607A60FB68FB6196
:10450000BB68BB617B687B6100233B610DE0BA69DE
:104510003B691A4479693B69CB1A013BF9690B4441
:1045200012781A703B6901333B617A693B699A42A0
:10453000EDD800BF00BF2437BD4680BC70470000E7
:1045400080B483B000AF0346FB71FB79052B19D80B
:1045500001A252F823F000BF71450008854500080C
:1045600075450008814500087D450008794500082B
:10457000002308E0082306E00A2304E0092302E000
:104580000B2300E0012318460C37BD4680BC704762
:1045900090B583B000AF174B1B687B600BF016F92A
:1045A00012F012F90FF0CEF81BF0AEFE1BF09CFCDF
:1045B00017F0F7FC19F02CF819F0BCF819F0E4FA30
:1045C00006F032FE7B6803F54053D3F86831002BC8
:1045D0000BD07B6803F54053D3F8684100F02EFE02
:1045E00002460B4610461946A04700BF0C37BD4691
:1045F00090BD00BF2C00002080B500AF0BF008F983
:1046000012F01AF90FF0D0F81BF084FE1BF088FCB2
:1046100017F0CDFC19F002F819F0A4F819F0D6FA49
:1046200006F010FE00BF80BDB0B588B002AF786064
:104630007B68002B04D161220A490B48FCF738FC47
:104640007B689C687B6818687B681D7B7B68D3E906
:1046500004237968896900912946A04700BF18376B
:10466000BD46B0BDA0410208084202082DE9B04F86
:1046700096B002AF7862654B1B68BB640023FB6495
:10468000B9E0BA6CFB6C5B01134403F53F533C3358
:104690001B781F2B00F0AC807A6AFB6C5B01134423
:1046A0002833D3E90023B3F1FF3F08BFB2F1FF3F46
:1046B00000F09E807B6AD3E902014FF000024FF0C8
:1046C000010302FB01F500FB03F42C44A0FB02AB49
:1046D00004EB0B039B467B6A5B6900223B617A61BA
:1046E000D7E904341A461AEB0202BA6023464BEBB0
:1046F0000303FB60D7E90234C7E91034BA6CFB6CE2
:104700005B01134403F540530833D3E900452246C7
:104710002B464FF000004FF00001590141EAD261F1
:10472000500102460B46B2EB040863EB05094FF05B
:1047300000024FF000034FEA890343EA98734FEAFF
:1047400088029046994618EB0403BB6149EB0503C8
:10475000FB614FF000024FF00003D7E90645294600
:10476000CB0020462946044643EA54730146CA005A
:104770001C461346C7E90634C7E90E34D7E90E01D3
:10478000D7E91023841A3C6061EB03037B60D7E90F
:104790000034C7E90C344FF000024FF001034FF032
:1047A00000004FF00001500840EAC3705908D7E9F3
:1047B0000C23904271EB03031AD3BA6CFB6C5B01C0
:1047C000134403F53F533C331C78386B7B6A5969BB
:1047D000FB6C5B0103F53F523832BB6C1344019311
:1047E0000B4B00930B4602460121204605F00CFBC3
:1047F000FB6C0133FB64FB6C0A2B7FF642AF00BFFE
:1048000000BF5037BD46BDE8B08F00BF2C00002070
:104810002946000890B58DB002AFF860C7E90023C3
:104820000B46FB72BB6B002B04D19422274928480E
:10483000FCF73EFBBB6B7B62264B1B683B627B6AD3
:104840005B69002B0ED14FF000004FF001014FF0DB
:1048500000024FF00003420842EAC1724B087B6A33
:104860005A6102E07B6A00225A613A6AFB685B0186
:10487000134403F53F533C331C784FF000004FF0D6
:1048800001014FF000024FF00003420842EAC172FA
:104890004B0810467B6A5969FB685B0103F53F537F
:1048A00038333A6A134401930B4B00930B4602468C
:1048B0000121204605F0A8FA00F0BEF9786AFFF75A
:1048C000D5FE00BF2C37BD4690BD00BFA0410208F9
:1048D000084202082C00002029460008B0B592B01A
:1048E00002AF78607C4A07F1300392E8030083E866
:1048F00003007A4A07F1300393E8030008F012FF3F
:10490000774B1B68BB637B68002B0BD0BB6B03F53D
:1049100000531A467B6802F6C8741D460FCD0FC4BB
:104920002B6823600023FB633BE0BA6BFB6B5B01EE
:10493000134403F53F533833FA6B1A60BA6BFB6BC1
:104940005B01134403F53F533C331F221A70BA6BCB
:10495000FB6B03F5C0735B01134400221A60BA6B52
:10496000FB6B03F5C0735B0113440433FF221A7021
:10497000BA6BFB6B5B01134403F5405308334FF0F4
:10498000FF304FF0FF31C3E90001BA6BFB6B5B01F5
:10499000134403F54053103300221A60FB6B0133BC
:1049A000FB63FB6B0B2BC0D1BB6B03F500531A46AB
:1049B0000023C2F8F03F05F0A1F9FEF701FFFEF772
:1049C000C9FC06F073FF00F0BBFC02F0A5FF05F088
:1049D000ABFC0AF023F905F0B9FF0AF035FD10F041
:1049E000E1F911F0B3FE00F069FE0EF08DFE0EF05D
:1049F0005BFC1BF06BFA1BF077FC17F0CCFA18F09D
:104A000001FE18F0D7FF1BF0E1FD06F0E1FB344B8F
:104A10001B6803F54053002283F85821BB6B03F554
:104A20003F53203319462F4800F06CF90246BB6B08
:104A300003F50053C3F8E02FBB6B03F500531A4690
:104A40000023C2F8F43F244A07F1280392E8030048
:104A500083E80300BB6B03F50053D3F8E03F224A21
:104A600007F1280103C908F05DFEBB6B03F5005395
:104A7000D3F8E03FBA6B5B01134403F53F533C337B
:104A80001C784FF000004FF001014FF000024FF092
:104A90000003420842EAC1724B081046BB6B03F5A3
:104AA0000053D3F8F41FBB6B03F50053D3F8E03F7A
:104AB0005B0103F53F533833BA6B134401930B4B3F
:104AC00000930B4602460121204605F09DF9002384
:104AD00018464037BD46B0BD5C4202080C42020891
:104AE0002C0000201548000828420208294600082A
:104AF00080B588B000AF786039603B68102B01D971
:104B0000022324E0144B1B68FB61FB6903F500538F
:104B10001A460023C2F8C43F7B68002B12D03B68C2
:104B2000002B0FD0FB6903F53E5334333A687968A4
:104B300018461EF097FAFB6903F500531A463B68C6
:104B4000C2F8C43FFFF724FD04F0BCFC0023184664
:104B50002037BD4680BD00BF2C00002080B582B04C
:104B600000AF786078681BF03FFD03461846FFF7FA
:104B7000E7FC034618460837BD4680BD80B582B0C5
:104B800000AF786078681BF069FD03461846FFF7B0
:104B9000D7FC034618460837BD4680BD80B586B0B1
:104BA00002AFF860B9603B601346FB80FB68002BE6
:104BB00002D03B68002B01D102230DE0BB69DBB2C0
:104BC000FA8800933B68F968B8681BF06DFD0346EE
:104BD0001846FFF7B5FC034618461037BD4680BDA2
:104BE000B0B500AF06F078FE124B1B6803F54053DA
:104BF00093F85831002B1AD000F01EF80D4B1B68AB
:104C000003F545532033D3E90023841A61EB0305F0
:104C100040F6A1739C4275F1000308D3FFF7ECFC4A
:104C2000044B1B6803F54053002283F8582100BF52
:104C3000B0BD00BF2C0000202DE9F04F87B000AFC1
:104C40002F4B1B687B61FEF781FD05F0EFF93861A2
:104C50007B6903F50053D3F8F03F3A699A4212D2C8
:104C60007B6903F53F53303353E90223511C39600C
:104C700043F100037B607B6903F53F533033D7E991
:104C8000001243E902127B6903F500531A463B699F
:104C9000C2F8F03F7B6903F53F53303353E90223F9
:104CA0004FF000004FF0010100FB03FC02FB01F696
:104CB0006644A2FB004573191D46C7E90245C7E9D2
:104CC00002453B69002298469146D7E9022312EB40
:104CD000080A43EB090BC7E902ABFEF747FDD7E92A
:104CE00002014FF47A724FF00003FBF79FFE024679
:104CF0000B46104619461C37BD46BDE8F08F00BF75
:104D00002C00002080B58AB000AF786039607B68E5
:104D1000002B02D14FF0FF3377E03E4B1B683B6224
:104D200000237B625EE03A6A7B6A5B01134403F511
:104D30003F533C331B781F2B51D1012005F000F865
:104D4000034619463A6A7B6A5B01134403F53F53F5
:104D50003C330A461A703A6A7B6A5B01134403F5D6
:104D60003F533C331B781F2B28D03A6A7B6A03F5EC
:104D7000C0735B0113447A681A603A6A7B6A5B010C
:104D8000134403F5405310333A681A603A6A7B6A59
:104D90005B01134403F5405308334FF0FF304FF0ED
:104DA000FF31C3E900013A6A7B6A03F5C0735B0116
:104DB00013440433FF221A707B6A26E0164A07F177
:104DC000100392E8030083E80300144A07F110037C
:104DD00093E8030008F0A6FC4FF0FF3315E07B6A70
:104DE00001337B627B6A0A2B9DD90B4A07F10803CA
:104DF00092E8030083E80300094A07F1080393E8F7
:104E0000030008F08FFC4FF0FF3318462837BD46EB
:104E100080BD00BF2C0000203C430208CC420208A9
:104E2000044302082DE9B04FB4B002AFF865C7E9FA
:104E300014230B4687F85B30754B1B68C7F8C430EA
:104E4000FB6D0A2B01D90223B2E197F85B30002BEE
:104E500005D097F85B30012B01D00223A8E1D7F8E9
:104E6000C420FB6D5B01134403F53F533C331B78B7
:104E70001F2B01D102239BE1D7F8C420FB6D03F562
:104E8000C0735B0113441B68002B01D101238FE128
:104E900097F85B30012B40F0A88007F17C0207F106
:104EA0008003114618460EF07BF90346002B00F0F4
:104EB0009A80D7F8800097F884301946554B1B69C3
:104EC00003F5FA72544BA3FB02239B090022BB6437
:104ED000FA64BB6C03FB01F2FB6C00FB03F31344AD
:104EE000BA6CA0FB02452B441D46C7E92E45C7E915
:104EF0002E4505F09BF8034600223B647A64FB6F65
:104F00000022BB63FA63D7E910120846D7E90E34D2
:104F10001D46401B3863234662EB03037B634FF45B
:104F20007A724FF00003D7E90C01FBF72FFD024620
:104F30000B4610461946D7E92E238418BC6241EB74
:104F40000303FB62D7E90A34C7E92C34D7E91423F9
:104F5000511C396243F100037B62D7E92C23D7E966
:104F600008010446A2428B4101D3052320E13A6D9A
:104F7000D7F8B830D31A4FF47A7202FB03F3C7F8AC
:104F8000AC30D7F8C420FB6D03F5C0735B0113444C
:104F90001A1D01231370D7F8C420FB6D5B01134465
:104FA00003F540530833D7E91401C3E90001D7F8EA
:104FB000C420FB6D5B01134403F53F533C33187869
:104FC000F96FFB6D5B0103F53F523832D7F8C430FF
:104FD00013440193114B00930B46D7F8AC200121E9
:104FE00004F012FF01E00423E2E097F85B30002BAD
:104FF00040F0DD80FFF720FEC7E92801D7E9140162
:10500000D7E92823904271EB030309D20523CFE0AF
:105010002C000020B07D0208D34D62102946000804
:10502000D7F8C420FB6D03F5C0735B0113441A1D50
:1050300000231370D7F8C420FB6D5B01134403F504
:1050400040530833D7E91401C3E90001FEF77EFBA2
:10505000D7F8C43003F53F53303353E902014FF022
:1050600000024FF0010302FB01F500FB03F42C44A6
:10507000A0FB02AB04EB0B039B46D7F8C43003F54F
:105080000053D3F8F43F0022BB61FA61D7E906343C
:105090001A461AEB02023A6123464BEB03037B618B
:1050A000D7E90434C7E92634D7F8C420FB6D5B0187
:1050B000134403F540530833D3E9000102460B467D
:1050C0004FF000044FF000055D0145EAD265540140
:1050D00022462B46B2EB000863EB01094FF00002B9
:1050E0004FF000034FEA890343EA98734FEA8802BE
:1050F0009046994618EB0003BB6049EB0103FB6047
:105100004FF000024FF00003D7E902452946CB00DB
:1051100020462946044643EA54730146CA001C4609
:105120001346C7E92434D7E92401D7E92623841A92
:105130003C6061EB03037B60D7E90034C7E92234AC
:105140004FF000004FF001014FF000024FF000035C
:10515000420842EAC1724B08D7E9220182428B41E0
:1051600023D3D7F8C420FB6D5B01134403F53F53F1
:105170003C331878D7F88810D7F8C43003F50053BB
:10518000D3F8F44FFB6D5B0103F53F533833D7F889
:10519000C42013440193094B009323460A4601217E
:1051A00004F032FEFEF7E2FA01E0FEF7DFFA002338
:1051B0001846C837BD46BDE8B08F00BF2946000875
:1051C00080B584B000AF7860114B1B68FB607B68D2
:1051D0000A2B01D9022317E0FA687B685B011344AC
:1051E00003F53F533C331B781F2B0CD0FA687B68C8
:1051F0005B01134403F53F533C331B78184604F01E
:10520000EFFE002300E0022318461037BD4680BDA4
:105210002C00002080B582B000AF7860786818F06C
:105220002DFD034683F00103DBB2002B01D00123E7
:1052300000E0002318460837BD4680BD80B582B027
:1052400000AF022000F016F90346591C3B46082225
:105250001846FFF74DF9D7E90023104619460837DD
:10526000BD4680BD80B582B000AF786039603968D6
:10527000786805F0C1F8034618460837BD4680BD7A
:1052800080B483B000AF084B1B683B603B687B6019
:105290000023BA8862F30F03FA8862F31F431846AB
:1052A0000C37BD4680BC70474443020880B500AF50
:1052B0001AF0FEFE0346184680BD80B584B000AFEC
:1052C00078600023FB8107F10C03194678681AF017
:1052D00015FF0346002B07D007F10C0107F10E0361
:1052E00002221846FFF704F9FB8918461037BD461D
:1052F00080BD80B489B000AFF860B9607A60FB68A7
:10530000FB61BB68BB617B687B6100233B610DE097
:10531000BA693B691A4479693B69CB1A013BF9695F
:105320000B4412781A703B6901333B617A693B691F
:105330009A42EDD800BF00BF2437BD4680BC7047FD
:10534000B0B59CB000AF284B1B6803F64C23FB663E
:10535000FB6E184645231A4600211DF091FEFB6E98
:1053600004225A70FB6ECA229A70FB6EFE22DA701B
:10537000FB6E052283F83420FB6E03F1350402F046
:10538000C1FA03460822194620461DF06BFEFB6E4B
:10539000022283F82320FEF7FDF902460B46C7E9F7
:1053A0000623FB6E243307F1180108221846FFF785
:1053B000A0FFFB6E03F12302FC6E3B46114618462C
:1053C00001F028FF04F112033A461568546890680A
:1053D000D1681D605C609860D960127C1A7400BF4F
:1053E0007037BD46B0BD00BF2C00002080B582B034
:1053F00000AFFEF7ABF9064B1B6893F84C3AFB7114
:10540000FEF7B4F9FB7918460837BD4680BD00BFEA
:105410002C00002080B588B000AF78607B681B78D6
:10542000032B04D0402210491048FBF741FD05230F
:105430003B737B68591C07F10C03013308221846A3
:105440001DF010FEFEF782F907F10C03184600F07C
:1054500049F8074B1B68012283F84C2AFEF786F9AE
:1054600000BF2037BD4680BD48430208B043020854
:105470002C00002080B584B000AF0346FB71164BB2
:105480001B6803F64C23FB60FB79013B042B19D806
:1054900001A252F823F000BFAD540008B354000835
:1054A000C5540008B9540008BF540008FB68123303
:1054B0000DE0FB6823330AE0FB68013307E0FB687B
:1054C000343304E0572205490548FBF7F1FC184640
:1054D0001037BD4680BD00BF2C00002048430208A5
:1054E000B043020880B584B000AF7860224B1B68DF
:1054F00003F64C23FB60FEF729F97B681B78013B20
:10550000042B2DD801A252F823F000BF215500082A
:1055100031550008615500084155000851550008F3
:10552000FB6812331122796818461DF09BFD1CE0C0
:10553000FB6823331122796818461DF093FD14E0AF
:10554000FB6801331122796818461DF08BFD0CE0D1
:10555000FB6834331122796818461DF083FD04E09E
:10556000652206490648FBF7A3FCFEF7FFF800BFDB
:105570001037BD4680BD00BF2C0000204843020804
:10558000B043020880B58AB000AF7860364B1B6824
:1055900003F64C233B62002387F82730FEF7D6F84A
:1055A0007B681B78013B042B54D801A252F823F0EE
:1055B000C5550008D955000815560008ED550008D6
:1055C000015600083B6A12331946786802F0EAF87F
:1055D000034687F827303EE03B6A23331946786854
:1055E00002F0E0F8034687F8273034E03B6A0133E5
:1055F0001946786802F0D6F8034687F827302AE083
:105600003B6A34331946786802F0CCF8034687F8D1
:10561000273020E003233B733B6A03F1350107F198
:105620000C030133082218461DF01CFD3B6A03F1F0
:10563000240107F10C030933082218461DF012FD5E
:1056400007F10C031946786802F0ACF8034687F8B6
:10565000273000E000BFFEF789F897F8273018469A
:105660002837BD4680BD00BF2C00002080B489B023
:1056700000AFF860B9607A60FB68FB61BB68BB6132
:105680007B687B6100233B610DE0BA693B691A448A
:1056900079693B69CB1A013BF9690B4412781A709E
:1056A0003B6901333B617A693B699A42EDD800BF9F
:1056B00000BF2437BD4680BC7047000080B582B073
:1056C00000AF0A4B1B687B607B6803F6C8233B6016
:1056D0004FF4DD72002138681DF0D2FC3B680A22CD
:1056E00083F8B82100BF0837BD4680BD2C000020DC
:1056F00080B485B000AF134B1B687B607B6803F6FA
:10570000C8233B600023FB730023FB730023BB60B3
:105710000EE03A68BB682C2101FB03F313441B78AD
:10572000002B02D0FB7B0133FB73BB680133BB60F2
:10573000BB68092BEDD9FB7B18461437BD4680BCEE
:10574000704700BF2C00002090B58BB000AF786090
:105750003960344B1B6803F6C823FB6107F108036B
:1057600000221A605A609A60DA60FFF7C1FF0346B0
:105770001A463B6893424AD200237B6200233B6275
:1057800042E0FA693B6A2C2101FB03F313441B78C6
:10579000002B36D03A687B6A9A422FD13B6A2C2282
:1057A00002FB03F3FA691344991C07F1080308226A
:1057B0001846FFF75BFFFA693B6A2C2101FB03F3F4
:1057C00013440C3393F900303B74FB6993F8B83100
:1057D0001A463B6A934202D100237B740EE0FA69B9
:1057E0003B6A2C2101FB03F313442B331B78002B62
:1057F00002D001237B7401E002237B747B6A0133B6
:105800007B623B6A01333B623B6A092BB9D97B68F7
:105810001C4607F108030FCB84E80F0078682C378B
:10582000BD4690BD2C00002080B584B000AF03467B
:10583000FB71134B1B68FB60FB6803F6C823BB605E
:10584000FB79092B0BD8FB79BA682C2101FB03F3F8
:1058500013441B7883F00103DBB2002B04D06022D9
:1058600008490948FBF724FBFB79BA682C2101FBA6
:1058700003F313440A331B8818461037BD4680BD16
:105880002C000020C44302082C44020880B584B0D8
:1058900000AF03460A46FB711346BB80134B1B68DF
:1058A000FB60FB6803F6C823BB60FB79092B0BD8B0
:1058B000FB79BA682C2101FB03F313441B7883F0B6
:1058C0000103DBB2002B04D0692209490948FBF728
:1058D000EFFAFB79BA682C2101FB03F313440A3376
:1058E000BA881A8000BF1037BD4680BD2C0000204A
:1058F000C44302084044020880B586B000AF786017
:105900000B46FB70204B1B6803F6C8237B61FB78BA
:10591000092B0BD8FB787A692C2101FB03F3134484
:105920001B7883F00103DBB2002B04D071221749EE
:105930001748FBF7BDFAFB787A692C2101FB03F3CA
:1059400013440E331B88BB81FB787A692C2101FB41
:1059500003F3134410331B88FB81FB787A692C21F5
:1059600001FB03F313440C3393F900303B747B6861
:105970001A4607F10C03186810609B8893807868BA
:105980001837BD4680BD00BF2C000020C44302086C
:105990005044020880B588B000AF0346FB71334B1A
:1059A0001B68FB61FB6903F6C823BB61FB79092B0C
:1059B0000BD8FB79BA692C2101FB03F313441B7844
:1059C00083F00103DBB2002B04D07E222849294852
:1059D000FBF76EFAFB79BA692C2101FB03F3134440
:1059E00010331A88FB79B9692C2000FB03F30B44B0
:1059F0000E331B889A4210D91F4A07F1080392E818
:105A0000030083E803001D4A07F1080393E803003D
:105A100007F088FE42F2107324E0FB79BA692C216A
:105A200001FB03F313440E331B88002B02D142F217
:105A3000107317E0FB79BA692C2101FB03F31344BF
:105A400010331B881A4642F2107302FB03F3FA79F3
:105A5000B9692C2000FB02F20A440E321288B3FB13
:105A6000F2F39BB218462037BD4680BD2C000020C3
:105A7000C443020840440208844402086444020803
:105A800080B584B000AF78600B46FB70164B1B6886
:105A9000FB60FB6803F6C823BB60FB78092B0BD8BF
:105AA000FB78BA682C2101FB03F313441B7883F0C5
:105AB0000103DBB2002B04D093220C490C48FBF706
:105AC000F7F9FB787868BA682C2101FB03F31344DB
:105AD000103302460233196811601B79137178681C
